{"abi":[{"inputs":[],"stateMutability":"nonpayable","type":"constructor"},{"anonymous":false,"inputs":[{"indexed":false,"internalType":"address","name":"loyaltyRebatesAddress","type":"address"}],"name":"loyaltyRebateDeployed","type":"event"},{"anonymous":false,"inputs":[{"indexed":false,"internalType":"address","name":"purchaseNegotiationAddress","type":"address"}],"name":"purchaseNegotiationDeployed","type":"event"},{"anonymous":false,"inputs":[{"indexed":false,"internalType":"address","name":"purchaseOrderAddress","type":"address"}],"name":"purchaseOrderDeployed","type":"event"},{"anonymous":false,"inputs":[{"indexed":false,"internalType":"address","name":"rebatesSettelmentAddress","type":"address"}],"name":"rebateSettlementDeployed","type":"event"},{"anonymous":false,"inputs":[{"indexed":false,"internalType":"address","name":"registrationContractAddress","type":"address"}],"name":"registrationDeployed","type":"event"},{"inputs":[],"name":"createLoyaltyRebates","outputs":[],"stateMutability":"nonpayable","type":"function"},{"inputs":[],"name":"createPurchaseNegotiations","outputs":[],"stateMutability":"nonpayable","type":"function"},{"inputs":[],"name":"createPurchaseOrders","outputs":[],"stateMutability":"nonpayable","type":"function"},{"inputs":[],"name":"createRebatesSettelment","outputs":[],"stateMutability":"nonpayable","type":"function"},{"inputs":[],"name":"createRegistration","outputs":[],"stateMutability":"nonpayable","type":"function"},{"inputs":[{"internalType":"address","name":"","type":"address"},{"internalType":"uint256","name":"","type":"uint256"}],"name":"deployedRegistrationContracts","outputs":[{"internalType":"address","name":"","type":"address"}],"stateMutability":"view","type":"function"}],"devdoc":{"kind":"dev","methods":{},"version":1},"evm":{"assembly":"    /* \"Procure.sol\":30:3854  contract ContractFactory{                   // this contract factory will keep record of all deployed contract\r... */\n  mstore(0x40, 0x80)\n    /* \"Procure.sol\":434:578  constructor() public{\r... */\n  callvalue\n  dup1\n  iszero\n  tag_1\n  jumpi\n  0x00\n  dup1\n  revert\ntag_1:\n  pop\n    /* \"Procure.sol\":475:485  msg.sender */\n  caller\n    /* \"Procure.sol\":465:474  institute */\n  0x00\n  dup1\n    /* \"Procure.sol\":465:485  institute=msg.sender */\n  0x0100\n  exp\n  dup2\n  sload\n  dup2\n  0xffffffffffffffffffffffffffffffffffffffff\n  mul\n  not\n  and\n  swap1\n  dup4\n  0xffffffffffffffffffffffffffffffffffffffff\n  and\n  mul\n  or\n  swap1\n  sstore\n  pop\n    /* \"Procure.sol\":30:3854  contract ContractFactory{                   // this contract factory will keep record of all deployed contract\r... */\n  dataSize(sub_0)\n  dup1\n  dataOffset(sub_0)\n  0x00\n  codecopy\n  0x00\n  return\nstop\n\nsub_0: assembly {\n        /* \"Procure.sol\":30:3854  contract ContractFactory{                   // this contract factory will keep record of all deployed contract\r... */\n      mstore(0x40, 0x80)\n      callvalue\n      dup1\n      iszero\n      tag_1\n      jumpi\n      0x00\n      dup1\n      revert\n    tag_1:\n      pop\n      jumpi(tag_2, lt(calldatasize, 0x04))\n      shr(0xe0, calldataload(0x00))\n      dup1\n      0x2578a72c\n      eq\n      tag_3\n      jumpi\n      dup1\n      0x741f4ebc\n      eq\n      tag_4\n      jumpi\n      dup1\n      0xa2e3a0d3\n      eq\n      tag_5\n      jumpi\n      dup1\n      0xcdb0732d\n      eq\n      tag_6\n      jumpi\n      dup1\n      0xd67c8f22\n      eq\n      tag_7\n      jumpi\n      dup1\n      0xdc94ae5a\n      eq\n      tag_8\n      jumpi\n    tag_2:\n      0x00\n      dup1\n      revert\n        /* \"Procure.sol\":2710:3285  function createRebatesSettelment() public onlyGPOs{\r... */\n    tag_3:\n      tag_9\n      tag_10\n      jump\t// in\n    tag_9:\n      stop\n        /* \"Procure.sol\":1135:1532  function createRegistration() public{\r... */\n    tag_4:\n      tag_11\n      tag_12\n      jump\t// in\n    tag_11:\n      stop\n        /* \"Procure.sol\":2142:2702  function createPurchaseOrders() public onlyGPOs{\r... */\n    tag_5:\n      tag_13\n      tag_14\n      jump\t// in\n    tag_13:\n      stop\n        /* \"Procure.sol\":1540:2130  function createPurchaseNegotiations() public onlyGPOs{\r... */\n    tag_6:\n      tag_15\n      tag_16\n      jump\t// in\n    tag_15:\n      stop\n        /* \"Procure.sol\":3293:3843  function createLoyaltyRebates() public onlyGPOs{\r... */\n    tag_7:\n      tag_17\n      tag_18\n      jump\t// in\n    tag_17:\n      stop\n        /* \"Procure.sol\":254:319  mapping(address=>address[5]) public deployedRegistrationContracts */\n    tag_8:\n      tag_19\n      0x04\n      dup1\n      calldatasize\n      sub\n      0x40\n      dup2\n      lt\n      iszero\n      tag_20\n      jumpi\n      0x00\n      dup1\n      revert\n    tag_20:\n      dup2\n      add\n      swap1\n      dup1\n      dup1\n      calldataload\n      0xffffffffffffffffffffffffffffffffffffffff\n      and\n      swap1\n      0x20\n      add\n      swap1\n      swap3\n      swap2\n      swap1\n      dup1\n      calldataload\n      swap1\n      0x20\n      add\n      swap1\n      swap3\n      swap2\n      swap1\n      pop\n      pop\n      pop\n      tag_21\n      jump\t// in\n    tag_19:\n      mload(0x40)\n      dup1\n      dup3\n      0xffffffffffffffffffffffffffffffffffffffff\n      and\n      dup2\n      mstore\n      0x20\n      add\n      swap2\n      pop\n      pop\n      mload(0x40)\n      dup1\n      swap2\n      sub\n      swap1\n      return\n        /* \"Procure.sol\":2710:3285  function createRebatesSettelment() public onlyGPOs{\r... */\n    tag_10:\n        /* \"Procure.sol\":667:671  true */\n      0x01\n        /* \"Procure.sol\":639:671  registeredGPOs[msg.sender]==true */\n      iszero\n      iszero\n        /* \"Procure.sol\":639:653  registeredGPOs */\n      0x02\n        /* \"Procure.sol\":639:665  registeredGPOs[msg.sender] */\n      0x00\n        /* \"Procure.sol\":654:664  msg.sender */\n      caller\n        /* \"Procure.sol\":639:665  registeredGPOs[msg.sender] */\n      0xffffffffffffffffffffffffffffffffffffffff\n      and\n      0xffffffffffffffffffffffffffffffffffffffff\n      and\n      dup2\n      mstore\n      0x20\n      add\n      swap1\n      dup2\n      mstore\n      0x20\n      add\n      0x00\n      keccak256\n      0x00\n      swap1\n      sload\n      swap1\n      0x0100\n      exp\n      swap1\n      div\n      0xff\n      and\n        /* \"Procure.sol\":639:671  registeredGPOs[msg.sender]==true */\n      iszero\n      iszero\n      eq\n        /* \"Procure.sol\":631:720  require(registeredGPOs[msg.sender]==true,\r... */\n      tag_23\n      jumpi\n      mload(0x40)\n      0x08c379a000000000000000000000000000000000000000000000000000000000\n      dup2\n      mstore\n      0x04\n      add\n      dup1\n      dup1\n      0x20\n      add\n      dup3\n      dup2\n      sub\n      dup3\n      mstore\n      0x1d\n      dup2\n      mstore\n      0x20\n      add\n      dup1\n      0x53656e646572206e6f7420617574686f72697a65642061732047504f2e000000\n      dup2\n      mstore\n      pop\n      0x20\n      add\n      swap2\n      pop\n      pop\n      mload(0x40)\n      dup1\n      swap2\n      sub\n      swap1\n      revert\n    tag_23:\n        /* \"Procure.sol\":2833:2834  0 */\n      0x00\n        /* \"Procure.sol\":2779:2835  deployedRegistrationContracts[msg.sender][2]!=address(0) */\n      0xffffffffffffffffffffffffffffffffffffffff\n      and\n        /* \"Procure.sol\":2779:2808  deployedRegistrationContracts */\n      0x01\n        /* \"Procure.sol\":2779:2820  deployedRegistrationContracts[msg.sender] */\n      0x00\n        /* \"Procure.sol\":2809:2819  msg.sender */\n      caller\n        /* \"Procure.sol\":2779:2820  deployedRegistrationContracts[msg.sender] */\n      0xffffffffffffffffffffffffffffffffffffffff\n      and\n      0xffffffffffffffffffffffffffffffffffffffff\n      and\n      dup2\n      mstore\n      0x20\n      add\n      swap1\n      dup2\n      mstore\n      0x20\n      add\n      0x00\n      keccak256\n        /* \"Procure.sol\":2821:2822  2 */\n      0x02\n        /* \"Procure.sol\":2779:2823  deployedRegistrationContracts[msg.sender][2] */\n      0x05\n      dup2\n      lt\n      tag_25\n      jumpi\n      invalid\n    tag_25:\n      add\n      0x00\n      swap1\n      sload\n      swap1\n      0x0100\n      exp\n      swap1\n      div\n      0xffffffffffffffffffffffffffffffffffffffff\n      and\n        /* \"Procure.sol\":2779:2835  deployedRegistrationContracts[msg.sender][2]!=address(0) */\n      0xffffffffffffffffffffffffffffffffffffffff\n      and\n      eq\n      iszero\n        /* \"Procure.sol\":2771:2870  require(deployedRegistrationContracts[msg.sender][2]!=address(0),\"Purchase order not deployed yet\") */\n      tag_27\n      jumpi\n      mload(0x40)\n      0x08c379a000000000000000000000000000000000000000000000000000000000\n      dup2\n      mstore\n      0x04\n      add\n      dup1\n      dup1\n      0x20\n      add\n      dup3\n      dup2\n      sub\n      dup3\n      mstore\n      0x1f\n      dup2\n      mstore\n      0x20\n      add\n      dup1\n      0x5075726368617365206f72646572206e6f74206465706c6f7965642079657400\n      dup2\n      mstore\n      pop\n      0x20\n      add\n      swap2\n      pop\n      pop\n      mload(0x40)\n      dup1\n      swap2\n      sub\n      swap1\n      revert\n    tag_27:\n        /* \"Procure.sol\":2943:2944  0 */\n      0x00\n        /* \"Procure.sol\":2889:2945  deployedRegistrationContracts[msg.sender][3]==address(0) */\n      0xffffffffffffffffffffffffffffffffffffffff\n      and\n        /* \"Procure.sol\":2889:2918  deployedRegistrationContracts */\n      0x01\n        /* \"Procure.sol\":2889:2930  deployedRegistrationContracts[msg.sender] */\n      0x00\n        /* \"Procure.sol\":2919:2929  msg.sender */\n      caller\n        /* \"Procure.sol\":2889:2930  deployedRegistrationContracts[msg.sender] */\n      0xffffffffffffffffffffffffffffffffffffffff\n      and\n      0xffffffffffffffffffffffffffffffffffffffff\n      and\n      dup2\n      mstore\n      0x20\n      add\n      swap1\n      dup2\n      mstore\n      0x20\n      add\n      0x00\n      keccak256\n        /* \"Procure.sol\":2931:2932  3 */\n      0x03\n        /* \"Procure.sol\":2889:2933  deployedRegistrationContracts[msg.sender][3] */\n      0x05\n      dup2\n      lt\n      tag_28\n      jumpi\n      invalid\n    tag_28:\n      add\n      0x00\n      swap1\n      sload\n      swap1\n      0x0100\n      exp\n      swap1\n      div\n      0xffffffffffffffffffffffffffffffffffffffff\n      and\n        /* \"Procure.sol\":2889:2945  deployedRegistrationContracts[msg.sender][3]==address(0) */\n      0xffffffffffffffffffffffffffffffffffffffff\n      and\n      eq\n        /* \"Procure.sol\":2881:2983  require(deployedRegistrationContracts[msg.sender][3]==address(0),\"Rebate settlement already deployed\") */\n      tag_30\n      jumpi\n      mload(0x40)\n      0x08c379a000000000000000000000000000000000000000000000000000000000\n      dup2\n      mstore\n      0x04\n      add\n      dup1\n      dup1\n      0x20\n      add\n      dup3\n      dup2\n      sub\n      dup3\n      mstore\n      0x22\n      dup2\n      mstore\n      0x20\n      add\n      dup1\n      data_9ad25acc091ed04a2bf85e97e3569cca03ad803b1d267727951d84d366639153\n      0x22\n      swap2\n      codecopy\n      0x40\n      add\n      swap2\n      pop\n      pop\n      mload(0x40)\n      dup1\n      swap2\n      sub\n      swap1\n      revert\n    tag_30:\n        /* \"Procure.sol\":2996:3034  RebatesSettelment newRebatesSettelment */\n      0x00\n        /* \"Procure.sol\":3059:3088  deployedRegistrationContracts */\n      0x01\n        /* \"Procure.sol\":3059:3100  deployedRegistrationContracts[msg.sender] */\n      0x00\n        /* \"Procure.sol\":3089:3099  msg.sender */\n      caller\n        /* \"Procure.sol\":3059:3100  deployedRegistrationContracts[msg.sender] */\n      0xffffffffffffffffffffffffffffffffffffffff\n      and\n      0xffffffffffffffffffffffffffffffffffffffff\n      and\n      dup2\n      mstore\n      0x20\n      add\n      swap1\n      dup2\n      mstore\n      0x20\n      add\n      0x00\n      keccak256\n        /* \"Procure.sol\":3101:3102  0 */\n      0x00\n        /* \"Procure.sol\":3059:3103  deployedRegistrationContracts[msg.sender][0] */\n      0x05\n      dup2\n      lt\n      tag_31\n      jumpi\n      invalid\n    tag_31:\n      add\n      0x00\n      swap1\n      sload\n      swap1\n      0x0100\n      exp\n      swap1\n      div\n      0xffffffffffffffffffffffffffffffffffffffff\n      and\n        /* \"Procure.sol\":3037:3104  new RebatesSettelment(deployedRegistrationContracts[msg.sender][0]) */\n      mload(0x40)\n      tag_33\n      swap1\n      tag_34\n      jump\t// in\n    tag_33:\n      dup1\n      dup3\n      0xffffffffffffffffffffffffffffffffffffffff\n      and\n      dup2\n      mstore\n      0x20\n      add\n      swap2\n      pop\n      pop\n      mload(0x40)\n      dup1\n      swap2\n      sub\n      swap1\n      0x00\n      create\n      dup1\n      iszero\n      dup1\n      iszero\n      tag_35\n      jumpi\n      returndatasize\n      0x00\n      dup1\n      returndatacopy\n      revert(0x00, returndatasize)\n    tag_35:\n      pop\n        /* \"Procure.sol\":2996:3104  RebatesSettelment newRebatesSettelment = new RebatesSettelment(deployedRegistrationContracts[msg.sender][0]) */\n      swap1\n      pop\n        /* \"Procure.sol\":3168:3188  newRebatesSettelment */\n      dup1\n        /* \"Procure.sol\":3115:3144  deployedRegistrationContracts */\n      0x01\n        /* \"Procure.sol\":3115:3156  deployedRegistrationContracts[msg.sender] */\n      0x00\n        /* \"Procure.sol\":3145:3155  msg.sender */\n      caller\n        /* \"Procure.sol\":3115:3156  deployedRegistrationContracts[msg.sender] */\n      0xffffffffffffffffffffffffffffffffffffffff\n      and\n      0xffffffffffffffffffffffffffffffffffffffff\n      and\n      dup2\n      mstore\n      0x20\n      add\n      swap1\n      dup2\n      mstore\n      0x20\n      add\n      0x00\n      keccak256\n        /* \"Procure.sol\":3157:3158  3 */\n      0x03\n        /* \"Procure.sol\":3115:3159  deployedRegistrationContracts[msg.sender][3] */\n      0x05\n      dup2\n      lt\n      tag_36\n      jumpi\n      invalid\n    tag_36:\n      add\n      0x00\n        /* \"Procure.sol\":3115:3189  deployedRegistrationContracts[msg.sender][3]=address(newRebatesSettelment) */\n      0x0100\n      exp\n      dup2\n      sload\n      dup2\n      0xffffffffffffffffffffffffffffffffffffffff\n      mul\n      not\n      and\n      swap1\n      dup4\n      0xffffffffffffffffffffffffffffffffffffffff\n      and\n      mul\n      or\n      swap1\n      sstore\n      pop\n        /* \"Procure.sol\":3207:3277  rebateSettlementDeployed(deployedRegistrationContracts[msg.sender][3]) */\n      0x7407654b69a9405f4efce3dec2fe6534f55afa5a8128df6e13077f825d35c9cb\n        /* \"Procure.sol\":3232:3261  deployedRegistrationContracts */\n      0x01\n        /* \"Procure.sol\":3232:3273  deployedRegistrationContracts[msg.sender] */\n      0x00\n        /* \"Procure.sol\":3262:3272  msg.sender */\n      caller\n        /* \"Procure.sol\":3232:3273  deployedRegistrationContracts[msg.sender] */\n      0xffffffffffffffffffffffffffffffffffffffff\n      and\n      0xffffffffffffffffffffffffffffffffffffffff\n      and\n      dup2\n      mstore\n      0x20\n      add\n      swap1\n      dup2\n      mstore\n      0x20\n      add\n      0x00\n      keccak256\n        /* \"Procure.sol\":3274:3275  3 */\n      0x03\n        /* \"Procure.sol\":3232:3276  deployedRegistrationContracts[msg.sender][3] */\n      0x05\n      dup2\n      lt\n      tag_38\n      jumpi\n      invalid\n    tag_38:\n      add\n      0x00\n      swap1\n      sload\n      swap1\n      0x0100\n      exp\n      swap1\n      div\n      0xffffffffffffffffffffffffffffffffffffffff\n      and\n        /* \"Procure.sol\":3207:3277  rebateSettlementDeployed(deployedRegistrationContracts[msg.sender][3]) */\n      mload(0x40)\n      dup1\n      dup3\n      0xffffffffffffffffffffffffffffffffffffffff\n      and\n      dup2\n      mstore\n      0x20\n      add\n      swap2\n      pop\n      pop\n      mload(0x40)\n      dup1\n      swap2\n      sub\n      swap1\n      log1\n        /* \"Procure.sol\":729:730  _ */\n      pop\n        /* \"Procure.sol\":2710:3285  function createRebatesSettelment() public onlyGPOs{\r... */\n      jump\t// out\n        /* \"Procure.sol\":1135:1532  function createRegistration() public{\r... */\n    tag_12:\n        /* \"Procure.sol\":1191:1205  registeredGPOs */\n      0x02\n        /* \"Procure.sol\":1191:1217  registeredGPOs[msg.sender] */\n      0x00\n        /* \"Procure.sol\":1206:1216  msg.sender */\n      caller\n        /* \"Procure.sol\":1191:1217  registeredGPOs[msg.sender] */\n      0xffffffffffffffffffffffffffffffffffffffff\n      and\n      0xffffffffffffffffffffffffffffffffffffffff\n      and\n      dup2\n      mstore\n      0x20\n      add\n      swap1\n      dup2\n      mstore\n      0x20\n      add\n      0x00\n      keccak256\n      0x00\n      swap1\n      sload\n      swap1\n      0x0100\n      exp\n      swap1\n      div\n      0xff\n      and\n        /* \"Procure.sol\":1190:1217  !registeredGPOs[msg.sender] */\n      iszero\n        /* \"Procure.sol\":1182:1246  require(!registeredGPOs[msg.sender],\"Registration done already\") */\n      tag_41\n      jumpi\n      mload(0x40)\n      0x08c379a000000000000000000000000000000000000000000000000000000000\n      dup2\n      mstore\n      0x04\n      add\n      dup1\n      dup1\n      0x20\n      add\n      dup3\n      dup2\n      sub\n      dup3\n      mstore\n      0x19\n      dup2\n      mstore\n      0x20\n      add\n      dup1\n      0x526567697374726174696f6e20646f6e6520616c726561647900000000000000\n      dup2\n      mstore\n      pop\n      0x20\n      add\n      swap2\n      pop\n      pop\n      mload(0x40)\n      dup1\n      swap2\n      sub\n      swap1\n      revert\n    tag_41:\n        /* \"Procure.sol\":1259:1287  Registration newRegistration */\n      0x00\n        /* \"Procure.sol\":1307:1317  msg.sender */\n      caller\n        /* \"Procure.sol\":1290:1318  new Registration(msg.sender) */\n      mload(0x40)\n      tag_42\n      swap1\n      tag_43\n      jump\t// in\n    tag_42:\n      dup1\n      dup3\n      0xffffffffffffffffffffffffffffffffffffffff\n      and\n      dup2\n      mstore\n      0x20\n      add\n      swap2\n      pop\n      pop\n      mload(0x40)\n      dup1\n      swap2\n      sub\n      swap1\n      0x00\n      create\n      dup1\n      iszero\n      dup1\n      iszero\n      tag_44\n      jumpi\n      returndatasize\n      0x00\n      dup1\n      returndatacopy\n      revert(0x00, returndatasize)\n    tag_44:\n      pop\n        /* \"Procure.sol\":1259:1318  Registration newRegistration = new Registration(msg.sender) */\n      swap1\n      pop\n        /* \"Procure.sol\":1382:1397  newRegistration */\n      dup1\n        /* \"Procure.sol\":1329:1358  deployedRegistrationContracts */\n      0x01\n        /* \"Procure.sol\":1329:1370  deployedRegistrationContracts[msg.sender] */\n      0x00\n        /* \"Procure.sol\":1359:1369  msg.sender */\n      caller\n        /* \"Procure.sol\":1329:1370  deployedRegistrationContracts[msg.sender] */\n      0xffffffffffffffffffffffffffffffffffffffff\n      and\n      0xffffffffffffffffffffffffffffffffffffffff\n      and\n      dup2\n      mstore\n      0x20\n      add\n      swap1\n      dup2\n      mstore\n      0x20\n      add\n      0x00\n      keccak256\n        /* \"Procure.sol\":1371:1372  0 */\n      0x00\n        /* \"Procure.sol\":1329:1373  deployedRegistrationContracts[msg.sender][0] */\n      0x05\n      dup2\n      lt\n      tag_45\n      jumpi\n      invalid\n    tag_45:\n      add\n      0x00\n        /* \"Procure.sol\":1329:1398  deployedRegistrationContracts[msg.sender][0]=address(newRegistration) */\n      0x0100\n      exp\n      dup2\n      sload\n      dup2\n      0xffffffffffffffffffffffffffffffffffffffff\n      mul\n      not\n      and\n      swap1\n      dup4\n      0xffffffffffffffffffffffffffffffffffffffff\n      and\n      mul\n      or\n      swap1\n      sstore\n      pop\n        /* \"Procure.sol\":1436:1440  true */\n      0x01\n        /* \"Procure.sol\":1409:1423  registeredGPOs */\n      0x02\n        /* \"Procure.sol\":1409:1435  registeredGPOs[msg.sender] */\n      0x00\n        /* \"Procure.sol\":1424:1434  msg.sender */\n      caller\n        /* \"Procure.sol\":1409:1435  registeredGPOs[msg.sender] */\n      0xffffffffffffffffffffffffffffffffffffffff\n      and\n      0xffffffffffffffffffffffffffffffffffffffff\n      and\n      dup2\n      mstore\n      0x20\n      add\n      swap1\n      dup2\n      mstore\n      0x20\n      add\n      0x00\n      keccak256\n      0x00\n        /* \"Procure.sol\":1409:1440  registeredGPOs[msg.sender]=true */\n      0x0100\n      exp\n      dup2\n      sload\n      dup2\n      0xff\n      mul\n      not\n      and\n      swap1\n      dup4\n      iszero\n      iszero\n      mul\n      or\n      swap1\n      sstore\n      pop\n        /* \"Procure.sol\":1458:1524  registrationDeployed(deployedRegistrationContracts[msg.sender][0]) */\n      0x01d111c79619a9bb5b0e1dbf751a9792397cde25a781f02ecfaad0d3ea9b5b8d\n        /* \"Procure.sol\":1479:1508  deployedRegistrationContracts */\n      0x01\n        /* \"Procure.sol\":1479:1520  deployedRegistrationContracts[msg.sender] */\n      0x00\n        /* \"Procure.sol\":1509:1519  msg.sender */\n      caller\n        /* \"Procure.sol\":1479:1520  deployedRegistrationContracts[msg.sender] */\n      0xffffffffffffffffffffffffffffffffffffffff\n      and\n      0xffffffffffffffffffffffffffffffffffffffff\n      and\n      dup2\n      mstore\n      0x20\n      add\n      swap1\n      dup2\n      mstore\n      0x20\n      add\n      0x00\n      keccak256\n        /* \"Procure.sol\":1521:1522  0 */\n      0x00\n        /* \"Procure.sol\":1479:1523  deployedRegistrationContracts[msg.sender][0] */\n      0x05\n      dup2\n      lt\n      tag_47\n      jumpi\n      invalid\n    tag_47:\n      add\n      0x00\n      swap1\n      sload\n      swap1\n      0x0100\n      exp\n      swap1\n      div\n      0xffffffffffffffffffffffffffffffffffffffff\n      and\n        /* \"Procure.sol\":1458:1524  registrationDeployed(deployedRegistrationContracts[msg.sender][0]) */\n      mload(0x40)\n      dup1\n      dup3\n      0xffffffffffffffffffffffffffffffffffffffff\n      and\n      dup2\n      mstore\n      0x20\n      add\n      swap2\n      pop\n      pop\n      mload(0x40)\n      dup1\n      swap2\n      sub\n      swap1\n      log1\n        /* \"Procure.sol\":1135:1532  function createRegistration() public{\r... */\n      pop\n      jump\t// out\n        /* \"Procure.sol\":2142:2702  function createPurchaseOrders() public onlyGPOs{\r... */\n    tag_14:\n        /* \"Procure.sol\":667:671  true */\n      0x01\n        /* \"Procure.sol\":639:671  registeredGPOs[msg.sender]==true */\n      iszero\n      iszero\n        /* \"Procure.sol\":639:653  registeredGPOs */\n      0x02\n        /* \"Procure.sol\":639:665  registeredGPOs[msg.sender] */\n      0x00\n        /* \"Procure.sol\":654:664  msg.sender */\n      caller\n        /* \"Procure.sol\":639:665  registeredGPOs[msg.sender] */\n      0xffffffffffffffffffffffffffffffffffffffff\n      and\n      0xffffffffffffffffffffffffffffffffffffffff\n      and\n      dup2\n      mstore\n      0x20\n      add\n      swap1\n      dup2\n      mstore\n      0x20\n      add\n      0x00\n      keccak256\n      0x00\n      swap1\n      sload\n      swap1\n      0x0100\n      exp\n      swap1\n      div\n      0xff\n      and\n        /* \"Procure.sol\":639:671  registeredGPOs[msg.sender]==true */\n      iszero\n      iszero\n      eq\n        /* \"Procure.sol\":631:720  require(registeredGPOs[msg.sender]==true,\r... */\n      tag_50\n      jumpi\n      mload(0x40)\n      0x08c379a000000000000000000000000000000000000000000000000000000000\n      dup2\n      mstore\n      0x04\n      add\n      dup1\n      dup1\n      0x20\n      add\n      dup3\n      dup2\n      sub\n      dup3\n      mstore\n      0x1d\n      dup2\n      mstore\n      0x20\n      add\n      dup1\n      0x53656e646572206e6f7420617574686f72697a65642061732047504f2e000000\n      dup2\n      mstore\n      pop\n      0x20\n      add\n      swap2\n      pop\n      pop\n      mload(0x40)\n      dup1\n      swap2\n      sub\n      swap1\n      revert\n    tag_50:\n        /* \"Procure.sol\":2262:2263  0 */\n      0x00\n        /* \"Procure.sol\":2208:2264  deployedRegistrationContracts[msg.sender][1]!=address(0) */\n      0xffffffffffffffffffffffffffffffffffffffff\n      and\n        /* \"Procure.sol\":2208:2237  deployedRegistrationContracts */\n      0x01\n        /* \"Procure.sol\":2208:2249  deployedRegistrationContracts[msg.sender] */\n      0x00\n        /* \"Procure.sol\":2238:2248  msg.sender */\n      caller\n        /* \"Procure.sol\":2208:2249  deployedRegistrationContracts[msg.sender] */\n      0xffffffffffffffffffffffffffffffffffffffff\n      and\n      0xffffffffffffffffffffffffffffffffffffffff\n      and\n      dup2\n      mstore\n      0x20\n      add\n      swap1\n      dup2\n      mstore\n      0x20\n      add\n      0x00\n      keccak256\n        /* \"Procure.sol\":2250:2251  1 */\n      0x01\n        /* \"Procure.sol\":2208:2252  deployedRegistrationContracts[msg.sender][1] */\n      0x05\n      dup2\n      lt\n      tag_52\n      jumpi\n      invalid\n    tag_52:\n      add\n      0x00\n      swap1\n      sload\n      swap1\n      0x0100\n      exp\n      swap1\n      div\n      0xffffffffffffffffffffffffffffffffffffffff\n      and\n        /* \"Procure.sol\":2208:2264  deployedRegistrationContracts[msg.sender][1]!=address(0) */\n      0xffffffffffffffffffffffffffffffffffffffff\n      and\n      eq\n      iszero\n        /* \"Procure.sol\":2200:2305  require(deployedRegistrationContracts[msg.sender][1]!=address(0),\"Purchase negotiation not deployed yet\") */\n      tag_54\n      jumpi\n      mload(0x40)\n      0x08c379a000000000000000000000000000000000000000000000000000000000\n      dup2\n      mstore\n      0x04\n      add\n      dup1\n      dup1\n      0x20\n      add\n      dup3\n      dup2\n      sub\n      dup3\n      mstore\n      0x25\n      dup2\n      mstore\n      0x20\n      add\n      dup1\n      data_72896a8f08dd857dd1a7e7c4b4408c976c57091b7083d7bc27dfb182112efc6e\n      0x25\n      swap2\n      codecopy\n      0x40\n      add\n      swap2\n      pop\n      pop\n      mload(0x40)\n      dup1\n      swap2\n      sub\n      swap1\n      revert\n    tag_54:\n        /* \"Procure.sol\":2378:2379  0 */\n      0x00\n        /* \"Procure.sol\":2324:2380  deployedRegistrationContracts[msg.sender][2]==address(0) */\n      0xffffffffffffffffffffffffffffffffffffffff\n      and\n        /* \"Procure.sol\":2324:2353  deployedRegistrationContracts */\n      0x01\n        /* \"Procure.sol\":2324:2365  deployedRegistrationContracts[msg.sender] */\n      0x00\n        /* \"Procure.sol\":2354:2364  msg.sender */\n      caller\n        /* \"Procure.sol\":2324:2365  deployedRegistrationContracts[msg.sender] */\n      0xffffffffffffffffffffffffffffffffffffffff\n      and\n      0xffffffffffffffffffffffffffffffffffffffff\n      and\n      dup2\n      mstore\n      0x20\n      add\n      swap1\n      dup2\n      mstore\n      0x20\n      add\n      0x00\n      keccak256\n        /* \"Procure.sol\":2366:2367  2 */\n      0x02\n        /* \"Procure.sol\":2324:2368  deployedRegistrationContracts[msg.sender][2] */\n      0x05\n      dup2\n      lt\n      tag_55\n      jumpi\n      invalid\n    tag_55:\n      add\n      0x00\n      swap1\n      sload\n      swap1\n      0x0100\n      exp\n      swap1\n      div\n      0xffffffffffffffffffffffffffffffffffffffff\n      and\n        /* \"Procure.sol\":2324:2380  deployedRegistrationContracts[msg.sender][2]==address(0) */\n      0xffffffffffffffffffffffffffffffffffffffff\n      and\n      eq\n        /* \"Procure.sol\":2316:2415  require(deployedRegistrationContracts[msg.sender][2]==address(0),\"Purchase order already deployed\") */\n      tag_57\n      jumpi\n      mload(0x40)\n      0x08c379a000000000000000000000000000000000000000000000000000000000\n      dup2\n      mstore\n      0x04\n      add\n      dup1\n      dup1\n      0x20\n      add\n      dup3\n      dup2\n      sub\n      dup3\n      mstore\n      0x1f\n      dup2\n      mstore\n      0x20\n      add\n      dup1\n      0x5075726368617365206f7264657220616c7265616479206465706c6f79656400\n      dup2\n      mstore\n      pop\n      0x20\n      add\n      swap2\n      pop\n      pop\n      mload(0x40)\n      dup1\n      swap2\n      sub\n      swap1\n      revert\n    tag_57:\n        /* \"Procure.sol\":2428:2460  PurchaseOrders newPurchaseOrders */\n      0x00\n        /* \"Procure.sol\":2482:2511  deployedRegistrationContracts */\n      0x01\n        /* \"Procure.sol\":2482:2523  deployedRegistrationContracts[msg.sender] */\n      0x00\n        /* \"Procure.sol\":2512:2522  msg.sender */\n      caller\n        /* \"Procure.sol\":2482:2523  deployedRegistrationContracts[msg.sender] */\n      0xffffffffffffffffffffffffffffffffffffffff\n      and\n      0xffffffffffffffffffffffffffffffffffffffff\n      and\n      dup2\n      mstore\n      0x20\n      add\n      swap1\n      dup2\n      mstore\n      0x20\n      add\n      0x00\n      keccak256\n        /* \"Procure.sol\":2524:2525  0 */\n      0x00\n        /* \"Procure.sol\":2482:2526  deployedRegistrationContracts[msg.sender][0] */\n      0x05\n      dup2\n      lt\n      tag_58\n      jumpi\n      invalid\n    tag_58:\n      add\n      0x00\n      swap1\n      sload\n      swap1\n      0x0100\n      exp\n      swap1\n      div\n      0xffffffffffffffffffffffffffffffffffffffff\n      and\n        /* \"Procure.sol\":2463:2527  new PurchaseOrders(deployedRegistrationContracts[msg.sender][0]) */\n      mload(0x40)\n      tag_60\n      swap1\n      tag_61\n      jump\t// in\n    tag_60:\n      dup1\n      dup3\n      0xffffffffffffffffffffffffffffffffffffffff\n      and\n      dup2\n      mstore\n      0x20\n      add\n      swap2\n      pop\n      pop\n      mload(0x40)\n      dup1\n      swap2\n      sub\n      swap1\n      0x00\n      create\n      dup1\n      iszero\n      dup1\n      iszero\n      tag_62\n      jumpi\n      returndatasize\n      0x00\n      dup1\n      returndatacopy\n      revert(0x00, returndatasize)\n    tag_62:\n      pop\n        /* \"Procure.sol\":2428:2527  PurchaseOrders newPurchaseOrders = new PurchaseOrders(deployedRegistrationContracts[msg.sender][0]) */\n      swap1\n      pop\n        /* \"Procure.sol\":2591:2608  newPurchaseOrders */\n      dup1\n        /* \"Procure.sol\":2538:2567  deployedRegistrationContracts */\n      0x01\n        /* \"Procure.sol\":2538:2579  deployedRegistrationContracts[msg.sender] */\n      0x00\n        /* \"Procure.sol\":2568:2578  msg.sender */\n      caller\n        /* \"Procure.sol\":2538:2579  deployedRegistrationContracts[msg.sender] */\n      0xffffffffffffffffffffffffffffffffffffffff\n      and\n      0xffffffffffffffffffffffffffffffffffffffff\n      and\n      dup2\n      mstore\n      0x20\n      add\n      swap1\n      dup2\n      mstore\n      0x20\n      add\n      0x00\n      keccak256\n        /* \"Procure.sol\":2580:2581  2 */\n      0x02\n        /* \"Procure.sol\":2538:2582  deployedRegistrationContracts[msg.sender][2] */\n      0x05\n      dup2\n      lt\n      tag_63\n      jumpi\n      invalid\n    tag_63:\n      add\n      0x00\n        /* \"Procure.sol\":2538:2609  deployedRegistrationContracts[msg.sender][2]=address(newPurchaseOrders) */\n      0x0100\n      exp\n      dup2\n      sload\n      dup2\n      0xffffffffffffffffffffffffffffffffffffffff\n      mul\n      not\n      and\n      swap1\n      dup4\n      0xffffffffffffffffffffffffffffffffffffffff\n      and\n      mul\n      or\n      swap1\n      sstore\n      pop\n        /* \"Procure.sol\":2627:2694  purchaseOrderDeployed(deployedRegistrationContracts[msg.sender][2]) */\n      0x025454cb5abc7aed86cf5ffdef96c47b56358ad2a554d64ec1218c8b41808fb3\n        /* \"Procure.sol\":2649:2678  deployedRegistrationContracts */\n      0x01\n        /* \"Procure.sol\":2649:2690  deployedRegistrationContracts[msg.sender] */\n      0x00\n        /* \"Procure.sol\":2679:2689  msg.sender */\n      caller\n        /* \"Procure.sol\":2649:2690  deployedRegistrationContracts[msg.sender] */\n      0xffffffffffffffffffffffffffffffffffffffff\n      and\n      0xffffffffffffffffffffffffffffffffffffffff\n      and\n      dup2\n      mstore\n      0x20\n      add\n      swap1\n      dup2\n      mstore\n      0x20\n      add\n      0x00\n      keccak256\n        /* \"Procure.sol\":2691:2692  2 */\n      0x02\n        /* \"Procure.sol\":2649:2693  deployedRegistrationContracts[msg.sender][2] */\n      0x05\n      dup2\n      lt\n      tag_65\n      jumpi\n      invalid\n    tag_65:\n      add\n      0x00\n      swap1\n      sload\n      swap1\n      0x0100\n      exp\n      swap1\n      div\n      0xffffffffffffffffffffffffffffffffffffffff\n      and\n        /* \"Procure.sol\":2627:2694  purchaseOrderDeployed(deployedRegistrationContracts[msg.sender][2]) */\n      mload(0x40)\n      dup1\n      dup3\n      0xffffffffffffffffffffffffffffffffffffffff\n      and\n      dup2\n      mstore\n      0x20\n      add\n      swap2\n      pop\n      pop\n      mload(0x40)\n      dup1\n      swap2\n      sub\n      swap1\n      log1\n        /* \"Procure.sol\":729:730  _ */\n      pop\n        /* \"Procure.sol\":2142:2702  function createPurchaseOrders() public onlyGPOs{\r... */\n      jump\t// out\n        /* \"Procure.sol\":1540:2130  function createPurchaseNegotiations() public onlyGPOs{\r... */\n    tag_16:\n        /* \"Procure.sol\":667:671  true */\n      0x01\n        /* \"Procure.sol\":639:671  registeredGPOs[msg.sender]==true */\n      iszero\n      iszero\n        /* \"Procure.sol\":639:653  registeredGPOs */\n      0x02\n        /* \"Procure.sol\":639:665  registeredGPOs[msg.sender] */\n      0x00\n        /* \"Procure.sol\":654:664  msg.sender */\n      caller\n        /* \"Procure.sol\":639:665  registeredGPOs[msg.sender] */\n      0xffffffffffffffffffffffffffffffffffffffff\n      and\n      0xffffffffffffffffffffffffffffffffffffffff\n      and\n      dup2\n      mstore\n      0x20\n      add\n      swap1\n      dup2\n      mstore\n      0x20\n      add\n      0x00\n      keccak256\n      0x00\n      swap1\n      sload\n      swap1\n      0x0100\n      exp\n      swap1\n      div\n      0xff\n      and\n        /* \"Procure.sol\":639:671  registeredGPOs[msg.sender]==true */\n      iszero\n      iszero\n      eq\n        /* \"Procure.sol\":631:720  require(registeredGPOs[msg.sender]==true,\r... */\n      tag_68\n      jumpi\n      mload(0x40)\n      0x08c379a000000000000000000000000000000000000000000000000000000000\n      dup2\n      mstore\n      0x04\n      add\n      dup1\n      dup1\n      0x20\n      add\n      dup3\n      dup2\n      sub\n      dup3\n      mstore\n      0x1d\n      dup2\n      mstore\n      0x20\n      add\n      dup1\n      0x53656e646572206e6f7420617574686f72697a65642061732047504f2e000000\n      dup2\n      mstore\n      pop\n      0x20\n      add\n      swap2\n      pop\n      pop\n      mload(0x40)\n      dup1\n      swap2\n      sub\n      swap1\n      revert\n    tag_68:\n        /* \"Procure.sol\":1666:1667  0 */\n      0x00\n        /* \"Procure.sol\":1612:1668  deployedRegistrationContracts[msg.sender][0]!=address(0) */\n      0xffffffffffffffffffffffffffffffffffffffff\n      and\n        /* \"Procure.sol\":1612:1641  deployedRegistrationContracts */\n      0x01\n        /* \"Procure.sol\":1612:1653  deployedRegistrationContracts[msg.sender] */\n      0x00\n        /* \"Procure.sol\":1642:1652  msg.sender */\n      caller\n        /* \"Procure.sol\":1612:1653  deployedRegistrationContracts[msg.sender] */\n      0xffffffffffffffffffffffffffffffffffffffff\n      and\n      0xffffffffffffffffffffffffffffffffffffffff\n      and\n      dup2\n      mstore\n      0x20\n      add\n      swap1\n      dup2\n      mstore\n      0x20\n      add\n      0x00\n      keccak256\n        /* \"Procure.sol\":1654:1655  0 */\n      0x00\n        /* \"Procure.sol\":1612:1656  deployedRegistrationContracts[msg.sender][0] */\n      0x05\n      dup2\n      lt\n      tag_70\n      jumpi\n      invalid\n    tag_70:\n      add\n      0x00\n      swap1\n      sload\n      swap1\n      0x0100\n      exp\n      swap1\n      div\n      0xffffffffffffffffffffffffffffffffffffffff\n      and\n        /* \"Procure.sol\":1612:1668  deployedRegistrationContracts[msg.sender][0]!=address(0) */\n      0xffffffffffffffffffffffffffffffffffffffff\n      and\n      eq\n      iszero\n        /* \"Procure.sol\":1604:1701  require(deployedRegistrationContracts[msg.sender][0]!=address(0),\"Registration not deployed yet\") */\n      tag_72\n      jumpi\n      mload(0x40)\n      0x08c379a000000000000000000000000000000000000000000000000000000000\n      dup2\n      mstore\n      0x04\n      add\n      dup1\n      dup1\n      0x20\n      add\n      dup3\n      dup2\n      sub\n      dup3\n      mstore\n      0x1d\n      dup2\n      mstore\n      0x20\n      add\n      dup1\n      0x526567697374726174696f6e206e6f74206465706c6f79656420796574000000\n      dup2\n      mstore\n      pop\n      0x20\n      add\n      swap2\n      pop\n      pop\n      mload(0x40)\n      dup1\n      swap2\n      sub\n      swap1\n      revert\n    tag_72:\n        /* \"Procure.sol\":1774:1775  0 */\n      0x00\n        /* \"Procure.sol\":1720:1776  deployedRegistrationContracts[msg.sender][1]==address(0) */\n      0xffffffffffffffffffffffffffffffffffffffff\n      and\n        /* \"Procure.sol\":1720:1749  deployedRegistrationContracts */\n      0x01\n        /* \"Procure.sol\":1720:1761  deployedRegistrationContracts[msg.sender] */\n      0x00\n        /* \"Procure.sol\":1750:1760  msg.sender */\n      caller\n        /* \"Procure.sol\":1720:1761  deployedRegistrationContracts[msg.sender] */\n      0xffffffffffffffffffffffffffffffffffffffff\n      and\n      0xffffffffffffffffffffffffffffffffffffffff\n      and\n      dup2\n      mstore\n      0x20\n      add\n      swap1\n      dup2\n      mstore\n      0x20\n      add\n      0x00\n      keccak256\n        /* \"Procure.sol\":1762:1763  1 */\n      0x01\n        /* \"Procure.sol\":1720:1764  deployedRegistrationContracts[msg.sender][1] */\n      0x05\n      dup2\n      lt\n      tag_73\n      jumpi\n      invalid\n    tag_73:\n      add\n      0x00\n      swap1\n      sload\n      swap1\n      0x0100\n      exp\n      swap1\n      div\n      0xffffffffffffffffffffffffffffffffffffffff\n      and\n        /* \"Procure.sol\":1720:1776  deployedRegistrationContracts[msg.sender][1]==address(0) */\n      0xffffffffffffffffffffffffffffffffffffffff\n      and\n      eq\n        /* \"Procure.sol\":1712:1817  require(deployedRegistrationContracts[msg.sender][1]==address(0),\"Purchase negotiation already deployed\") */\n      tag_75\n      jumpi\n      mload(0x40)\n      0x08c379a000000000000000000000000000000000000000000000000000000000\n      dup2\n      mstore\n      0x04\n      add\n      dup1\n      dup1\n      0x20\n      add\n      dup3\n      dup2\n      sub\n      dup3\n      mstore\n      0x25\n      dup2\n      mstore\n      0x20\n      add\n      dup1\n      data_4bc1fc072269289f3df19d4969510f7f68acc5f0732e9b6fb311f9bddf344235\n      0x25\n      swap2\n      codecopy\n      0x40\n      add\n      swap2\n      pop\n      pop\n      mload(0x40)\n      dup1\n      swap2\n      sub\n      swap1\n      revert\n    tag_75:\n        /* \"Procure.sol\":1830:1872  PurchaseNegotiation newPurchaseNegotiation */\n      0x00\n        /* \"Procure.sol\":1899:1928  deployedRegistrationContracts */\n      0x01\n        /* \"Procure.sol\":1899:1940  deployedRegistrationContracts[msg.sender] */\n      0x00\n        /* \"Procure.sol\":1929:1939  msg.sender */\n      caller\n        /* \"Procure.sol\":1899:1940  deployedRegistrationContracts[msg.sender] */\n      0xffffffffffffffffffffffffffffffffffffffff\n      and\n      0xffffffffffffffffffffffffffffffffffffffff\n      and\n      dup2\n      mstore\n      0x20\n      add\n      swap1\n      dup2\n      mstore\n      0x20\n      add\n      0x00\n      keccak256\n        /* \"Procure.sol\":1941:1942  0 */\n      0x00\n        /* \"Procure.sol\":1899:1943  deployedRegistrationContracts[msg.sender][0] */\n      0x05\n      dup2\n      lt\n      tag_76\n      jumpi\n      invalid\n    tag_76:\n      add\n      0x00\n      swap1\n      sload\n      swap1\n      0x0100\n      exp\n      swap1\n      div\n      0xffffffffffffffffffffffffffffffffffffffff\n      and\n        /* \"Procure.sol\":1875:1944  new PurchaseNegotiation(deployedRegistrationContracts[msg.sender][0]) */\n      mload(0x40)\n      tag_78\n      swap1\n      tag_79\n      jump\t// in\n    tag_78:\n      dup1\n      dup3\n      0xffffffffffffffffffffffffffffffffffffffff\n      and\n      dup2\n      mstore\n      0x20\n      add\n      swap2\n      pop\n      pop\n      mload(0x40)\n      dup1\n      swap2\n      sub\n      swap1\n      0x00\n      create\n      dup1\n      iszero\n      dup1\n      iszero\n      tag_80\n      jumpi\n      returndatasize\n      0x00\n      dup1\n      returndatacopy\n      revert(0x00, returndatasize)\n    tag_80:\n      pop\n        /* \"Procure.sol\":1830:1944  PurchaseNegotiation newPurchaseNegotiation = new PurchaseNegotiation(deployedRegistrationContracts[msg.sender][0]) */\n      swap1\n      pop\n        /* \"Procure.sol\":2008:2030  newPurchaseNegotiation */\n      dup1\n        /* \"Procure.sol\":1955:1984  deployedRegistrationContracts */\n      0x01\n        /* \"Procure.sol\":1955:1996  deployedRegistrationContracts[msg.sender] */\n      0x00\n        /* \"Procure.sol\":1985:1995  msg.sender */\n      caller\n        /* \"Procure.sol\":1955:1996  deployedRegistrationContracts[msg.sender] */\n      0xffffffffffffffffffffffffffffffffffffffff\n      and\n      0xffffffffffffffffffffffffffffffffffffffff\n      and\n      dup2\n      mstore\n      0x20\n      add\n      swap1\n      dup2\n      mstore\n      0x20\n      add\n      0x00\n      keccak256\n        /* \"Procure.sol\":1997:1998  1 */\n      0x01\n        /* \"Procure.sol\":1955:1999  deployedRegistrationContracts[msg.sender][1] */\n      0x05\n      dup2\n      lt\n      tag_81\n      jumpi\n      invalid\n    tag_81:\n      add\n      0x00\n        /* \"Procure.sol\":1955:2031  deployedRegistrationContracts[msg.sender][1]=address(newPurchaseNegotiation) */\n      0x0100\n      exp\n      dup2\n      sload\n      dup2\n      0xffffffffffffffffffffffffffffffffffffffff\n      mul\n      not\n      and\n      swap1\n      dup4\n      0xffffffffffffffffffffffffffffffffffffffff\n      and\n      mul\n      or\n      swap1\n      sstore\n      pop\n        /* \"Procure.sol\":2049:2122  purchaseNegotiationDeployed(deployedRegistrationContracts[msg.sender][1]) */\n      0xe35e6e883f7c106483dd4dd186225f83a4dc00fe7b56dc82f726ad8d686237ae\n        /* \"Procure.sol\":2077:2106  deployedRegistrationContracts */\n      0x01\n        /* \"Procure.sol\":2077:2118  deployedRegistrationContracts[msg.sender] */\n      0x00\n        /* \"Procure.sol\":2107:2117  msg.sender */\n      caller\n        /* \"Procure.sol\":2077:2118  deployedRegistrationContracts[msg.sender] */\n      0xffffffffffffffffffffffffffffffffffffffff\n      and\n      0xffffffffffffffffffffffffffffffffffffffff\n      and\n      dup2\n      mstore\n      0x20\n      add\n      swap1\n      dup2\n      mstore\n      0x20\n      add\n      0x00\n      keccak256\n        /* \"Procure.sol\":2119:2120  1 */\n      0x01\n        /* \"Procure.sol\":2077:2121  deployedRegistrationContracts[msg.sender][1] */\n      0x05\n      dup2\n      lt\n      tag_83\n      jumpi\n      invalid\n    tag_83:\n      add\n      0x00\n      swap1\n      sload\n      swap1\n      0x0100\n      exp\n      swap1\n      div\n      0xffffffffffffffffffffffffffffffffffffffff\n      and\n        /* \"Procure.sol\":2049:2122  purchaseNegotiationDeployed(deployedRegistrationContracts[msg.sender][1]) */\n      mload(0x40)\n      dup1\n      dup3\n      0xffffffffffffffffffffffffffffffffffffffff\n      and\n      dup2\n      mstore\n      0x20\n      add\n      swap2\n      pop\n      pop\n      mload(0x40)\n      dup1\n      swap2\n      sub\n      swap1\n      log1\n        /* \"Procure.sol\":729:730  _ */\n      pop\n        /* \"Procure.sol\":1540:2130  function createPurchaseNegotiations() public onlyGPOs{\r... */\n      jump\t// out\n        /* \"Procure.sol\":3293:3843  function createLoyaltyRebates() public onlyGPOs{\r... */\n    tag_18:\n        /* \"Procure.sol\":667:671  true */\n      0x01\n        /* \"Procure.sol\":639:671  registeredGPOs[msg.sender]==true */\n      iszero\n      iszero\n        /* \"Procure.sol\":639:653  registeredGPOs */\n      0x02\n        /* \"Procure.sol\":639:665  registeredGPOs[msg.sender] */\n      0x00\n        /* \"Procure.sol\":654:664  msg.sender */\n      caller\n        /* \"Procure.sol\":639:665  registeredGPOs[msg.sender] */\n      0xffffffffffffffffffffffffffffffffffffffff\n      and\n      0xffffffffffffffffffffffffffffffffffffffff\n      and\n      dup2\n      mstore\n      0x20\n      add\n      swap1\n      dup2\n      mstore\n      0x20\n      add\n      0x00\n      keccak256\n      0x00\n      swap1\n      sload\n      swap1\n      0x0100\n      exp\n      swap1\n      div\n      0xff\n      and\n        /* \"Procure.sol\":639:671  registeredGPOs[msg.sender]==true */\n      iszero\n      iszero\n      eq\n        /* \"Procure.sol\":631:720  require(registeredGPOs[msg.sender]==true,\r... */\n      tag_86\n      jumpi\n      mload(0x40)\n      0x08c379a000000000000000000000000000000000000000000000000000000000\n      dup2\n      mstore\n      0x04\n      add\n      dup1\n      dup1\n      0x20\n      add\n      dup3\n      dup2\n      sub\n      dup3\n      mstore\n      0x1d\n      dup2\n      mstore\n      0x20\n      add\n      dup1\n      0x53656e646572206e6f7420617574686f72697a65642061732047504f2e000000\n      dup2\n      mstore\n      pop\n      0x20\n      add\n      swap2\n      pop\n      pop\n      mload(0x40)\n      dup1\n      swap2\n      sub\n      swap1\n      revert\n    tag_86:\n        /* \"Procure.sol\":3413:3414  0 */\n      0x00\n        /* \"Procure.sol\":3359:3415  deployedRegistrationContracts[msg.sender][3]!=address(0) */\n      0xffffffffffffffffffffffffffffffffffffffff\n      and\n        /* \"Procure.sol\":3359:3388  deployedRegistrationContracts */\n      0x01\n        /* \"Procure.sol\":3359:3400  deployedRegistrationContracts[msg.sender] */\n      0x00\n        /* \"Procure.sol\":3389:3399  msg.sender */\n      caller\n        /* \"Procure.sol\":3359:3400  deployedRegistrationContracts[msg.sender] */\n      0xffffffffffffffffffffffffffffffffffffffff\n      and\n      0xffffffffffffffffffffffffffffffffffffffff\n      and\n      dup2\n      mstore\n      0x20\n      add\n      swap1\n      dup2\n      mstore\n      0x20\n      add\n      0x00\n      keccak256\n        /* \"Procure.sol\":3401:3402  3 */\n      0x03\n        /* \"Procure.sol\":3359:3403  deployedRegistrationContracts[msg.sender][3] */\n      0x05\n      dup2\n      lt\n      tag_88\n      jumpi\n      invalid\n    tag_88:\n      add\n      0x00\n      swap1\n      sload\n      swap1\n      0x0100\n      exp\n      swap1\n      div\n      0xffffffffffffffffffffffffffffffffffffffff\n      and\n        /* \"Procure.sol\":3359:3415  deployedRegistrationContracts[msg.sender][3]!=address(0) */\n      0xffffffffffffffffffffffffffffffffffffffff\n      and\n      eq\n      iszero\n        /* \"Procure.sol\":3351:3453  require(deployedRegistrationContracts[msg.sender][3]!=address(0),\"Rebate settlement not deployed yet\") */\n      tag_90\n      jumpi\n      mload(0x40)\n      0x08c379a000000000000000000000000000000000000000000000000000000000\n      dup2\n      mstore\n      0x04\n      add\n      dup1\n      dup1\n      0x20\n      add\n      dup3\n      dup2\n      sub\n      dup3\n      mstore\n      0x22\n      dup2\n      mstore\n      0x20\n      add\n      dup1\n      data_55a1b757f7be8e48718732c69b136b2fa98e4363693bbe5f1521e85d1e4843ac\n      0x22\n      swap2\n      codecopy\n      0x40\n      add\n      swap2\n      pop\n      pop\n      mload(0x40)\n      dup1\n      swap2\n      sub\n      swap1\n      revert\n    tag_90:\n        /* \"Procure.sol\":3526:3527  0 */\n      0x00\n        /* \"Procure.sol\":3472:3528  deployedRegistrationContracts[msg.sender][4]==address(0) */\n      0xffffffffffffffffffffffffffffffffffffffff\n      and\n        /* \"Procure.sol\":3472:3501  deployedRegistrationContracts */\n      0x01\n        /* \"Procure.sol\":3472:3513  deployedRegistrationContracts[msg.sender] */\n      0x00\n        /* \"Procure.sol\":3502:3512  msg.sender */\n      caller\n        /* \"Procure.sol\":3472:3513  deployedRegistrationContracts[msg.sender] */\n      0xffffffffffffffffffffffffffffffffffffffff\n      and\n      0xffffffffffffffffffffffffffffffffffffffff\n      and\n      dup2\n      mstore\n      0x20\n      add\n      swap1\n      dup2\n      mstore\n      0x20\n      add\n      0x00\n      keccak256\n        /* \"Procure.sol\":3514:3515  4 */\n      0x04\n        /* \"Procure.sol\":3472:3516  deployedRegistrationContracts[msg.sender][4] */\n      0x05\n      dup2\n      lt\n      tag_91\n      jumpi\n      invalid\n    tag_91:\n      add\n      0x00\n      swap1\n      sload\n      swap1\n      0x0100\n      exp\n      swap1\n      div\n      0xffffffffffffffffffffffffffffffffffffffff\n      and\n        /* \"Procure.sol\":3472:3528  deployedRegistrationContracts[msg.sender][4]==address(0) */\n      0xffffffffffffffffffffffffffffffffffffffff\n      and\n      eq\n        /* \"Procure.sol\":3464:3556  require(deployedRegistrationContracts[msg.sender][4]==address(0),\"Loyalty already deployed\") */\n      tag_93\n      jumpi\n      mload(0x40)\n      0x08c379a000000000000000000000000000000000000000000000000000000000\n      dup2\n      mstore\n      0x04\n      add\n      dup1\n      dup1\n      0x20\n      add\n      dup3\n      dup2\n      sub\n      dup3\n      mstore\n      0x18\n      dup2\n      mstore\n      0x20\n      add\n      dup1\n      0x4c6f79616c747920616c7265616479206465706c6f7965640000000000000000\n      dup2\n      mstore\n      pop\n      0x20\n      add\n      swap2\n      pop\n      pop\n      mload(0x40)\n      dup1\n      swap2\n      sub\n      swap1\n      revert\n    tag_93:\n        /* \"Procure.sol\":3569:3601  LoyaltyRebates newLoyaltyRebates */\n      0x00\n        /* \"Procure.sol\":3623:3652  deployedRegistrationContracts */\n      0x01\n        /* \"Procure.sol\":3623:3664  deployedRegistrationContracts[msg.sender] */\n      0x00\n        /* \"Procure.sol\":3653:3663  msg.sender */\n      caller\n        /* \"Procure.sol\":3623:3664  deployedRegistrationContracts[msg.sender] */\n      0xffffffffffffffffffffffffffffffffffffffff\n      and\n      0xffffffffffffffffffffffffffffffffffffffff\n      and\n      dup2\n      mstore\n      0x20\n      add\n      swap1\n      dup2\n      mstore\n      0x20\n      add\n      0x00\n      keccak256\n        /* \"Procure.sol\":3665:3666  0 */\n      0x00\n        /* \"Procure.sol\":3623:3667  deployedRegistrationContracts[msg.sender][0] */\n      0x05\n      dup2\n      lt\n      tag_94\n      jumpi\n      invalid\n    tag_94:\n      add\n      0x00\n      swap1\n      sload\n      swap1\n      0x0100\n      exp\n      swap1\n      div\n      0xffffffffffffffffffffffffffffffffffffffff\n      and\n        /* \"Procure.sol\":3604:3668  new LoyaltyRebates(deployedRegistrationContracts[msg.sender][0]) */\n      mload(0x40)\n      tag_96\n      swap1\n      tag_97\n      jump\t// in\n    tag_96:\n      dup1\n      dup3\n      0xffffffffffffffffffffffffffffffffffffffff\n      and\n      dup2\n      mstore\n      0x20\n      add\n      swap2\n      pop\n      pop\n      mload(0x40)\n      dup1\n      swap2\n      sub\n      swap1\n      0x00\n      create\n      dup1\n      iszero\n      dup1\n      iszero\n      tag_98\n      jumpi\n      returndatasize\n      0x00\n      dup1\n      returndatacopy\n      revert(0x00, returndatasize)\n    tag_98:\n      pop\n        /* \"Procure.sol\":3569:3668  LoyaltyRebates newLoyaltyRebates = new LoyaltyRebates(deployedRegistrationContracts[msg.sender][0]) */\n      swap1\n      pop\n        /* \"Procure.sol\":3732:3749  newLoyaltyRebates */\n      dup1\n        /* \"Procure.sol\":3679:3708  deployedRegistrationContracts */\n      0x01\n        /* \"Procure.sol\":3679:3720  deployedRegistrationContracts[msg.sender] */\n      0x00\n        /* \"Procure.sol\":3709:3719  msg.sender */\n      caller\n        /* \"Procure.sol\":3679:3720  deployedRegistrationContracts[msg.sender] */\n      0xffffffffffffffffffffffffffffffffffffffff\n      and\n      0xffffffffffffffffffffffffffffffffffffffff\n      and\n      dup2\n      mstore\n      0x20\n      add\n      swap1\n      dup2\n      mstore\n      0x20\n      add\n      0x00\n      keccak256\n        /* \"Procure.sol\":3721:3722  4 */\n      0x04\n        /* \"Procure.sol\":3679:3723  deployedRegistrationContracts[msg.sender][4] */\n      0x05\n      dup2\n      lt\n      tag_99\n      jumpi\n      invalid\n    tag_99:\n      add\n      0x00\n        /* \"Procure.sol\":3679:3750  deployedRegistrationContracts[msg.sender][4]=address(newLoyaltyRebates) */\n      0x0100\n      exp\n      dup2\n      sload\n      dup2\n      0xffffffffffffffffffffffffffffffffffffffff\n      mul\n      not\n      and\n      swap1\n      dup4\n      0xffffffffffffffffffffffffffffffffffffffff\n      and\n      mul\n      or\n      swap1\n      sstore\n      pop\n        /* \"Procure.sol\":3768:3835  loyaltyRebateDeployed(deployedRegistrationContracts[msg.sender][4]) */\n      0x2df6c62a3b6118b70c28b56566b9805dd99e413bd3d26be7aac5db7c19761a53\n        /* \"Procure.sol\":3790:3819  deployedRegistrationContracts */\n      0x01\n        /* \"Procure.sol\":3790:3831  deployedRegistrationContracts[msg.sender] */\n      0x00\n        /* \"Procure.sol\":3820:3830  msg.sender */\n      caller\n        /* \"Procure.sol\":3790:3831  deployedRegistrationContracts[msg.sender] */\n      0xffffffffffffffffffffffffffffffffffffffff\n      and\n      0xffffffffffffffffffffffffffffffffffffffff\n      and\n      dup2\n      mstore\n      0x20\n      add\n      swap1\n      dup2\n      mstore\n      0x20\n      add\n      0x00\n      keccak256\n        /* \"Procure.sol\":3832:3833  4 */\n      0x04\n        /* \"Procure.sol\":3790:3834  deployedRegistrationContracts[msg.sender][4] */\n      0x05\n      dup2\n      lt\n      tag_101\n      jumpi\n      invalid\n    tag_101:\n      add\n      0x00\n      swap1\n      sload\n      swap1\n      0x0100\n      exp\n      swap1\n      div\n      0xffffffffffffffffffffffffffffffffffffffff\n      and\n        /* \"Procure.sol\":3768:3835  loyaltyRebateDeployed(deployedRegistrationContracts[msg.sender][4]) */\n      mload(0x40)\n      dup1\n      dup3\n      0xffffffffffffffffffffffffffffffffffffffff\n      and\n      dup2\n      mstore\n      0x20\n      add\n      swap2\n      pop\n      pop\n      mload(0x40)\n      dup1\n      swap2\n      sub\n      swap1\n      log1\n        /* \"Procure.sol\":729:730  _ */\n      pop\n        /* \"Procure.sol\":3293:3843  function createLoyaltyRebates() public onlyGPOs{\r... */\n      jump\t// out\n        /* \"Procure.sol\":254:319  mapping(address=>address[5]) public deployedRegistrationContracts */\n    tag_21:\n      mstore(0x20, 0x01)\n      dup2\n      0x00\n      mstore\n      keccak256(0x00, 0x40)\n      dup2\n      0x05\n      dup2\n      lt\n      tag_103\n      jumpi\n      invalid\n    tag_103:\n      add\n      0x00\n      swap2\n      pop\n      swap2\n      pop\n      swap1\n      sload\n      swap1\n      0x0100\n      exp\n      swap1\n      div\n      0xffffffffffffffffffffffffffffffffffffffff\n      and\n      dup2\n      jump\t// out\n    tag_34:\n      dataSize(sub_0)\n      dup1\n      dataOffset(sub_0)\n      dup4\n      codecopy\n      add\n      swap1\n      jump\t// out\n    tag_43:\n      dataSize(sub_1)\n      dup1\n      dataOffset(sub_1)\n      dup4\n      codecopy\n      add\n      swap1\n      jump\t// out\n    tag_61:\n      dataSize(sub_2)\n      dup1\n      dataOffset(sub_2)\n      dup4\n      codecopy\n      add\n      swap1\n      jump\t// out\n    tag_79:\n      dataSize(sub_3)\n      dup1\n      dataOffset(sub_3)\n      dup4\n      codecopy\n      add\n      swap1\n      jump\t// out\n    tag_97:\n      dataSize(sub_4)\n      dup1\n      dataOffset(sub_4)\n      dup4\n      codecopy\n      add\n      swap1\n      jump\t// out\n    stop\n    data_4bc1fc072269289f3df19d4969510f7f68acc5f0732e9b6fb311f9bddf344235 5075726368617365206e65676f74696174696f6e20616c7265616479206465706c6f796564\n    data_55a1b757f7be8e48718732c69b136b2fa98e4363693bbe5f1521e85d1e4843ac 52656261746520736574746c656d656e74206e6f74206465706c6f79656420796574\n    data_72896a8f08dd857dd1a7e7c4b4408c976c57091b7083d7bc27dfb182112efc6e 5075726368617365206e65676f74696174696f6e206e6f74206465706c6f79656420796574\n    data_9ad25acc091ed04a2bf85e97e3569cca03ad803b1d267727951d84d366639153 52656261746520736574746c656d656e7420616c7265616479206465706c6f796564\n\n    sub_0: assembly {\n            /* \"Procure.sol\":12567:14322  contract RebatesSettelment{         // contract for giving bonuses\r... */\n          mstore(0x40, 0x80)\n            /* \"Procure.sol\":13238:13368  constructor(address registrationAddress)public {\r... */\n          callvalue\n          dup1\n          iszero\n          tag_1\n          jumpi\n          0x00\n          dup1\n          revert\n        tag_1:\n          pop\n          mload(0x40)\n          sub(codesize, bytecodeSize)\n          dup1\n          bytecodeSize\n          dup4\n          codecopy\n          dup2\n          dup2\n          add\n          0x40\n          mstore\n          0x20\n          dup2\n          lt\n          iszero\n          tag_2\n          jumpi\n          0x00\n          dup1\n          revert\n        tag_2:\n          dup2\n          add\n          swap1\n          dup1\n          dup1\n          mload\n          swap1\n          0x20\n          add\n          swap1\n          swap3\n          swap2\n          swap1\n          pop\n          pop\n          pop\n            /* \"Procure.sol\":13330:13349  registrationAddress */\n          dup1\n            /* \"Procure.sol\":13296:13316  registrationContract */\n          0x00\n          dup1\n            /* \"Procure.sol\":13296:13350  registrationContract=Registration(registrationAddress) */\n          0x0100\n          exp\n          dup2\n          sload\n          dup2\n          0xffffffffffffffffffffffffffffffffffffffff\n          mul\n          not\n          and\n          swap1\n          dup4\n          0xffffffffffffffffffffffffffffffffffffffff\n          and\n          mul\n          or\n          swap1\n          sstore\n          pop\n            /* \"Procure.sol\":13238:13368  constructor(address registrationAddress)public {\r... */\n          pop\n            /* \"Procure.sol\":12567:14322  contract RebatesSettelment{         // contract for giving bonuses\r... */\n          dataSize(sub_0)\n          dup1\n          dataOffset(sub_0)\n          0x00\n          codecopy\n          0x00\n          return\n        stop\n\n        sub_0: assembly {\n                /* \"Procure.sol\":12567:14322  contract RebatesSettelment{         // contract for giving bonuses\r... */\n              mstore(0x40, 0x80)\n              jumpi(tag_1, lt(calldatasize, 0x04))\n              shr(0xe0, calldataload(0x00))\n              dup1\n              0x1fb8a38f\n              eq\n              tag_2\n              jumpi\n              dup1\n              0xf008b98b\n              eq\n              tag_3\n              jumpi\n            tag_1:\n              0x00\n              dup1\n              revert\n                /* \"Procure.sol\":13386:13763  function submitRebateRequest(uint contractAddress, uint amount, address manufacturer) public onlyDistributor{\r... */\n            tag_2:\n              callvalue\n              dup1\n              iszero\n              tag_4\n              jumpi\n              0x00\n              dup1\n              revert\n            tag_4:\n              pop\n              tag_5\n              0x04\n              dup1\n              calldatasize\n              sub\n              0x60\n              dup2\n              lt\n              iszero\n              tag_6\n              jumpi\n              0x00\n              dup1\n              revert\n            tag_6:\n              dup2\n              add\n              swap1\n              dup1\n              dup1\n              calldataload\n              swap1\n              0x20\n              add\n              swap1\n              swap3\n              swap2\n              swap1\n              dup1\n              calldataload\n              swap1\n              0x20\n              add\n              swap1\n              swap3\n              swap2\n              swap1\n              dup1\n              calldataload\n              0xffffffffffffffffffffffffffffffffffffffff\n              and\n              swap1\n              0x20\n              add\n              swap1\n              swap3\n              swap2\n              swap1\n              pop\n              pop\n              pop\n              tag_7\n              jump\t// in\n            tag_5:\n              stop\n                /* \"Procure.sol\":13781:14319  function approveRebateRequest(uint contractAddress, address payable distributor) public payable onlyManufacturer{\r... */\n            tag_3:\n              tag_8\n              0x04\n              dup1\n              calldatasize\n              sub\n              0x40\n              dup2\n              lt\n              iszero\n              tag_9\n              jumpi\n              0x00\n              dup1\n              revert\n            tag_9:\n              dup2\n              add\n              swap1\n              dup1\n              dup1\n              calldataload\n              swap1\n              0x20\n              add\n              swap1\n              swap3\n              swap2\n              swap1\n              dup1\n              calldataload\n              0xffffffffffffffffffffffffffffffffffffffff\n              and\n              swap1\n              0x20\n              add\n              swap1\n              swap3\n              swap2\n              swap1\n              pop\n              pop\n              pop\n              tag_10\n              jump\t// in\n            tag_8:\n              stop\n                /* \"Procure.sol\":13386:13763  function submitRebateRequest(uint contractAddress, uint amount, address manufacturer) public onlyDistributor{\r... */\n            tag_7:\n                /* \"Procure.sol\":12773:12793  registrationContract */\n              0x00\n              dup1\n              sload\n              swap1\n              0x0100\n              exp\n              swap1\n              div\n              0xffffffffffffffffffffffffffffffffffffffff\n              and\n                /* \"Procure.sol\":12773:12811  registrationContract.distributorExists */\n              0xffffffffffffffffffffffffffffffffffffffff\n              and\n              0x79ea51d4\n                /* \"Procure.sol\":12812:12822  msg.sender */\n              caller\n                /* \"Procure.sol\":12773:12823  registrationContract.distributorExists(msg.sender) */\n              mload(0x40)\n              dup3\n              0xffffffff\n              and\n              0xe0\n              shl\n              dup2\n              mstore\n              0x04\n              add\n              dup1\n              dup3\n              0xffffffffffffffffffffffffffffffffffffffff\n              and\n              dup2\n              mstore\n              0x20\n              add\n              swap2\n              pop\n              pop\n              0x20\n              mload(0x40)\n              dup1\n              dup4\n              sub\n              dup2\n              dup7\n              dup1\n              extcodesize\n              iszero\n              dup1\n              iszero\n              tag_12\n              jumpi\n              0x00\n              dup1\n              revert\n            tag_12:\n              pop\n              gas\n              staticcall\n              iszero\n              dup1\n              iszero\n              tag_14\n              jumpi\n              returndatasize\n              0x00\n              dup1\n              returndatacopy\n              revert(0x00, returndatasize)\n            tag_14:\n              pop\n              pop\n              pop\n              pop\n              mload(0x40)\n              returndatasize\n              0x20\n              dup2\n              lt\n              iszero\n              tag_15\n              jumpi\n              0x00\n              dup1\n              revert\n            tag_15:\n              dup2\n              add\n              swap1\n              dup1\n              dup1\n              mload\n              swap1\n              0x20\n              add\n              swap1\n              swap3\n              swap2\n              swap1\n              pop\n              pop\n              pop\n                /* \"Procure.sol\":12765:12865  require(registrationContract.distributorExists(msg.sender),\r... */\n              tag_16\n              jumpi\n              mload(0x40)\n              0x08c379a000000000000000000000000000000000000000000000000000000000\n              dup2\n              mstore\n              0x04\n              add\n              dup1\n              dup1\n              0x20\n              add\n              dup3\n              dup2\n              sub\n              dup3\n              mstore\n              0x16\n              dup2\n              mstore\n              0x20\n              add\n              dup1\n              0x53656e646572206e6f7420617574686f72697a65642e00000000000000000000\n              dup2\n              mstore\n              pop\n              0x20\n              add\n              swap2\n              pop\n              pop\n              mload(0x40)\n              dup1\n              swap2\n              sub\n              swap1\n              revert\n            tag_16:\n                /* \"Procure.sol\":13513:13533  registrationContract */\n              0x00\n              dup1\n              sload\n              swap1\n              0x0100\n              exp\n              swap1\n              div\n              0xffffffffffffffffffffffffffffffffffffffff\n              and\n                /* \"Procure.sol\":13513:13552  registrationContract.manufacturerExists */\n              0xffffffffffffffffffffffffffffffffffffffff\n              and\n              0xe0acb7a3\n                /* \"Procure.sol\":13553:13565  manufacturer */\n              dup3\n                /* \"Procure.sol\":13513:13566  registrationContract.manufacturerExists(manufacturer) */\n              mload(0x40)\n              dup3\n              0xffffffff\n              and\n              0xe0\n              shl\n              dup2\n              mstore\n              0x04\n              add\n              dup1\n              dup3\n              0xffffffffffffffffffffffffffffffffffffffff\n              and\n              dup2\n              mstore\n              0x20\n              add\n              swap2\n              pop\n              pop\n              0x20\n              mload(0x40)\n              dup1\n              dup4\n              sub\n              dup2\n              dup7\n              dup1\n              extcodesize\n              iszero\n              dup1\n              iszero\n              tag_18\n              jumpi\n              0x00\n              dup1\n              revert\n            tag_18:\n              pop\n              gas\n              staticcall\n              iszero\n              dup1\n              iszero\n              tag_20\n              jumpi\n              returndatasize\n              0x00\n              dup1\n              returndatacopy\n              revert(0x00, returndatasize)\n            tag_20:\n              pop\n              pop\n              pop\n              pop\n              mload(0x40)\n              returndatasize\n              0x20\n              dup2\n              lt\n              iszero\n              tag_21\n              jumpi\n              0x00\n              dup1\n              revert\n            tag_21:\n              dup2\n              add\n              swap1\n              dup1\n              dup1\n              mload\n              swap1\n              0x20\n              add\n              swap1\n              swap3\n              swap2\n              swap1\n              pop\n              pop\n              pop\n                /* \"Procure.sol\":13505:13626  require(registrationContract.manufacturerExists(manufacturer),\r... */\n              tag_22\n              jumpi\n              mload(0x40)\n              0x08c379a000000000000000000000000000000000000000000000000000000000\n              dup2\n              mstore\n              0x04\n              add\n              dup1\n              dup1\n              0x20\n              add\n              dup3\n              dup2\n              sub\n              dup3\n              mstore\n              0x24\n              dup2\n              mstore\n              0x20\n              add\n              dup1\n              data_14bc9802c67112fdedf1b658451c55d4fc7ad09d1e8c09a2945b4de3c112241f\n              0x24\n              swap2\n              codecopy\n              0x40\n              add\n              swap2\n              pop\n              pop\n              mload(0x40)\n              dup1\n              swap2\n              sub\n              swap1\n              revert\n            tag_22:\n                /* \"Procure.sol\":13669:13675  amount */\n              dup2\n                /* \"Procure.sol\":13637:13651  rebateRequests */\n              0x01\n                /* \"Procure.sol\":13637:13668  rebateRequests[contractAddress] */\n              0x00\n                /* \"Procure.sol\":13652:13667  contractAddress */\n              dup6\n                /* \"Procure.sol\":13637:13668  rebateRequests[contractAddress] */\n              dup2\n              mstore\n              0x20\n              add\n              swap1\n              dup2\n              mstore\n              0x20\n              add\n              0x00\n              keccak256\n                /* \"Procure.sol\":13637:13675  rebateRequests[contractAddress]=amount */\n              dup2\n              swap1\n              sstore\n              pop\n                /* \"Procure.sol\":13691:13755  RequestSubmitted(contractAddress,msg.sender,manufacturer,amount) */\n              0x6b8b5414e3da4d8a3345869ba629fe05d1d64b5a7b75269a010b6e260aa92a13\n                /* \"Procure.sol\":13708:13723  contractAddress */\n              dup4\n                /* \"Procure.sol\":13724:13734  msg.sender */\n              caller\n                /* \"Procure.sol\":13735:13747  manufacturer */\n              dup4\n                /* \"Procure.sol\":13748:13754  amount */\n              dup6\n                /* \"Procure.sol\":13691:13755  RequestSubmitted(contractAddress,msg.sender,manufacturer,amount) */\n              mload(0x40)\n              dup1\n              dup6\n              dup2\n              mstore\n              0x20\n              add\n              dup5\n              0xffffffffffffffffffffffffffffffffffffffff\n              and\n              dup2\n              mstore\n              0x20\n              add\n              dup4\n              0xffffffffffffffffffffffffffffffffffffffff\n              and\n              dup2\n              mstore\n              0x20\n              add\n              dup3\n              dup2\n              mstore\n              0x20\n              add\n              swap5\n              pop\n              pop\n              pop\n              pop\n              pop\n              mload(0x40)\n              dup1\n              swap2\n              sub\n              swap1\n              log1\n                /* \"Procure.sol\":13386:13763  function submitRebateRequest(uint contractAddress, uint amount, address manufacturer) public onlyDistributor{\r... */\n              pop\n              pop\n              pop\n              jump\t// out\n                /* \"Procure.sol\":13781:14319  function approveRebateRequest(uint contractAddress, address payable distributor) public payable onlyManufacturer{\r... */\n            tag_10:\n                /* \"Procure.sol\":12940:12960  registrationContract */\n              0x00\n              dup1\n              sload\n              swap1\n              0x0100\n              exp\n              swap1\n              div\n              0xffffffffffffffffffffffffffffffffffffffff\n              and\n                /* \"Procure.sol\":12940:12979  registrationContract.manufacturerExists */\n              0xffffffffffffffffffffffffffffffffffffffff\n              and\n              0xe0acb7a3\n                /* \"Procure.sol\":12980:12990  msg.sender */\n              caller\n                /* \"Procure.sol\":12940:12991  registrationContract.manufacturerExists(msg.sender) */\n              mload(0x40)\n              dup3\n              0xffffffff\n              and\n              0xe0\n              shl\n              dup2\n              mstore\n              0x04\n              add\n              dup1\n              dup3\n              0xffffffffffffffffffffffffffffffffffffffff\n              and\n              dup2\n              mstore\n              0x20\n              add\n              swap2\n              pop\n              pop\n              0x20\n              mload(0x40)\n              dup1\n              dup4\n              sub\n              dup2\n              dup7\n              dup1\n              extcodesize\n              iszero\n              dup1\n              iszero\n              tag_24\n              jumpi\n              0x00\n              dup1\n              revert\n            tag_24:\n              pop\n              gas\n              staticcall\n              iszero\n              dup1\n              iszero\n              tag_26\n              jumpi\n              returndatasize\n              0x00\n              dup1\n              returndatacopy\n              revert(0x00, returndatasize)\n            tag_26:\n              pop\n              pop\n              pop\n              pop\n              mload(0x40)\n              returndatasize\n              0x20\n              dup2\n              lt\n              iszero\n              tag_27\n              jumpi\n              0x00\n              dup1\n              revert\n            tag_27:\n              dup2\n              add\n              swap1\n              dup1\n              dup1\n              mload\n              swap1\n              0x20\n              add\n              swap1\n              swap3\n              swap2\n              swap1\n              pop\n              pop\n              pop\n                /* \"Procure.sol\":12932:13033  require(registrationContract.manufacturerExists(msg.sender),\r... */\n              tag_28\n              jumpi\n              mload(0x40)\n              0x08c379a000000000000000000000000000000000000000000000000000000000\n              dup2\n              mstore\n              0x04\n              add\n              dup1\n              dup1\n              0x20\n              add\n              dup3\n              dup2\n              sub\n              dup3\n              mstore\n              0x16\n              dup2\n              mstore\n              0x20\n              add\n              dup1\n              0x53656e646572206e6f7420617574686f72697a65642e00000000000000000000\n              dup2\n              mstore\n              pop\n              0x20\n              add\n              swap2\n              pop\n              pop\n              mload(0x40)\n              dup1\n              swap2\n              sub\n              swap1\n              revert\n            tag_28:\n                /* \"Procure.sol\":13944:13945  0 */\n              0x00\n                /* \"Procure.sol\":13912:13926  rebateRequests */\n              0x01\n                /* \"Procure.sol\":13912:13943  rebateRequests[contractAddress] */\n              0x00\n                /* \"Procure.sol\":13927:13942  contractAddress */\n              dup5\n                /* \"Procure.sol\":13912:13943  rebateRequests[contractAddress] */\n              dup2\n              mstore\n              0x20\n              add\n              swap1\n              dup2\n              mstore\n              0x20\n              add\n              0x00\n              keccak256\n              sload\n                /* \"Procure.sol\":13912:13945  rebateRequests[contractAddress]>0 */\n              gt\n                /* \"Procure.sol\":13904:14050  require(rebateRequests[contractAddress]>0,// to check if rebate is requested\r... */\n              tag_30\n              jumpi\n              mload(0x40)\n              0x08c379a000000000000000000000000000000000000000000000000000000000\n              dup2\n              mstore\n              0x04\n              add\n              dup1\n              dup1\n              0x20\n              add\n              dup3\n              dup2\n              sub\n              dup3\n              mstore\n              0x2f\n              dup2\n              mstore\n              0x20\n              add\n              dup1\n              data_21fce5ea6936843e78c41916256a923b987ccb2a5f5502126f4ebec176814a68\n              0x2f\n              swap2\n              codecopy\n              0x40\n              add\n              swap2\n              pop\n              pop\n              mload(0x40)\n              dup1\n              swap2\n              sub\n              swap1\n              revert\n            tag_30:\n                /* \"Procure.sol\":14080:14094  rebateRequests */\n              0x01\n                /* \"Procure.sol\":14080:14111  rebateRequests[contractAddress] */\n              0x00\n                /* \"Procure.sol\":14095:14110  contractAddress */\n              dup4\n                /* \"Procure.sol\":14080:14111  rebateRequests[contractAddress] */\n              dup2\n              mstore\n              0x20\n              add\n              swap1\n              dup2\n              mstore\n              0x20\n              add\n              0x00\n              keccak256\n              sload\n                /* \"Procure.sol\":14069:14078  msg.value */\n              callvalue\n                /* \"Procure.sol\":14069:14111  msg.value>=rebateRequests[contractAddress] */\n              lt\n              iszero\n                /* \"Procure.sol\":14061:14167  require(msg.value>=rebateRequests[contractAddress],\r... */\n              tag_31\n              jumpi\n              mload(0x40)\n              0x08c379a000000000000000000000000000000000000000000000000000000000\n              dup2\n              mstore\n              0x04\n              add\n              dup1\n              dup1\n              0x20\n              add\n              dup3\n              dup2\n              sub\n              dup3\n              mstore\n              0x20\n              dup2\n              mstore\n              0x20\n              add\n              dup1\n              0x5472616e7366657272656420616d6f756e7420696e73756666696369656e742e\n              dup2\n              mstore\n              pop\n              0x20\n              add\n              swap2\n              pop\n              pop\n              mload(0x40)\n              dup1\n              swap2\n              sub\n              swap1\n              revert\n            tag_31:\n                /* \"Procure.sol\":14210:14211  0 */\n              0x00\n                /* \"Procure.sol\":14178:14192  rebateRequests */\n              0x01\n                /* \"Procure.sol\":14178:14209  rebateRequests[contractAddress] */\n              0x00\n                /* \"Procure.sol\":14193:14208  contractAddress */\n              dup5\n                /* \"Procure.sol\":14178:14209  rebateRequests[contractAddress] */\n              dup2\n              mstore\n              0x20\n              add\n              swap1\n              dup2\n              mstore\n              0x20\n              add\n              0x00\n              keccak256\n                /* \"Procure.sol\":14178:14211  rebateRequests[contractAddress]=0 */\n              dup2\n              swap1\n              sstore\n              pop\n                /* \"Procure.sol\":14227:14259  RequestApproved(contractAddress) */\n              0xbecbbd7543b68baaaf7e9c3fd12e4719f1f506f4253abef4a6573d0adf3a73ed\n                /* \"Procure.sol\":14243:14258  contractAddress */\n              dup3\n                /* \"Procure.sol\":14227:14259  RequestApproved(contractAddress) */\n              mload(0x40)\n              dup1\n              dup3\n              dup2\n              mstore\n              0x20\n              add\n              swap2\n              pop\n              pop\n              mload(0x40)\n              dup1\n              swap2\n              sub\n              swap1\n              log1\n                /* \"Procure.sol\":14270:14281  distributor */\n              dup1\n                /* \"Procure.sol\":14270:14290  distributor.transfer */\n              0xffffffffffffffffffffffffffffffffffffffff\n              and\n                /* \"Procure.sol\":14270:14301  distributor.transfer(msg.value) */\n              0x08fc\n                /* \"Procure.sol\":14291:14300  msg.value */\n              callvalue\n                /* \"Procure.sol\":14270:14301  distributor.transfer(msg.value) */\n              swap1\n              dup2\n              iszero\n              mul\n              swap1\n              mload(0x40)\n              0x00\n              mload(0x40)\n              dup1\n              dup4\n              sub\n              dup2\n              dup6\n              dup9\n              dup9\n              call\n              swap4\n              pop\n              pop\n              pop\n              pop\n              iszero\n              dup1\n              iszero\n              tag_33\n              jumpi\n              returndatasize\n              0x00\n              dup1\n              returndatacopy\n              revert(0x00, returndatasize)\n            tag_33:\n              pop\n                /* \"Procure.sol\":13781:14319  function approveRebateRequest(uint contractAddress, address payable distributor) public payable onlyManufacturer{\r... */\n              pop\n              pop\n              jump\t// out\n            stop\n            data_14bc9802c67112fdedf1b658451c55d4fc7ad09d1e8c09a2945b4de3c112241f 4d616e7566616374757265722061646472657373206e6f7420617574686f72697a65642e\n            data_21fce5ea6936843e78c41916256a923b987ccb2a5f5502126f4ebec176814a68 5265626174652072657175657374206e6f74207375626d697474656420666f72207468697320636f6e74726163742e\n\n            auxdata: 0xa264697066735822122003a91ee635052d3d7b83679d486a25f8270ad97e3628e00e5da1598ad1b988d464736f6c634300060c0033\n        }\n    }\n\n    sub_1: assembly {\n            /* \"Procure.sol\":3858:6809  contract Registration {             // contract to all stake holders involved in contract\r... */\n          mstore(0x40, 0x80)\n            /* \"Procure.sol\":4985:5108  constructor(address creator) public{               // declare contract creator as GPO\r... */\n          callvalue\n          dup1\n          iszero\n          tag_1\n          jumpi\n          0x00\n          dup1\n          revert\n        tag_1:\n          pop\n          mload(0x40)\n          sub(codesize, bytecodeSize)\n          dup1\n          bytecodeSize\n          dup4\n          codecopy\n          dup2\n          dup2\n          add\n          0x40\n          mstore\n          0x20\n          dup2\n          lt\n          iszero\n          tag_2\n          jumpi\n          0x00\n          dup1\n          revert\n        tag_2:\n          dup2\n          add\n          swap1\n          dup1\n          dup1\n          mload\n          swap1\n          0x20\n          add\n          swap1\n          swap3\n          swap2\n          swap1\n          pop\n          pop\n          pop\n            /* \"Procure.sol\":5092:5099  creator */\n          dup1\n            /* \"Procure.sol\":5080:5083  GPO */\n          0x00\n          dup1\n            /* \"Procure.sol\":5080:5100  GPO=payable(creator) */\n          0x0100\n          exp\n          dup2\n          sload\n          dup2\n          0xffffffffffffffffffffffffffffffffffffffff\n          mul\n          not\n          and\n          swap1\n          dup4\n          0xffffffffffffffffffffffffffffffffffffffff\n          and\n          mul\n          or\n          swap1\n          sstore\n          pop\n            /* \"Procure.sol\":4985:5108  constructor(address creator) public{               // declare contract creator as GPO\r... */\n          pop\n            /* \"Procure.sol\":3858:6809  contract Registration {             // contract to all stake holders involved in contract\r... */\n          dataSize(sub_0)\n          dup1\n          dataOffset(sub_0)\n          0x00\n          codecopy\n          0x00\n          return\n        stop\n\n        sub_0: assembly {\n                /* \"Procure.sol\":3858:6809  contract Registration {             // contract to all stake holders involved in contract\r... */\n              mstore(0x40, 0x80)\n              jumpi(tag_1, lt(calldatasize, 0x04))\n              shr(0xe0, calldataload(0x00))\n              dup1\n              0xd4fd04c7\n              gt\n              tag_9\n              jumpi\n              dup1\n              0xd4fd04c7\n              eq\n              tag_5\n              jumpi\n              dup1\n              0xe0acb7a3\n              eq\n              tag_6\n              jumpi\n              dup1\n              0xf767c6e9\n              eq\n              tag_7\n              jumpi\n              dup1\n              0xf769c6d0\n              eq\n              tag_8\n              jumpi\n              jump(tag_1)\n            tag_9:\n              dup1\n              0x20fe4cff\n              eq\n              tag_2\n              jumpi\n              dup1\n              0x31ab0518\n              eq\n              tag_3\n              jumpi\n              dup1\n              0x79ea51d4\n              eq\n              tag_4\n              jumpi\n            tag_1:\n              0x00\n              dup1\n              revert\n                /* \"Procure.sol\":6672:6794  function isGPO(address g) public view returns(bool){ // payable address can recieve funds\r... */\n            tag_2:\n              callvalue\n              dup1\n              iszero\n              tag_10\n              jumpi\n              0x00\n              dup1\n              revert\n            tag_10:\n              pop\n              tag_11\n              0x04\n              dup1\n              calldatasize\n              sub\n              0x20\n              dup2\n              lt\n              iszero\n              tag_12\n              jumpi\n              0x00\n              dup1\n              revert\n            tag_12:\n              dup2\n              add\n              swap1\n              dup1\n              dup1\n              calldataload\n              0xffffffffffffffffffffffffffffffffffffffff\n              and\n              swap1\n              0x20\n              add\n              swap1\n              swap3\n              swap2\n              swap1\n              pop\n              pop\n              pop\n              tag_13\n              jump\t// in\n            tag_11:\n              mload(0x40)\n              dup1\n              dup3\n              iszero\n              iszero\n              dup2\n              mstore\n              0x20\n              add\n              swap2\n              pop\n              pop\n              mload(0x40)\n              dup1\n              swap2\n              sub\n              swap1\n              return\n                /* \"Procure.sol\":5548:5805  function registerDistributor(address d) public onlyGPO{\r... */\n            tag_3:\n              callvalue\n              dup1\n              iszero\n              tag_14\n              jumpi\n              0x00\n              dup1\n              revert\n            tag_14:\n              pop\n              tag_15\n              0x04\n              dup1\n              calldatasize\n              sub\n              0x20\n              dup2\n              lt\n              iszero\n              tag_16\n              jumpi\n              0x00\n              dup1\n              revert\n            tag_16:\n              dup2\n              add\n              swap1\n              dup1\n              dup1\n              calldataload\n              0xffffffffffffffffffffffffffffffffffffffff\n              and\n              swap1\n              0x20\n              add\n              swap1\n              swap3\n              swap2\n              swap1\n              pop\n              pop\n              pop\n              tag_17\n              jump\t// in\n            tag_15:\n              stop\n                /* \"Procure.sol\":6403:6507  function distributorExists(address d) public view returns(bool){\r... */\n            tag_4:\n              callvalue\n              dup1\n              iszero\n              tag_18\n              jumpi\n              0x00\n              dup1\n              revert\n            tag_18:\n              pop\n              tag_19\n              0x04\n              dup1\n              calldatasize\n              sub\n              0x20\n              dup2\n              lt\n              iszero\n              tag_20\n              jumpi\n              0x00\n              dup1\n              revert\n            tag_20:\n              dup2\n              add\n              swap1\n              dup1\n              dup1\n              calldataload\n              0xffffffffffffffffffffffffffffffffffffffff\n              and\n              swap1\n              0x20\n              add\n              swap1\n              swap3\n              swap2\n              swap1\n              pop\n              pop\n              pop\n              tag_21\n              jump\t// in\n            tag_19:\n              mload(0x40)\n              dup1\n              dup3\n              iszero\n              iszero\n              dup2\n              mstore\n              0x20\n              add\n              swap2\n              pop\n              pop\n              mload(0x40)\n              dup1\n              swap2\n              sub\n              swap1\n              return\n                /* \"Procure.sol\":5120:5536  function registerManufacturer() public payable{\r... */\n            tag_5:\n              tag_22\n              tag_23\n              jump\t// in\n            tag_22:\n              stop\n                /* \"Procure.sol\":6289:6395  function manufacturerExists(address m) public view returns(bool){\r... */\n            tag_6:\n              callvalue\n              dup1\n              iszero\n              tag_24\n              jumpi\n              0x00\n              dup1\n              revert\n            tag_24:\n              pop\n              tag_25\n              0x04\n              dup1\n              calldatasize\n              sub\n              0x20\n              dup2\n              lt\n              iszero\n              tag_26\n              jumpi\n              0x00\n              dup1\n              revert\n            tag_26:\n              dup2\n              add\n              swap1\n              dup1\n              dup1\n              calldataload\n              0xffffffffffffffffffffffffffffffffffffffff\n              and\n              swap1\n              0x20\n              add\n              swap1\n              swap3\n              swap2\n              swap1\n              pop\n              pop\n              pop\n              tag_27\n              jump\t// in\n            tag_25:\n              mload(0x40)\n              dup1\n              dup3\n              iszero\n              iszero\n              dup2\n              mstore\n              0x20\n              add\n              swap2\n              pop\n              pop\n              mload(0x40)\n              dup1\n              swap2\n              sub\n              swap1\n              return\n                /* \"Procure.sol\":6519:6660  function SPExists(address h) public view returns(bool){  // simple address can only transfer fund\r... */\n            tag_7:\n              callvalue\n              dup1\n              iszero\n              tag_28\n              jumpi\n              0x00\n              dup1\n              revert\n            tag_28:\n              pop\n              tag_29\n              0x04\n              dup1\n              calldatasize\n              sub\n              0x20\n              dup2\n              lt\n              iszero\n              tag_30\n              jumpi\n              0x00\n              dup1\n              revert\n            tag_30:\n              dup2\n              add\n              swap1\n              dup1\n              dup1\n              calldataload\n              0xffffffffffffffffffffffffffffffffffffffff\n              and\n              swap1\n              0x20\n              add\n              swap1\n              swap3\n              swap2\n              swap1\n              pop\n              pop\n              pop\n              tag_31\n              jump\t// in\n            tag_29:\n              mload(0x40)\n              dup1\n              dup3\n              iszero\n              iszero\n              dup2\n              mstore\n              0x20\n              add\n              swap2\n              pop\n              pop\n              mload(0x40)\n              dup1\n              swap2\n              sub\n              swap1\n              return\n                /* \"Procure.sol\":5817:6198  function registerProvider() public payable{\r... */\n            tag_8:\n              tag_32\n              tag_33\n              jump\t// in\n            tag_32:\n              stop\n                /* \"Procure.sol\":6672:6794  function isGPO(address g) public view returns(bool){ // payable address can recieve funds\r... */\n            tag_13:\n                /* \"Procure.sol\":6718:6722  bool */\n              0x00\n                /* \"Procure.sol\":6782:6785  GPO */\n              dup1\n              0x00\n              swap1\n              sload\n              swap1\n              0x0100\n              exp\n              swap1\n              div\n              0xffffffffffffffffffffffffffffffffffffffff\n              and\n                /* \"Procure.sol\":6779:6785  g==GPO */\n              0xffffffffffffffffffffffffffffffffffffffff\n              and\n                /* \"Procure.sol\":6779:6780  g */\n              dup3\n                /* \"Procure.sol\":6779:6785  g==GPO */\n              0xffffffffffffffffffffffffffffffffffffffff\n              and\n              eq\n                /* \"Procure.sol\":6771:6786  return (g==GPO) */\n              swap1\n              pop\n                /* \"Procure.sol\":6672:6794  function isGPO(address g) public view returns(bool){ // payable address can recieve funds\r... */\n              swap2\n              swap1\n              pop\n              jump\t// out\n                /* \"Procure.sol\":5548:5805  function registerDistributor(address d) public onlyGPO{\r... */\n            tag_17:\n                /* \"Procure.sol\":4838:4841  GPO */\n              0x00\n              dup1\n              sload\n              swap1\n              0x0100\n              exp\n              swap1\n              div\n              0xffffffffffffffffffffffffffffffffffffffff\n              and\n                /* \"Procure.sol\":4824:4841  msg.sender == GPO */\n              0xffffffffffffffffffffffffffffffffffffffff\n              and\n                /* \"Procure.sol\":4824:4834  msg.sender */\n              caller\n                /* \"Procure.sol\":4824:4841  msg.sender == GPO */\n              0xffffffffffffffffffffffffffffffffffffffff\n              and\n              eq\n                /* \"Procure.sol\":4816:4883  require(msg.sender == GPO,\r... */\n              tag_36\n              jumpi\n              mload(0x40)\n              0x08c379a000000000000000000000000000000000000000000000000000000000\n              dup2\n              mstore\n              0x04\n              add\n              dup1\n              dup1\n              0x20\n              add\n              dup3\n              dup2\n              sub\n              dup3\n              mstore\n              0x16\n              dup2\n              mstore\n              0x20\n              add\n              dup1\n              0x53656e646572206e6f7420617574686f72697a65642e00000000000000000000\n              dup2\n              mstore\n              pop\n              0x20\n              add\n              swap2\n              pop\n              pop\n              mload(0x40)\n              dup1\n              swap2\n              sub\n              swap1\n              revert\n            tag_36:\n                /* \"Procure.sol\":5622:5635  manufacturers */\n              0x01\n                /* \"Procure.sol\":5622:5638  manufacturers[d] */\n              0x00\n                /* \"Procure.sol\":5636:5637  d */\n              dup3\n                /* \"Procure.sol\":5622:5638  manufacturers[d] */\n              0xffffffffffffffffffffffffffffffffffffffff\n              and\n              0xffffffffffffffffffffffffffffffffffffffff\n              and\n              dup2\n              mstore\n              0x20\n              add\n              swap1\n              dup2\n              mstore\n              0x20\n              add\n              0x00\n              keccak256\n              0x00\n              swap1\n              sload\n              swap1\n              0x0100\n              exp\n              swap1\n              div\n              0xff\n              and\n                /* \"Procure.sol\":5621:5638  !manufacturers[d] */\n              iszero\n                /* \"Procure.sol\":5621:5658  !manufacturers[d] && !distributors[d] */\n              dup1\n              iszero\n              tag_38\n              jumpi\n              pop\n                /* \"Procure.sol\":5643:5655  distributors */\n              0x02\n                /* \"Procure.sol\":5643:5658  distributors[d] */\n              0x00\n                /* \"Procure.sol\":5656:5657  d */\n              dup3\n                /* \"Procure.sol\":5643:5658  distributors[d] */\n              0xffffffffffffffffffffffffffffffffffffffff\n              and\n              0xffffffffffffffffffffffffffffffffffffffff\n              and\n              dup2\n              mstore\n              0x20\n              add\n              swap1\n              dup2\n              mstore\n              0x20\n              add\n              0x00\n              keccak256\n              0x00\n              swap1\n              sload\n              swap1\n              0x0100\n              exp\n              swap1\n              div\n              0xff\n              and\n                /* \"Procure.sol\":5642:5658  !distributors[d] */\n              iszero\n                /* \"Procure.sol\":5621:5658  !manufacturers[d] && !distributors[d] */\n            tag_38:\n                /* \"Procure.sol\":5621:5682  !manufacturers[d] && !distributors[d] && !serviceproviders[d] */\n              dup1\n              iszero\n              tag_39\n              jumpi\n              pop\n                /* \"Procure.sol\":5663:5679  serviceproviders */\n              0x03\n                /* \"Procure.sol\":5663:5682  serviceproviders[d] */\n              0x00\n                /* \"Procure.sol\":5680:5681  d */\n              dup3\n                /* \"Procure.sol\":5663:5682  serviceproviders[d] */\n              0xffffffffffffffffffffffffffffffffffffffff\n              and\n              0xffffffffffffffffffffffffffffffffffffffff\n              and\n              dup2\n              mstore\n              0x20\n              add\n              swap1\n              dup2\n              mstore\n              0x20\n              add\n              0x00\n              keccak256\n              0x00\n              swap1\n              sload\n              swap1\n              0x0100\n              exp\n              swap1\n              div\n              0xff\n              and\n                /* \"Procure.sol\":5662:5682  !serviceproviders[d] */\n              iszero\n                /* \"Procure.sol\":5621:5682  !manufacturers[d] && !distributors[d] && !serviceproviders[d] */\n            tag_39:\n                /* \"Procure.sol\":5613:5716  require(!manufacturers[d] && !distributors[d] && !serviceproviders[d],\r... */\n              tag_40\n              jumpi\n              mload(0x40)\n              0x08c379a000000000000000000000000000000000000000000000000000000000\n              dup2\n              mstore\n              0x04\n              add\n              dup1\n              dup1\n              0x20\n              add\n              dup3\n              dup2\n              sub\n              dup3\n              mstore\n              0x14\n              dup2\n              mstore\n              0x20\n              add\n              dup1\n              0x4164647265737320616c72656164792075736564000000000000000000000000\n              dup2\n              mstore\n              pop\n              0x20\n              add\n              swap2\n              pop\n              pop\n              mload(0x40)\n              dup1\n              swap2\n              sub\n              swap1\n              revert\n            tag_40:\n                /* \"Procure.sol\":5753:5757  true */\n              0x01\n                /* \"Procure.sol\":5737:5749  distributors */\n              0x02\n                /* \"Procure.sol\":5737:5752  distributors[d] */\n              0x00\n                /* \"Procure.sol\":5750:5751  d */\n              dup4\n                /* \"Procure.sol\":5737:5752  distributors[d] */\n              0xffffffffffffffffffffffffffffffffffffffff\n              and\n              0xffffffffffffffffffffffffffffffffffffffff\n              and\n              dup2\n              mstore\n              0x20\n              add\n              swap1\n              dup2\n              mstore\n              0x20\n              add\n              0x00\n              keccak256\n              0x00\n                /* \"Procure.sol\":5737:5757  distributors[d]=true */\n              0x0100\n              exp\n              dup2\n              sload\n              dup2\n              0xff\n              mul\n              not\n              and\n              swap1\n              dup4\n              iszero\n              iszero\n              mul\n              or\n              swap1\n              sstore\n              pop\n                /* \"Procure.sol\":5773:5797  DistributorRegistered(d) */\n              0x3b2c2671a4556fca8f080b2c4469c9041a5019e2d24ddc37cfa48c95f542ac55\n                /* \"Procure.sol\":5795:5796  d */\n              dup2\n                /* \"Procure.sol\":5773:5797  DistributorRegistered(d) */\n              mload(0x40)\n              dup1\n              dup3\n              0xffffffffffffffffffffffffffffffffffffffff\n              and\n              dup2\n              mstore\n              0x20\n              add\n              swap2\n              pop\n              pop\n              mload(0x40)\n              dup1\n              swap2\n              sub\n              swap1\n              log1\n                /* \"Procure.sol\":5548:5805  function registerDistributor(address d) public onlyGPO{\r... */\n              pop\n              jump\t// out\n                /* \"Procure.sol\":6403:6507  function distributorExists(address d) public view returns(bool){\r... */\n            tag_21:\n                /* \"Procure.sol\":6461:6465  bool */\n              0x00\n                /* \"Procure.sol\":6484:6496  distributors */\n              0x02\n                /* \"Procure.sol\":6484:6499  distributors[d] */\n              0x00\n                /* \"Procure.sol\":6497:6498  d */\n              dup4\n                /* \"Procure.sol\":6484:6499  distributors[d] */\n              0xffffffffffffffffffffffffffffffffffffffff\n              and\n              0xffffffffffffffffffffffffffffffffffffffff\n              and\n              dup2\n              mstore\n              0x20\n              add\n              swap1\n              dup2\n              mstore\n              0x20\n              add\n              0x00\n              keccak256\n              0x00\n              swap1\n              sload\n              swap1\n              0x0100\n              exp\n              swap1\n              div\n              0xff\n              and\n                /* \"Procure.sol\":6477:6499  return distributors[d] */\n              swap1\n              pop\n                /* \"Procure.sol\":6403:6507  function distributorExists(address d) public view returns(bool){\r... */\n              swap2\n              swap1\n              pop\n              jump\t// out\n                /* \"Procure.sol\":5120:5536  function registerManufacturer() public payable{\r... */\n            tag_23:\n                /* \"Procure.sol\":5186:5199  manufacturers */\n              0x01\n                /* \"Procure.sol\":5186:5211  manufacturers[msg.sender] */\n              0x00\n                /* \"Procure.sol\":5200:5210  msg.sender */\n              caller\n                /* \"Procure.sol\":5186:5211  manufacturers[msg.sender] */\n              0xffffffffffffffffffffffffffffffffffffffff\n              and\n              0xffffffffffffffffffffffffffffffffffffffff\n              and\n              dup2\n              mstore\n              0x20\n              add\n              swap1\n              dup2\n              mstore\n              0x20\n              add\n              0x00\n              keccak256\n              0x00\n              swap1\n              sload\n              swap1\n              0x0100\n              exp\n              swap1\n              div\n              0xff\n              and\n                /* \"Procure.sol\":5185:5211  !manufacturers[msg.sender] */\n              iszero\n                /* \"Procure.sol\":5185:5240  !manufacturers[msg.sender] && !distributors[msg.sender] */\n              dup1\n              iszero\n              tag_43\n              jumpi\n              pop\n                /* \"Procure.sol\":5216:5228  distributors */\n              0x02\n                /* \"Procure.sol\":5216:5240  distributors[msg.sender] */\n              0x00\n                /* \"Procure.sol\":5229:5239  msg.sender */\n              caller\n                /* \"Procure.sol\":5216:5240  distributors[msg.sender] */\n              0xffffffffffffffffffffffffffffffffffffffff\n              and\n              0xffffffffffffffffffffffffffffffffffffffff\n              and\n              dup2\n              mstore\n              0x20\n              add\n              swap1\n              dup2\n              mstore\n              0x20\n              add\n              0x00\n              keccak256\n              0x00\n              swap1\n              sload\n              swap1\n              0x0100\n              exp\n              swap1\n              div\n              0xff\n              and\n                /* \"Procure.sol\":5215:5240  !distributors[msg.sender] */\n              iszero\n                /* \"Procure.sol\":5185:5240  !manufacturers[msg.sender] && !distributors[msg.sender] */\n            tag_43:\n                /* \"Procure.sol\":5185:5273  !manufacturers[msg.sender] && !distributors[msg.sender] && !serviceproviders[msg.sender] */\n              dup1\n              iszero\n              tag_44\n              jumpi\n              pop\n                /* \"Procure.sol\":5245:5261  serviceproviders */\n              0x03\n                /* \"Procure.sol\":5245:5273  serviceproviders[msg.sender] */\n              0x00\n                /* \"Procure.sol\":5262:5272  msg.sender */\n              caller\n                /* \"Procure.sol\":5245:5273  serviceproviders[msg.sender] */\n              0xffffffffffffffffffffffffffffffffffffffff\n              and\n              0xffffffffffffffffffffffffffffffffffffffff\n              and\n              dup2\n              mstore\n              0x20\n              add\n              swap1\n              dup2\n              mstore\n              0x20\n              add\n              0x00\n              keccak256\n              0x00\n              swap1\n              sload\n              swap1\n              0x0100\n              exp\n              swap1\n              div\n              0xff\n              and\n                /* \"Procure.sol\":5244:5273  !serviceproviders[msg.sender] */\n              iszero\n                /* \"Procure.sol\":5185:5273  !manufacturers[msg.sender] && !distributors[msg.sender] && !serviceproviders[msg.sender] */\n            tag_44:\n                /* \"Procure.sol\":5177:5307  require(!manufacturers[msg.sender] && !distributors[msg.sender] && !serviceproviders[msg.sender],\r... */\n              tag_45\n              jumpi\n              mload(0x40)\n              0x08c379a000000000000000000000000000000000000000000000000000000000\n              dup2\n              mstore\n              0x04\n              add\n              dup1\n              dup1\n              0x20\n              add\n              dup3\n              dup2\n              sub\n              dup3\n              mstore\n              0x14\n              dup2\n              mstore\n              0x20\n              add\n              dup1\n              0x4164647265737320616c72656164792075736564000000000000000000000000\n              dup2\n              mstore\n              pop\n              0x20\n              add\n              swap2\n              pop\n              pop\n              mload(0x40)\n              dup1\n              swap2\n              sub\n              swap1\n              revert\n            tag_45:\n                /* \"Procure.sol\":4245:4246  1 */\n              0x01\n                /* \"Procure.sol\":5326:5335  msg.value */\n              callvalue\n                /* \"Procure.sol\":5326:5351  msg.value>=manufacuterFee */\n              lt\n              iszero\n                /* \"Procure.sol\":5318:5391  require(msg.value>=manufacuterFee,\r... */\n              tag_46\n              jumpi\n              mload(0x40)\n              0x08c379a000000000000000000000000000000000000000000000000000000000\n              dup2\n              mstore\n              0x04\n              add\n              dup1\n              dup1\n              0x20\n              add\n              dup3\n              dup2\n              sub\n              dup3\n              mstore\n              0x1a\n              dup2\n              mstore\n              0x20\n              add\n              dup1\n              0x41646d697373696f6e2066656520696e73756666696369656e74000000000000\n              dup2\n              mstore\n              pop\n              0x20\n              add\n              swap2\n              pop\n              pop\n              mload(0x40)\n              dup1\n              swap2\n              sub\n              swap1\n              revert\n            tag_46:\n                /* \"Procure.sol\":5438:5442  true */\n              0x01\n                /* \"Procure.sol\":5412:5425  manufacturers */\n              dup1\n                /* \"Procure.sol\":5412:5437  manufacturers[msg.sender] */\n              0x00\n                /* \"Procure.sol\":5426:5436  msg.sender */\n              caller\n                /* \"Procure.sol\":5412:5437  manufacturers[msg.sender] */\n              0xffffffffffffffffffffffffffffffffffffffff\n              and\n              0xffffffffffffffffffffffffffffffffffffffff\n              and\n              dup2\n              mstore\n              0x20\n              add\n              swap1\n              dup2\n              mstore\n              0x20\n              add\n              0x00\n              keccak256\n              0x00\n                /* \"Procure.sol\":5412:5442  manufacturers[msg.sender]=true */\n              0x0100\n              exp\n              dup2\n              sload\n              dup2\n              0xff\n              mul\n              not\n              and\n              swap1\n              dup4\n              iszero\n              iszero\n              mul\n              or\n              swap1\n              sstore\n              pop\n                /* \"Procure.sol\":5458:5492  ManufacturerRegistered(msg.sender) */\n              0xa02022e57eb2e7ae40c00a3b394bec5819680c1ce2bf125655fb6d98dffdb8df\n                /* \"Procure.sol\":5481:5491  msg.sender */\n              caller\n                /* \"Procure.sol\":5458:5492  ManufacturerRegistered(msg.sender) */\n              mload(0x40)\n              dup1\n              dup3\n              0xffffffffffffffffffffffffffffffffffffffff\n              and\n              dup2\n              mstore\n              0x20\n              add\n              swap2\n              pop\n              pop\n              mload(0x40)\n              dup1\n              swap2\n              sub\n              swap1\n              log1\n                /* \"Procure.sol\":5120:5536  function registerManufacturer() public payable{\r... */\n              jump\t// out\n                /* \"Procure.sol\":6289:6395  function manufacturerExists(address m) public view returns(bool){\r... */\n            tag_27:\n                /* \"Procure.sol\":6348:6352  bool */\n              0x00\n                /* \"Procure.sol\":6371:6384  manufacturers */\n              0x01\n                /* \"Procure.sol\":6371:6387  manufacturers[m] */\n              0x00\n                /* \"Procure.sol\":6385:6386  m */\n              dup4\n                /* \"Procure.sol\":6371:6387  manufacturers[m] */\n              0xffffffffffffffffffffffffffffffffffffffff\n              and\n              0xffffffffffffffffffffffffffffffffffffffff\n              and\n              dup2\n              mstore\n              0x20\n              add\n              swap1\n              dup2\n              mstore\n              0x20\n              add\n              0x00\n              keccak256\n              0x00\n              swap1\n              sload\n              swap1\n              0x0100\n              exp\n              swap1\n              div\n              0xff\n              and\n                /* \"Procure.sol\":6364:6387  return manufacturers[m] */\n              swap1\n              pop\n                /* \"Procure.sol\":6289:6395  function manufacturerExists(address m) public view returns(bool){\r... */\n              swap2\n              swap1\n              pop\n              jump\t// out\n                /* \"Procure.sol\":6519:6660  function SPExists(address h) public view returns(bool){  // simple address can only transfer fund\r... */\n            tag_31:\n                /* \"Procure.sol\":6568:6572  bool */\n              0x00\n                /* \"Procure.sol\":6633:6649  serviceproviders */\n              0x03\n                /* \"Procure.sol\":6633:6652  serviceproviders[h] */\n              0x00\n                /* \"Procure.sol\":6650:6651  h */\n              dup4\n                /* \"Procure.sol\":6633:6652  serviceproviders[h] */\n              0xffffffffffffffffffffffffffffffffffffffff\n              and\n              0xffffffffffffffffffffffffffffffffffffffff\n              and\n              dup2\n              mstore\n              0x20\n              add\n              swap1\n              dup2\n              mstore\n              0x20\n              add\n              0x00\n              keccak256\n              0x00\n              swap1\n              sload\n              swap1\n              0x0100\n              exp\n              swap1\n              div\n              0xff\n              and\n                /* \"Procure.sol\":6626:6652  return serviceproviders[h] */\n              swap1\n              pop\n                /* \"Procure.sol\":6519:6660  function SPExists(address h) public view returns(bool){  // simple address can only transfer fund\r... */\n              swap2\n              swap1\n              pop\n              jump\t// out\n                /* \"Procure.sol\":5817:6198  function registerProvider() public payable{\r... */\n            tag_33:\n                /* \"Procure.sol\":5879:5892  manufacturers */\n              0x01\n                /* \"Procure.sol\":5879:5904  manufacturers[msg.sender] */\n              0x00\n                /* \"Procure.sol\":5893:5903  msg.sender */\n              caller\n                /* \"Procure.sol\":5879:5904  manufacturers[msg.sender] */\n              0xffffffffffffffffffffffffffffffffffffffff\n              and\n              0xffffffffffffffffffffffffffffffffffffffff\n              and\n              dup2\n              mstore\n              0x20\n              add\n              swap1\n              dup2\n              mstore\n              0x20\n              add\n              0x00\n              keccak256\n              0x00\n              swap1\n              sload\n              swap1\n              0x0100\n              exp\n              swap1\n              div\n              0xff\n              and\n                /* \"Procure.sol\":5878:5904  !manufacturers[msg.sender] */\n              iszero\n                /* \"Procure.sol\":5878:5933  !manufacturers[msg.sender] && !distributors[msg.sender] */\n              dup1\n              iszero\n              tag_50\n              jumpi\n              pop\n                /* \"Procure.sol\":5909:5921  distributors */\n              0x02\n                /* \"Procure.sol\":5909:5933  distributors[msg.sender] */\n              0x00\n                /* \"Procure.sol\":5922:5932  msg.sender */\n              caller\n                /* \"Procure.sol\":5909:5933  distributors[msg.sender] */\n              0xffffffffffffffffffffffffffffffffffffffff\n              and\n              0xffffffffffffffffffffffffffffffffffffffff\n              and\n              dup2\n              mstore\n              0x20\n              add\n              swap1\n              dup2\n              mstore\n              0x20\n              add\n              0x00\n              keccak256\n              0x00\n              swap1\n              sload\n              swap1\n              0x0100\n              exp\n              swap1\n              div\n              0xff\n              and\n                /* \"Procure.sol\":5908:5933  !distributors[msg.sender] */\n              iszero\n                /* \"Procure.sol\":5878:5933  !manufacturers[msg.sender] && !distributors[msg.sender] */\n            tag_50:\n                /* \"Procure.sol\":5878:5966  !manufacturers[msg.sender] && !distributors[msg.sender] && !serviceproviders[msg.sender] */\n              dup1\n              iszero\n              tag_51\n              jumpi\n              pop\n                /* \"Procure.sol\":5938:5954  serviceproviders */\n              0x03\n                /* \"Procure.sol\":5938:5966  serviceproviders[msg.sender] */\n              0x00\n                /* \"Procure.sol\":5955:5965  msg.sender */\n              caller\n                /* \"Procure.sol\":5938:5966  serviceproviders[msg.sender] */\n              0xffffffffffffffffffffffffffffffffffffffff\n              and\n              0xffffffffffffffffffffffffffffffffffffffff\n              and\n              dup2\n              mstore\n              0x20\n              add\n              swap1\n              dup2\n              mstore\n              0x20\n              add\n              0x00\n              keccak256\n              0x00\n              swap1\n              sload\n              swap1\n              0x0100\n              exp\n              swap1\n              div\n              0xff\n              and\n                /* \"Procure.sol\":5937:5966  !serviceproviders[msg.sender] */\n              iszero\n                /* \"Procure.sol\":5878:5966  !manufacturers[msg.sender] && !distributors[msg.sender] && !serviceproviders[msg.sender] */\n            tag_51:\n                /* \"Procure.sol\":5870:6000  require(!manufacturers[msg.sender] && !distributors[msg.sender] && !serviceproviders[msg.sender],\r... */\n              tag_52\n              jumpi\n              mload(0x40)\n              0x08c379a000000000000000000000000000000000000000000000000000000000\n              dup2\n              mstore\n              0x04\n              add\n              dup1\n              dup1\n              0x20\n              add\n              dup3\n              dup2\n              sub\n              dup3\n              mstore\n              0x14\n              dup2\n              mstore\n              0x20\n              add\n              dup1\n              0x4164647265737320616c72656164792075736564000000000000000000000000\n              dup2\n              mstore\n              pop\n              0x20\n              add\n              swap2\n              pop\n              pop\n              mload(0x40)\n              dup1\n              swap2\n              sub\n              swap1\n              revert\n            tag_52:\n                /* \"Procure.sol\":4319:4320  1 */\n              0x01\n                /* \"Procure.sol\":6019:6028  msg.value */\n              callvalue\n                /* \"Procure.sol\":6019:6049  msg.value>=serviceProviderPFee */\n              lt\n              iszero\n                /* \"Procure.sol\":6011:6089  require(msg.value>=serviceProviderPFee,\r... */\n              tag_53\n              jumpi\n              mload(0x40)\n              0x08c379a000000000000000000000000000000000000000000000000000000000\n              dup2\n              mstore\n              0x04\n              add\n              dup1\n              dup1\n              0x20\n              add\n              dup3\n              dup2\n              sub\n              dup3\n              mstore\n              0x1a\n              dup2\n              mstore\n              0x20\n              add\n              dup1\n              0x41646d697373696f6e2066656520696e73756666696369656e74000000000000\n              dup2\n              mstore\n              pop\n              0x20\n              add\n              swap2\n              pop\n              pop\n              mload(0x40)\n              dup1\n              swap2\n              sub\n              swap1\n              revert\n            tag_53:\n                /* \"Procure.sol\":6131:6135  true */\n              0x01\n                /* \"Procure.sol\":6102:6118  serviceproviders */\n              0x03\n                /* \"Procure.sol\":6102:6130  serviceproviders[msg.sender] */\n              0x00\n                /* \"Procure.sol\":6119:6129  msg.sender */\n              caller\n                /* \"Procure.sol\":6102:6130  serviceproviders[msg.sender] */\n              0xffffffffffffffffffffffffffffffffffffffff\n              and\n              0xffffffffffffffffffffffffffffffffffffffff\n              and\n              dup2\n              mstore\n              0x20\n              add\n              swap1\n              dup2\n              mstore\n              0x20\n              add\n              0x00\n              keccak256\n              0x00\n                /* \"Procure.sol\":6102:6135  serviceproviders[msg.sender]=true */\n              0x0100\n              exp\n              dup2\n              sload\n              dup2\n              0xff\n              mul\n              not\n              and\n              swap1\n              dup4\n              iszero\n              iszero\n              mul\n              or\n              swap1\n              sstore\n              pop\n                /* \"Procure.sol\":6151:6188  serviceProviderRegistered(msg.sender) */\n              0x41360fc84c3f602746dd7837265b2cc28103ca5d89b494aea5fe33f549ddcb7a\n                /* \"Procure.sol\":6177:6187  msg.sender */\n              caller\n                /* \"Procure.sol\":6151:6188  serviceProviderRegistered(msg.sender) */\n              mload(0x40)\n              dup1\n              dup3\n              0xffffffffffffffffffffffffffffffffffffffff\n              and\n              dup2\n              mstore\n              0x20\n              add\n              swap2\n              pop\n              pop\n              mload(0x40)\n              dup1\n              swap2\n              sub\n              swap1\n              log1\n                /* \"Procure.sol\":5817:6198  function registerProvider() public payable{\r... */\n              jump\t// out\n\n            auxdata: 0xa26469706673582212202c92b8496c40ba463024a89a907877a697dafb50c3fd8346e048eed4239d5e0764736f6c634300060c0033\n        }\n    }\n\n    sub_2: assembly {\n            /* \"Procure.sol\":11158:12562  contract PurchaseOrders{                // contract to generate and submit purchase order\r... */\n          mstore(0x40, 0x80)\n            /* \"Procure.sol\":11773:11893  constructor(address registrationAddress)public {\r... */\n          callvalue\n          dup1\n          iszero\n          tag_1\n          jumpi\n          0x00\n          dup1\n          revert\n        tag_1:\n          pop\n          mload(0x40)\n          sub(codesize, bytecodeSize)\n          dup1\n          bytecodeSize\n          dup4\n          codecopy\n          dup2\n          dup2\n          add\n          0x40\n          mstore\n          0x20\n          dup2\n          lt\n          iszero\n          tag_2\n          jumpi\n          0x00\n          dup1\n          revert\n        tag_2:\n          dup2\n          add\n          swap1\n          dup1\n          dup1\n          mload\n          swap1\n          0x20\n          add\n          swap1\n          swap3\n          swap2\n          swap1\n          pop\n          pop\n          pop\n            /* \"Procure.sol\":11865:11884  registrationAddress */\n          dup1\n            /* \"Procure.sol\":11831:11851  registrationContract */\n          0x00\n          dup1\n            /* \"Procure.sol\":11831:11885  registrationContract=Registration(registrationAddress) */\n          0x0100\n          exp\n          dup2\n          sload\n          dup2\n          0xffffffffffffffffffffffffffffffffffffffff\n          mul\n          not\n          and\n          swap1\n          dup4\n          0xffffffffffffffffffffffffffffffffffffffff\n          and\n          mul\n          or\n          swap1\n          sstore\n          pop\n            /* \"Procure.sol\":11773:11893  constructor(address registrationAddress)public {\r... */\n          pop\n            /* \"Procure.sol\":11158:12562  contract PurchaseOrders{                // contract to generate and submit purchase order\r... */\n          dataSize(sub_0)\n          dup1\n          dataOffset(sub_0)\n          0x00\n          codecopy\n          0x00\n          return\n        stop\n\n        sub_0: assembly {\n                /* \"Procure.sol\":11158:12562  contract PurchaseOrders{                // contract to generate and submit purchase order\r... */\n              mstore(0x40, 0x80)\n              callvalue\n              dup1\n              iszero\n              tag_1\n              jumpi\n              0x00\n              dup1\n              revert\n            tag_1:\n              pop\n              jumpi(tag_2, lt(calldatasize, 0x04))\n              shr(0xe0, calldataload(0x00))\n              dup1\n              0x01efba23\n              eq\n              tag_3\n              jumpi\n              dup1\n              0x1d2c78f4\n              eq\n              tag_4\n              jumpi\n            tag_2:\n              0x00\n              dup1\n              revert\n                /* \"Procure.sol\":12079:12283  function submitPO(uint POnumber, address distributor) public onlySP{    \r... */\n            tag_3:\n              tag_5\n              0x04\n              dup1\n              calldatasize\n              sub\n              0x40\n              dup2\n              lt\n              iszero\n              tag_6\n              jumpi\n              0x00\n              dup1\n              revert\n            tag_6:\n              dup2\n              add\n              swap1\n              dup1\n              dup1\n              calldataload\n              swap1\n              0x20\n              add\n              swap1\n              swap3\n              swap2\n              swap1\n              dup1\n              calldataload\n              0xffffffffffffffffffffffffffffffffffffffff\n              and\n              swap1\n              0x20\n              add\n              swap1\n              swap3\n              swap2\n              swap1\n              pop\n              pop\n              pop\n              tag_7\n              jump\t// in\n            tag_5:\n              stop\n                /* \"Procure.sol\":12295:12559  function deliverStatus(uint POnumber)public onlyDistributor{\r... */\n            tag_4:\n              tag_8\n              0x04\n              dup1\n              calldatasize\n              sub\n              0x20\n              dup2\n              lt\n              iszero\n              tag_9\n              jumpi\n              0x00\n              dup1\n              revert\n            tag_9:\n              dup2\n              add\n              swap1\n              dup1\n              dup1\n              calldataload\n              swap1\n              0x20\n              add\n              swap1\n              swap3\n              swap2\n              swap1\n              pop\n              pop\n              pop\n              tag_10\n              jump\t// in\n            tag_8:\n              stop\n                /* \"Procure.sol\":12079:12283  function submitPO(uint POnumber, address distributor) public onlySP{    \r... */\n            tag_7:\n                /* \"Procure.sol\":11659:11679  registrationContract */\n              0x00\n              dup1\n              sload\n              swap1\n              0x0100\n              exp\n              swap1\n              div\n              0xffffffffffffffffffffffffffffffffffffffff\n              and\n                /* \"Procure.sol\":11659:11688  registrationContract.SPExists */\n              0xffffffffffffffffffffffffffffffffffffffff\n              and\n              0xf767c6e9\n                /* \"Procure.sol\":11689:11699  msg.sender */\n              caller\n                /* \"Procure.sol\":11659:11700  registrationContract.SPExists(msg.sender) */\n              mload(0x40)\n              dup3\n              0xffffffff\n              and\n              0xe0\n              shl\n              dup2\n              mstore\n              0x04\n              add\n              dup1\n              dup3\n              0xffffffffffffffffffffffffffffffffffffffff\n              and\n              dup2\n              mstore\n              0x20\n              add\n              swap2\n              pop\n              pop\n              0x20\n              mload(0x40)\n              dup1\n              dup4\n              sub\n              dup2\n              dup7\n              dup1\n              extcodesize\n              iszero\n              dup1\n              iszero\n              tag_12\n              jumpi\n              0x00\n              dup1\n              revert\n            tag_12:\n              pop\n              gas\n              staticcall\n              iszero\n              dup1\n              iszero\n              tag_14\n              jumpi\n              returndatasize\n              0x00\n              dup1\n              returndatacopy\n              revert(0x00, returndatasize)\n            tag_14:\n              pop\n              pop\n              pop\n              pop\n              mload(0x40)\n              returndatasize\n              0x20\n              dup2\n              lt\n              iszero\n              tag_15\n              jumpi\n              0x00\n              dup1\n              revert\n            tag_15:\n              dup2\n              add\n              swap1\n              dup1\n              dup1\n              mload\n              swap1\n              0x20\n              add\n              swap1\n              swap3\n              swap2\n              swap1\n              pop\n              pop\n              pop\n                /* \"Procure.sol\":11651:11742  require(registrationContract.SPExists(msg.sender),\r... */\n              tag_16\n              jumpi\n              mload(0x40)\n              0x08c379a000000000000000000000000000000000000000000000000000000000\n              dup2\n              mstore\n              0x04\n              add\n              dup1\n              dup1\n              0x20\n              add\n              dup3\n              dup2\n              sub\n              dup3\n              mstore\n              0x16\n              dup2\n              mstore\n              0x20\n              add\n              dup1\n              0x53656e646572206e6f7420617574686f72697a65642e00000000000000000000\n              dup2\n              mstore\n              pop\n              0x20\n              add\n              swap2\n              pop\n              pop\n              mload(0x40)\n              dup1\n              swap2\n              sub\n              swap1\n              revert\n            tag_16:\n                /* \"Procure.sol\":12175:12212  PO_type(msg.sender,distributor,false) */\n              mload(0x40)\n              dup1\n              0x60\n              add\n              0x40\n              mstore\n              dup1\n                /* \"Procure.sol\":12183:12193  msg.sender */\n              caller\n                /* \"Procure.sol\":12175:12212  PO_type(msg.sender,distributor,false) */\n              0xffffffffffffffffffffffffffffffffffffffff\n              and\n              dup2\n              mstore\n              0x20\n              add\n                /* \"Procure.sol\":12194:12205  distributor */\n              dup3\n                /* \"Procure.sol\":12175:12212  PO_type(msg.sender,distributor,false) */\n              0xffffffffffffffffffffffffffffffffffffffff\n              and\n              dup2\n              mstore\n              0x20\n              add\n                /* \"Procure.sol\":12206:12211  false */\n              0x00\n                /* \"Procure.sol\":12175:12212  PO_type(msg.sender,distributor,false) */\n              iszero\n              iszero\n              dup2\n              mstore\n              pop\n                /* \"Procure.sol\":12161:12164  POs */\n              0x01\n                /* \"Procure.sol\":12161:12174  POs[POnumber] */\n              0x00\n                /* \"Procure.sol\":12165:12173  POnumber */\n              dup5\n                /* \"Procure.sol\":12161:12174  POs[POnumber] */\n              dup2\n              mstore\n              0x20\n              add\n              swap1\n              dup2\n              mstore\n              0x20\n              add\n              0x00\n              keccak256\n                /* \"Procure.sol\":12161:12212  POs[POnumber]=PO_type(msg.sender,distributor,false) */\n              0x00\n              dup3\n              add\n              mload\n              dup2\n              0x00\n              add\n              exp(0x0100, 0x00)\n              dup2\n              sload\n              dup2\n              0xffffffffffffffffffffffffffffffffffffffff\n              mul\n              not\n              and\n              swap1\n              dup4\n              0xffffffffffffffffffffffffffffffffffffffff\n              and\n              mul\n              or\n              swap1\n              sstore\n              pop\n              0x20\n              dup3\n              add\n              mload\n              dup2\n              0x01\n              add\n              exp(0x0100, 0x00)\n              dup2\n              sload\n              dup2\n              0xffffffffffffffffffffffffffffffffffffffff\n              mul\n              not\n              and\n              swap1\n              dup4\n              0xffffffffffffffffffffffffffffffffffffffff\n              and\n              mul\n              or\n              swap1\n              sstore\n              pop\n              0x40\n              dup3\n              add\n              mload\n              dup2\n              0x01\n              add\n              exp(0x0100, 0x14)\n              dup2\n              sload\n              dup2\n              0xff\n              mul\n              not\n              and\n              swap1\n              dup4\n              iszero\n              iszero\n              mul\n              or\n              swap1\n              sstore\n              pop\n              swap1\n              pop\n              pop\n                /* \"Procure.sol\":12228:12273  POsubmitted(POnumber,msg.sender, distributor) */\n              0x8d740f86cf4d186f81b02d3740c671fb7ada67a8329869b5c274cb22d1fe6eeb\n                /* \"Procure.sol\":12240:12248  POnumber */\n              dup3\n                /* \"Procure.sol\":12249:12259  msg.sender */\n              caller\n                /* \"Procure.sol\":12261:12272  distributor */\n              dup4\n                /* \"Procure.sol\":12228:12273  POsubmitted(POnumber,msg.sender, distributor) */\n              mload(0x40)\n              dup1\n              dup5\n              dup2\n              mstore\n              0x20\n              add\n              dup4\n              0xffffffffffffffffffffffffffffffffffffffff\n              and\n              dup2\n              mstore\n              0x20\n              add\n              dup3\n              0xffffffffffffffffffffffffffffffffffffffff\n              and\n              dup2\n              mstore\n              0x20\n              add\n              swap4\n              pop\n              pop\n              pop\n              pop\n              mload(0x40)\n              dup1\n              swap2\n              sub\n              swap1\n              log1\n                /* \"Procure.sol\":12079:12283  function submitPO(uint POnumber, address distributor) public onlySP{    \r... */\n              pop\n              pop\n              jump\t// out\n                /* \"Procure.sol\":12295:12559  function deliverStatus(uint POnumber)public onlyDistributor{\r... */\n            tag_10:\n                /* \"Procure.sol\":11502:11522  registrationContract */\n              0x00\n              dup1\n              sload\n              swap1\n              0x0100\n              exp\n              swap1\n              div\n              0xffffffffffffffffffffffffffffffffffffffff\n              and\n                /* \"Procure.sol\":11502:11540  registrationContract.distributorExists */\n              0xffffffffffffffffffffffffffffffffffffffff\n              and\n              0x79ea51d4\n                /* \"Procure.sol\":11541:11551  msg.sender */\n              caller\n                /* \"Procure.sol\":11502:11552  registrationContract.distributorExists(msg.sender) */\n              mload(0x40)\n              dup3\n              0xffffffff\n              and\n              0xe0\n              shl\n              dup2\n              mstore\n              0x04\n              add\n              dup1\n              dup3\n              0xffffffffffffffffffffffffffffffffffffffff\n              and\n              dup2\n              mstore\n              0x20\n              add\n              swap2\n              pop\n              pop\n              0x20\n              mload(0x40)\n              dup1\n              dup4\n              sub\n              dup2\n              dup7\n              dup1\n              extcodesize\n              iszero\n              dup1\n              iszero\n              tag_19\n              jumpi\n              0x00\n              dup1\n              revert\n            tag_19:\n              pop\n              gas\n              staticcall\n              iszero\n              dup1\n              iszero\n              tag_21\n              jumpi\n              returndatasize\n              0x00\n              dup1\n              returndatacopy\n              revert(0x00, returndatasize)\n            tag_21:\n              pop\n              pop\n              pop\n              pop\n              mload(0x40)\n              returndatasize\n              0x20\n              dup2\n              lt\n              iszero\n              tag_22\n              jumpi\n              0x00\n              dup1\n              revert\n            tag_22:\n              dup2\n              add\n              swap1\n              dup1\n              dup1\n              mload\n              swap1\n              0x20\n              add\n              swap1\n              swap3\n              swap2\n              swap1\n              pop\n              pop\n              pop\n                /* \"Procure.sol\":11494:11594  require(registrationContract.distributorExists(msg.sender),\r... */\n              tag_23\n              jumpi\n              mload(0x40)\n              0x08c379a000000000000000000000000000000000000000000000000000000000\n              dup2\n              mstore\n              0x04\n              add\n              dup1\n              dup1\n              0x20\n              add\n              dup3\n              dup2\n              sub\n              dup3\n              mstore\n              0x16\n              dup2\n              mstore\n              0x20\n              add\n              dup1\n              0x53656e646572206e6f7420617574686f72697a65642e00000000000000000000\n              dup2\n              mstore\n              pop\n              0x20\n              add\n              swap2\n              pop\n              pop\n              mload(0x40)\n              dup1\n              swap2\n              sub\n              swap1\n              revert\n            tag_23:\n                /* \"Procure.sol\":12400:12410  msg.sender */\n              caller\n                /* \"Procure.sol\":12373:12410  POs[POnumber].distributor==msg.sender */\n              0xffffffffffffffffffffffffffffffffffffffff\n              and\n                /* \"Procure.sol\":12373:12376  POs */\n              0x01\n                /* \"Procure.sol\":12373:12386  POs[POnumber] */\n              0x00\n                /* \"Procure.sol\":12377:12385  POnumber */\n              dup4\n                /* \"Procure.sol\":12373:12386  POs[POnumber] */\n              dup2\n              mstore\n              0x20\n              add\n              swap1\n              dup2\n              mstore\n              0x20\n              add\n              0x00\n              keccak256\n                /* \"Procure.sol\":12373:12398  POs[POnumber].distributor */\n              0x01\n              add\n              0x00\n              swap1\n              sload\n              swap1\n              0x0100\n              exp\n              swap1\n              div\n              0xffffffffffffffffffffffffffffffffffffffff\n              and\n                /* \"Procure.sol\":12373:12410  POs[POnumber].distributor==msg.sender */\n              0xffffffffffffffffffffffffffffffffffffffff\n              and\n              eq\n                /* \"Procure.sol\":12365:12460  require(POs[POnumber].distributor==msg.sender,\r... */\n              tag_25\n              jumpi\n              mload(0x40)\n              0x08c379a000000000000000000000000000000000000000000000000000000000\n              dup2\n              mstore\n              0x04\n              add\n              dup1\n              dup1\n              0x20\n              add\n              dup3\n              dup2\n              sub\n              dup3\n              mstore\n              0x1a\n              dup2\n              mstore\n              0x20\n              add\n              dup1\n              0x4469737472696275746f72206e6f7420617574686f72697a6564000000000000\n              dup2\n              mstore\n              pop\n              0x20\n              add\n              swap2\n              pop\n              pop\n              mload(0x40)\n              dup1\n              swap2\n              sub\n              swap1\n              revert\n            tag_25:\n                /* \"Procure.sol\":12505:12509  true */\n              0x01\n                /* \"Procure.sol\":12481:12484  POs */\n              dup1\n                /* \"Procure.sol\":12481:12494  POs[POnumber] */\n              0x00\n                /* \"Procure.sol\":12485:12493  POnumber */\n              dup4\n                /* \"Procure.sol\":12481:12494  POs[POnumber] */\n              dup2\n              mstore\n              0x20\n              add\n              swap1\n              dup2\n              mstore\n              0x20\n              add\n              0x00\n              keccak256\n                /* \"Procure.sol\":12481:12504  POs[POnumber].delivered */\n              0x01\n              add\n              0x14\n                /* \"Procure.sol\":12481:12509  POs[POnumber].delivered=true */\n              0x0100\n              exp\n              dup2\n              sload\n              dup2\n              0xff\n              mul\n              not\n              and\n              swap1\n              dup4\n              iszero\n              iszero\n              mul\n              or\n              swap1\n              sstore\n              pop\n                /* \"Procure.sol\":12525:12549  OrderDelivered(POnumber) */\n              0xe21fe02c1589242b30be2057f54fd54b7ddc463695d19ffdb54f9ebb0584f24a\n                /* \"Procure.sol\":12540:12548  POnumber */\n              dup2\n                /* \"Procure.sol\":12525:12549  OrderDelivered(POnumber) */\n              mload(0x40)\n              dup1\n              dup3\n              dup2\n              mstore\n              0x20\n              add\n              swap2\n              pop\n              pop\n              mload(0x40)\n              dup1\n              swap2\n              sub\n              swap1\n              log1\n                /* \"Procure.sol\":12295:12559  function deliverStatus(uint POnumber)public onlyDistributor{\r... */\n              pop\n              jump\t// out\n\n            auxdata: 0xa264697066735822122017bbe9eeca80553260d93dde304efd703812965341718ff9ab8319a5a9f6bfee64736f6c634300060c0033\n        }\n    }\n\n    sub_3: assembly {\n            /* \"Procure.sol\":6813:11153  contract PurchaseNegotiation{             // contract to negotiate price of goods to be purchased\r... */\n          mstore(0x40, 0x80)\n            /* \"Procure.sol\":8365:8716  constructor(address registrationAddress)public {\r... */\n          callvalue\n          dup1\n          iszero\n          tag_1\n          jumpi\n          0x00\n          dup1\n          revert\n        tag_1:\n          pop\n          mload(0x40)\n          sub(codesize, bytecodeSize)\n          dup1\n          bytecodeSize\n          dup4\n          codecopy\n          dup2\n          dup2\n          add\n          0x40\n          mstore\n          0x20\n          dup2\n          lt\n          iszero\n          tag_2\n          jumpi\n          0x00\n          dup1\n          revert\n        tag_2:\n          dup2\n          add\n          swap1\n          dup1\n          dup1\n          mload\n          swap1\n          0x20\n          add\n          swap1\n          swap3\n          swap2\n          swap1\n          pop\n          pop\n          pop\n            /* \"Procure.sol\":8457:8476  registrationAddress */\n          dup1\n            /* \"Procure.sol\":8423:8443  registrationContract */\n          0x00\n          dup1\n            /* \"Procure.sol\":8423:8477  registrationContract=Registration(registrationAddress) */\n          0x0100\n          exp\n          dup2\n          sload\n          dup2\n          0xffffffffffffffffffffffffffffffffffffffff\n          mul\n          not\n          and\n          swap1\n          dup4\n          0xffffffffffffffffffffffffffffffffffffffff\n          and\n          mul\n          or\n          swap1\n          sstore\n          pop\n            /* \"Procure.sol\":8565:8575  msg.sender */\n          caller\n            /* \"Procure.sol\":8576:8591  block.timestamp */\n          timestamp\n            /* \"Procure.sol\":8600:8604  this */\n          address\n            /* \"Procure.sol\":8548:8606  abi.encodePacked(msg.sender,block.timestamp,address(this)) */\n          add(0x20, mload(0x40))\n          dup1\n          dup5\n          0xffffffffffffffffffffffffffffffffffffffff\n          and\n          0x60\n          shl\n          dup2\n          mstore\n          0x14\n          add\n          dup4\n          dup2\n          mstore\n          0x20\n          add\n          dup3\n          0xffffffffffffffffffffffffffffffffffffffff\n          and\n          0x60\n          shl\n          dup2\n          mstore\n          0x14\n          add\n          swap4\n          pop\n          pop\n          pop\n          pop\n          mload(0x40)\n          0x20\n          dup2\n          dup4\n          sub\n          sub\n          dup2\n          mstore\n          swap1\n          0x40\n          mstore\n            /* \"Procure.sol\":8538:8607  keccak256(abi.encodePacked(msg.sender,block.timestamp,address(this))) */\n          dup1\n          mload\n          swap1\n          0x20\n          add\n          keccak256\n            /* \"Procure.sol\":8533:8608  uint(keccak256(abi.encodePacked(msg.sender,block.timestamp,address(this)))) */\n          0x00\n          shr\n            /* \"Procure.sol\":8515:8532  contractAddresses */\n          0x01\n            /* \"Procure.sol\":8515:8608  contractAddresses=uint(keccak256(abi.encodePacked(msg.sender,block.timestamp,address(this)))) */\n          dup2\n          swap1\n          sstore\n          pop\n            /* \"Procure.sol\":8365:8716  constructor(address registrationAddress)public {\r... */\n          pop\n            /* \"Procure.sol\":6813:11153  contract PurchaseNegotiation{             // contract to negotiate price of goods to be purchased\r... */\n          dataSize(sub_0)\n          dup1\n          dataOffset(sub_0)\n          0x00\n          codecopy\n          0x00\n          return\n        stop\n\n        sub_0: assembly {\n                /* \"Procure.sol\":6813:11153  contract PurchaseNegotiation{             // contract to negotiate price of goods to be purchased\r... */\n              mstore(0x40, 0x80)\n              callvalue\n              dup1\n              iszero\n              tag_1\n              jumpi\n              0x00\n              dup1\n              revert\n            tag_1:\n              pop\n              jumpi(tag_2, lt(calldatasize, 0x04))\n              shr(0xe0, calldataload(0x00))\n              dup1\n              0x474da79a\n              eq\n              tag_3\n              jumpi\n              dup1\n              0x53e8a550\n              eq\n              tag_4\n              jumpi\n              dup1\n              0xaa9a533f\n              eq\n              tag_5\n              jumpi\n              dup1\n              0xb866cf73\n              eq\n              tag_6\n              jumpi\n              dup1\n              0xe4662d86\n              eq\n              tag_7\n              jumpi\n              dup1\n              0xf5d25469\n              eq\n              tag_8\n              jumpi\n            tag_2:\n              0x00\n              dup1\n              revert\n                /* \"Procure.sol\":7611:7655  mapping(uint=>contractType) public contracts */\n            tag_3:\n              tag_9\n              0x04\n              dup1\n              calldatasize\n              sub\n              0x20\n              dup2\n              lt\n              iszero\n              tag_10\n              jumpi\n              0x00\n              dup1\n              revert\n            tag_10:\n              dup2\n              add\n              swap1\n              dup1\n              dup1\n              calldataload\n              swap1\n              0x20\n              add\n              swap1\n              swap3\n              swap2\n              swap1\n              pop\n              pop\n              pop\n              tag_11\n              jump\t// in\n            tag_9:\n              mload(0x40)\n              dup1\n              dup8\n              0xffffffffffffffffffffffffffffffffffffffff\n              and\n              dup2\n              mstore\n              0x20\n              add\n              dup7\n              0xffffffffffffffffffffffffffffffffffffffff\n              and\n              dup2\n              mstore\n              0x20\n              add\n              dup6\n              dup2\n              mstore\n              0x20\n              add\n              dup5\n              dup2\n              mstore\n              0x20\n              add\n              dup4\n              dup2\n              mstore\n              0x20\n              add\n              dup3\n              0x04\n              dup2\n              gt\n              iszero\n              tag_12\n              jumpi\n              invalid\n            tag_12:\n              dup2\n              mstore\n              0x20\n              add\n              swap7\n              pop\n              pop\n              pop\n              pop\n              pop\n              pop\n              pop\n              mload(0x40)\n              dup1\n              swap2\n              sub\n              swap1\n              return\n                /* \"Procure.sol\":7019:7048  uint public contractAddresses */\n            tag_4:\n              tag_13\n              tag_14\n              jump\t// in\n            tag_13:\n              mload(0x40)\n              dup1\n              dup3\n              dup2\n              mstore\n              0x20\n              add\n              swap2\n              pop\n              pop\n              mload(0x40)\n              dup1\n              swap2\n              sub\n              swap1\n              return\n                /* \"Procure.sol\":10680:11134  function assignDistributor(uint contractAddress, address distributor) public onlyGPO{\r... */\n            tag_5:\n              tag_15\n              0x04\n              dup1\n              calldatasize\n              sub\n              0x40\n              dup2\n              lt\n              iszero\n              tag_16\n              jumpi\n              0x00\n              dup1\n              revert\n            tag_16:\n              dup2\n              add\n              swap1\n              dup1\n              dup1\n              calldataload\n              swap1\n              0x20\n              add\n              swap1\n              swap3\n              swap2\n              swap1\n              dup1\n              calldataload\n              0xffffffffffffffffffffffffffffffffffffffff\n              and\n              swap1\n              0x20\n              add\n              swap1\n              swap3\n              swap2\n              swap1\n              pop\n              pop\n              pop\n              tag_17\n              jump\t// in\n            tag_15:\n              stop\n                /* \"Procure.sol\":9973:10573  function contractStatus(uint contractAddress, bool accepted) public onlyGPO{\r... */\n            tag_6:\n              tag_18\n              0x04\n              dup1\n              calldatasize\n              sub\n              0x40\n              dup2\n              lt\n              iszero\n              tag_19\n              jumpi\n              0x00\n              dup1\n              revert\n            tag_19:\n              dup2\n              add\n              swap1\n              dup1\n              dup1\n              calldataload\n              swap1\n              0x20\n              add\n              swap1\n              swap3\n              swap2\n              swap1\n              dup1\n              calldataload\n              iszero\n              iszero\n              swap1\n              0x20\n              add\n              swap1\n              swap3\n              swap2\n              swap1\n              pop\n              pop\n              pop\n              tag_20\n              jump\t// in\n            tag_18:\n              stop\n                /* \"Procure.sol\":8728:9341  function newContract(uint productID, uint quantity, address manufacturer) public onlyGPO {\r... */\n            tag_7:\n              tag_21\n              0x04\n              dup1\n              calldatasize\n              sub\n              0x60\n              dup2\n              lt\n              iszero\n              tag_22\n              jumpi\n              0x00\n              dup1\n              revert\n            tag_22:\n              dup2\n              add\n              swap1\n              dup1\n              dup1\n              calldataload\n              swap1\n              0x20\n              add\n              swap1\n              swap3\n              swap2\n              swap1\n              dup1\n              calldataload\n              swap1\n              0x20\n              add\n              swap1\n              swap3\n              swap2\n              swap1\n              dup1\n              calldataload\n              0xffffffffffffffffffffffffffffffffffffffff\n              and\n              swap1\n              0x20\n              add\n              swap1\n              swap3\n              swap2\n              swap1\n              pop\n              pop\n              pop\n              tag_23\n              jump\t// in\n            tag_21:\n              stop\n                /* \"Procure.sol\":9353:9965  function negotiateContract(uint contractAddress, uint newPrice) public onlyManufacturer{\r... */\n            tag_8:\n              tag_24\n              0x04\n              dup1\n              calldatasize\n              sub\n              0x40\n              dup2\n              lt\n              iszero\n              tag_25\n              jumpi\n              0x00\n              dup1\n              revert\n            tag_25:\n              dup2\n              add\n              swap1\n              dup1\n              dup1\n              calldataload\n              swap1\n              0x20\n              add\n              swap1\n              swap3\n              swap2\n              swap1\n              dup1\n              calldataload\n              swap1\n              0x20\n              add\n              swap1\n              swap3\n              swap2\n              swap1\n              pop\n              pop\n              pop\n              tag_26\n              jump\t// in\n            tag_24:\n              stop\n                /* \"Procure.sol\":7611:7655  mapping(uint=>contractType) public contracts */\n            tag_11:\n              mstore(0x20, 0x02)\n              dup1\n              0x00\n              mstore\n              keccak256(0x00, 0x40)\n              0x00\n              swap2\n              pop\n              swap1\n              pop\n              dup1\n              0x00\n              add\n              0x00\n              swap1\n              sload\n              swap1\n              0x0100\n              exp\n              swap1\n              div\n              0xffffffffffffffffffffffffffffffffffffffff\n              and\n              swap1\n              dup1\n              0x01\n              add\n              0x00\n              swap1\n              sload\n              swap1\n              0x0100\n              exp\n              swap1\n              div\n              0xffffffffffffffffffffffffffffffffffffffff\n              and\n              swap1\n              dup1\n              0x02\n              add\n              sload\n              swap1\n              dup1\n              0x03\n              add\n              sload\n              swap1\n              dup1\n              0x04\n              add\n              sload\n              swap1\n              dup1\n              0x05\n              add\n              0x00\n              swap1\n              sload\n              swap1\n              0x0100\n              exp\n              swap1\n              div\n              0xff\n              and\n              swap1\n              pop\n              dup7\n              jump\t// out\n                /* \"Procure.sol\":7019:7048  uint public contractAddresses */\n            tag_14:\n              sload(0x01)\n              dup2\n              jump\t// out\n                /* \"Procure.sol\":10680:11134  function assignDistributor(uint contractAddress, address distributor) public onlyGPO{\r... */\n            tag_17:\n                /* \"Procure.sol\":8084:8104  registrationContract */\n              0x00\n              dup1\n              sload\n              swap1\n              0x0100\n              exp\n              swap1\n              div\n              0xffffffffffffffffffffffffffffffffffffffff\n              and\n                /* \"Procure.sol\":8084:8110  registrationContract.isGPO */\n              0xffffffffffffffffffffffffffffffffffffffff\n              and\n              0x20fe4cff\n                /* \"Procure.sol\":8111:8121  msg.sender */\n              caller\n                /* \"Procure.sol\":8084:8122  registrationContract.isGPO(msg.sender) */\n              mload(0x40)\n              dup3\n              0xffffffff\n              and\n              0xe0\n              shl\n              dup2\n              mstore\n              0x04\n              add\n              dup1\n              dup3\n              0xffffffffffffffffffffffffffffffffffffffff\n              and\n              dup2\n              mstore\n              0x20\n              add\n              swap2\n              pop\n              pop\n              0x20\n              mload(0x40)\n              dup1\n              dup4\n              sub\n              dup2\n              dup7\n              dup1\n              extcodesize\n              iszero\n              dup1\n              iszero\n              tag_28\n              jumpi\n              0x00\n              dup1\n              revert\n            tag_28:\n              pop\n              gas\n              staticcall\n              iszero\n              dup1\n              iszero\n              tag_30\n              jumpi\n              returndatasize\n              0x00\n              dup1\n              returndatacopy\n              revert(0x00, returndatasize)\n            tag_30:\n              pop\n              pop\n              pop\n              pop\n              mload(0x40)\n              returndatasize\n              0x20\n              dup2\n              lt\n              iszero\n              tag_31\n              jumpi\n              0x00\n              dup1\n              revert\n            tag_31:\n              dup2\n              add\n              swap1\n              dup1\n              dup1\n              mload\n              swap1\n              0x20\n              add\n              swap1\n              swap3\n              swap2\n              swap1\n              pop\n              pop\n              pop\n                /* \"Procure.sol\":8076:8164  require(registrationContract.isGPO(msg.sender),\r... */\n              tag_32\n              jumpi\n              mload(0x40)\n              0x08c379a000000000000000000000000000000000000000000000000000000000\n              dup2\n              mstore\n              0x04\n              add\n              dup1\n              dup1\n              0x20\n              add\n              dup3\n              dup2\n              sub\n              dup3\n              mstore\n              0x16\n              dup2\n              mstore\n              0x20\n              add\n              dup1\n              0x53656e646572206e6f7420617574686f72697a65642e00000000000000000000\n              dup2\n              mstore\n              pop\n              0x20\n              add\n              swap2\n              pop\n              pop\n              mload(0x40)\n              dup1\n              swap2\n              sub\n              swap1\n              revert\n            tag_32:\n                /* \"Procure.sol\":10823:10844  status.PriceConfirmed */\n              0x02\n                /* \"Procure.sol\":10783:10844  contracts[contractAddress].orderStatus==status.PriceConfirmed */\n              0x04\n              dup2\n              gt\n              iszero\n              tag_34\n              jumpi\n              invalid\n            tag_34:\n                /* \"Procure.sol\":10783:10792  contracts */\n              0x02\n                /* \"Procure.sol\":10783:10809  contracts[contractAddress] */\n              0x00\n                /* \"Procure.sol\":10793:10808  contractAddress */\n              dup5\n                /* \"Procure.sol\":10783:10809  contracts[contractAddress] */\n              dup2\n              mstore\n              0x20\n              add\n              swap1\n              dup2\n              mstore\n              0x20\n              add\n              0x00\n              keccak256\n                /* \"Procure.sol\":10783:10821  contracts[contractAddress].orderStatus */\n              0x05\n              add\n              0x00\n              swap1\n              sload\n              swap1\n              0x0100\n              exp\n              swap1\n              div\n              0xff\n              and\n                /* \"Procure.sol\":10783:10844  contracts[contractAddress].orderStatus==status.PriceConfirmed */\n              0x04\n              dup2\n              gt\n              iszero\n              tag_35\n              jumpi\n              invalid\n            tag_35:\n              eq\n                /* \"Procure.sol\":10775:10891  require(contracts[contractAddress].orderStatus==status.PriceConfirmed,\r... */\n              tag_36\n              jumpi\n              mload(0x40)\n              0x08c379a000000000000000000000000000000000000000000000000000000000\n              dup2\n              mstore\n              0x04\n              add\n              dup1\n              dup1\n              0x20\n              add\n              dup3\n              dup2\n              sub\n              dup3\n              mstore\n              0x17\n              dup2\n              mstore\n              0x20\n              add\n              dup1\n              0x436f6e7472616374206e6f7420636f6e6669726d65642e000000000000000000\n              dup2\n              mstore\n              pop\n              0x20\n              add\n              swap2\n              pop\n              pop\n              mload(0x40)\n              dup1\n              swap2\n              sub\n              swap1\n              revert\n            tag_36:\n                /* \"Procure.sol\":10910:10930  registrationContract */\n              0x00\n              dup1\n              sload\n              swap1\n              0x0100\n              exp\n              swap1\n              div\n              0xffffffffffffffffffffffffffffffffffffffff\n              and\n                /* \"Procure.sol\":10910:10948  registrationContract.distributorExists */\n              0xffffffffffffffffffffffffffffffffffffffff\n              and\n              0x79ea51d4\n                /* \"Procure.sol\":10949:10960  distributor */\n              dup3\n                /* \"Procure.sol\":10910:10961  registrationContract.distributorExists(distributor) */\n              mload(0x40)\n              dup3\n              0xffffffff\n              and\n              0xe0\n              shl\n              dup2\n              mstore\n              0x04\n              add\n              dup1\n              dup3\n              0xffffffffffffffffffffffffffffffffffffffff\n              and\n              dup2\n              mstore\n              0x20\n              add\n              swap2\n              pop\n              pop\n              0x20\n              mload(0x40)\n              dup1\n              dup4\n              sub\n              dup2\n              dup7\n              dup1\n              extcodesize\n              iszero\n              dup1\n              iszero\n              tag_37\n              jumpi\n              0x00\n              dup1\n              revert\n            tag_37:\n              pop\n              gas\n              staticcall\n              iszero\n              dup1\n              iszero\n              tag_39\n              jumpi\n              returndatasize\n              0x00\n              dup1\n              returndatacopy\n              revert(0x00, returndatasize)\n            tag_39:\n              pop\n              pop\n              pop\n              pop\n              mload(0x40)\n              returndatasize\n              0x20\n              dup2\n              lt\n              iszero\n              tag_40\n              jumpi\n              0x00\n              dup1\n              revert\n            tag_40:\n              dup2\n              add\n              swap1\n              dup1\n              dup1\n              mload\n              swap1\n              0x20\n              add\n              swap1\n              swap3\n              swap2\n              swap1\n              pop\n              pop\n              pop\n                /* \"Procure.sol\":10902:11016  require(registrationContract.distributorExists(distributor),\r... */\n              tag_41\n              jumpi\n              mload(0x40)\n              0x08c379a000000000000000000000000000000000000000000000000000000000\n              dup2\n              mstore\n              0x04\n              add\n              dup1\n              dup1\n              0x20\n              add\n              dup3\n              dup2\n              sub\n              dup3\n              mstore\n              0x1f\n              dup2\n              mstore\n              0x20\n              add\n              dup1\n              0x4469737472696275746f7220616461646472657373206e6f742076616c696400\n              dup2\n              mstore\n              pop\n              0x20\n              add\n              swap2\n              pop\n              pop\n              mload(0x40)\n              dup1\n              swap2\n              sub\n              swap1\n              revert\n            tag_41:\n                /* \"Procure.sol\":11066:11077  distributor */\n              dup1\n                /* \"Procure.sol\":11027:11036  contracts */\n              0x02\n                /* \"Procure.sol\":11027:11053  contracts[contractAddress] */\n              0x00\n                /* \"Procure.sol\":11037:11052  contractAddress */\n              dup5\n                /* \"Procure.sol\":11027:11053  contracts[contractAddress] */\n              dup2\n              mstore\n              0x20\n              add\n              swap1\n              dup2\n              mstore\n              0x20\n              add\n              0x00\n              keccak256\n                /* \"Procure.sol\":11027:11065  contracts[contractAddress].distributor */\n              0x01\n              add\n              0x00\n                /* \"Procure.sol\":11027:11077  contracts[contractAddress].distributor=distributor */\n              0x0100\n              exp\n              dup2\n              sload\n              dup2\n              0xffffffffffffffffffffffffffffffffffffffff\n              mul\n              not\n              and\n              swap1\n              dup4\n              0xffffffffffffffffffffffffffffffffffffffff\n              and\n              mul\n              or\n              swap1\n              sstore\n              pop\n                /* \"Procure.sol\":11093:11124  ContractClosed(contractAddress) */\n              0xd79ef0d7f68df3d827e7c4b6a13ec4570e9a30515c4717bbaa647da58ca68be1\n                /* \"Procure.sol\":11108:11123  contractAddress */\n              dup3\n                /* \"Procure.sol\":11093:11124  ContractClosed(contractAddress) */\n              mload(0x40)\n              dup1\n              dup3\n              dup2\n              mstore\n              0x20\n              add\n              swap2\n              pop\n              pop\n              mload(0x40)\n              dup1\n              swap2\n              sub\n              swap1\n              log1\n                /* \"Procure.sol\":10680:11134  function assignDistributor(uint contractAddress, address distributor) public onlyGPO{\r... */\n              pop\n              pop\n              jump\t// out\n                /* \"Procure.sol\":9973:10573  function contractStatus(uint contractAddress, bool accepted) public onlyGPO{\r... */\n            tag_20:\n                /* \"Procure.sol\":8084:8104  registrationContract */\n              0x00\n              dup1\n              sload\n              swap1\n              0x0100\n              exp\n              swap1\n              div\n              0xffffffffffffffffffffffffffffffffffffffff\n              and\n                /* \"Procure.sol\":8084:8110  registrationContract.isGPO */\n              0xffffffffffffffffffffffffffffffffffffffff\n              and\n              0x20fe4cff\n                /* \"Procure.sol\":8111:8121  msg.sender */\n              caller\n                /* \"Procure.sol\":8084:8122  registrationContract.isGPO(msg.sender) */\n              mload(0x40)\n              dup3\n              0xffffffff\n              and\n              0xe0\n              shl\n              dup2\n              mstore\n              0x04\n              add\n              dup1\n              dup3\n              0xffffffffffffffffffffffffffffffffffffffff\n              and\n              dup2\n              mstore\n              0x20\n              add\n              swap2\n              pop\n              pop\n              0x20\n              mload(0x40)\n              dup1\n              dup4\n              sub\n              dup2\n              dup7\n              dup1\n              extcodesize\n              iszero\n              dup1\n              iszero\n              tag_43\n              jumpi\n              0x00\n              dup1\n              revert\n            tag_43:\n              pop\n              gas\n              staticcall\n              iszero\n              dup1\n              iszero\n              tag_45\n              jumpi\n              returndatasize\n              0x00\n              dup1\n              returndatacopy\n              revert(0x00, returndatasize)\n            tag_45:\n              pop\n              pop\n              pop\n              pop\n              mload(0x40)\n              returndatasize\n              0x20\n              dup2\n              lt\n              iszero\n              tag_46\n              jumpi\n              0x00\n              dup1\n              revert\n            tag_46:\n              dup2\n              add\n              swap1\n              dup1\n              dup1\n              mload\n              swap1\n              0x20\n              add\n              swap1\n              swap3\n              swap2\n              swap1\n              pop\n              pop\n              pop\n                /* \"Procure.sol\":8076:8164  require(registrationContract.isGPO(msg.sender),\r... */\n              tag_47\n              jumpi\n              mload(0x40)\n              0x08c379a000000000000000000000000000000000000000000000000000000000\n              dup2\n              mstore\n              0x04\n              add\n              dup1\n              dup1\n              0x20\n              add\n              dup3\n              dup2\n              sub\n              dup3\n              mstore\n              0x16\n              dup2\n              mstore\n              0x20\n              add\n              dup1\n              0x53656e646572206e6f7420617574686f72697a65642e00000000000000000000\n              dup2\n              mstore\n              pop\n              0x20\n              add\n              swap2\n              pop\n              pop\n              mload(0x40)\n              dup1\n              swap2\n              sub\n              swap1\n              revert\n            tag_47:\n                /* \"Procure.sol\":10107:10125  status.Negotiating */\n              0x01\n                /* \"Procure.sol\":10067:10125  contracts[contractAddress].orderStatus==status.Negotiating */\n              0x04\n              dup2\n              gt\n              iszero\n              tag_49\n              jumpi\n              invalid\n            tag_49:\n                /* \"Procure.sol\":10067:10076  contracts */\n              0x02\n                /* \"Procure.sol\":10067:10093  contracts[contractAddress] */\n              0x00\n                /* \"Procure.sol\":10077:10092  contractAddress */\n              dup5\n                /* \"Procure.sol\":10067:10093  contracts[contractAddress] */\n              dup2\n              mstore\n              0x20\n              add\n              swap1\n              dup2\n              mstore\n              0x20\n              add\n              0x00\n              keccak256\n                /* \"Procure.sol\":10067:10105  contracts[contractAddress].orderStatus */\n              0x05\n              add\n              0x00\n              swap1\n              sload\n              swap1\n              0x0100\n              exp\n              swap1\n              div\n              0xff\n              and\n                /* \"Procure.sol\":10067:10125  contracts[contractAddress].orderStatus==status.Negotiating */\n              0x04\n              dup2\n              gt\n              iszero\n              tag_50\n              jumpi\n              invalid\n            tag_50:\n              eq\n                /* \"Procure.sol\":10059:10194  require(contracts[contractAddress].orderStatus==status.Negotiating,\r... */\n              tag_51\n              jumpi\n              mload(0x40)\n              0x08c379a000000000000000000000000000000000000000000000000000000000\n              dup2\n              mstore\n              0x04\n              add\n              dup1\n              dup1\n              0x20\n              add\n              dup3\n              dup2\n              sub\n              dup3\n              mstore\n              0x2d\n              dup2\n              mstore\n              0x20\n              add\n              dup1\n              data_7ca2fc90c33a1a1c77ac301ff15a783eb6355585d21f8bb480c76f7705df448c\n              0x2d\n              swap2\n              codecopy\n              0x40\n              add\n              swap2\n              pop\n              pop\n              mload(0x40)\n              dup1\n              swap2\n              sub\n              swap1\n              revert\n            tag_51:\n                /* \"Procure.sol\":10208:10216  accepted */\n              dup1\n                /* \"Procure.sol\":10205:10566  if(accepted){\r... */\n              iszero\n              tag_52\n              jumpi\n                /* \"Procure.sol\":10271:10292  status.PriceConfirmed */\n              0x02\n                /* \"Procure.sol\":10232:10241  contracts */\n              dup1\n                /* \"Procure.sol\":10232:10258  contracts[contractAddress] */\n              0x00\n                /* \"Procure.sol\":10242:10257  contractAddress */\n              dup5\n                /* \"Procure.sol\":10232:10258  contracts[contractAddress] */\n              dup2\n              mstore\n              0x20\n              add\n              swap1\n              dup2\n              mstore\n              0x20\n              add\n              0x00\n              keccak256\n                /* \"Procure.sol\":10232:10270  contracts[contractAddress].orderStatus */\n              0x05\n              add\n              0x00\n                /* \"Procure.sol\":10232:10292  contracts[contractAddress].orderStatus=status.PriceConfirmed */\n              0x0100\n              exp\n              dup2\n              sload\n              dup2\n              0xff\n              mul\n              not\n              and\n              swap1\n              dup4\n              0x04\n              dup2\n              gt\n              iszero\n              tag_53\n              jumpi\n              invalid\n            tag_53:\n              mul\n              or\n              swap1\n              sstore\n              pop\n                /* \"Procure.sol\":10308:10454  ContractConfirmed(contractAddress, contracts[contractAddress].quantity, contracts[contractAddress].manufacturer, contracts[contractAddress].price) */\n              0xdcc3d52102da88c42cdba7590b58c66c6575977e09b624aeaf616dd03a0cb5e5\n                /* \"Procure.sol\":10326:10341  contractAddress */\n              dup3\n                /* \"Procure.sol\":10343:10352  contracts */\n              0x02\n                /* \"Procure.sol\":10343:10369  contracts[contractAddress] */\n              0x00\n                /* \"Procure.sol\":10353:10368  contractAddress */\n              dup6\n                /* \"Procure.sol\":10343:10369  contracts[contractAddress] */\n              dup2\n              mstore\n              0x20\n              add\n              swap1\n              dup2\n              mstore\n              0x20\n              add\n              0x00\n              keccak256\n                /* \"Procure.sol\":10343:10378  contracts[contractAddress].quantity */\n              0x03\n              add\n              sload\n                /* \"Procure.sol\":10380:10389  contracts */\n              0x02\n                /* \"Procure.sol\":10380:10406  contracts[contractAddress] */\n              0x00\n                /* \"Procure.sol\":10390:10405  contractAddress */\n              dup7\n                /* \"Procure.sol\":10380:10406  contracts[contractAddress] */\n              dup2\n              mstore\n              0x20\n              add\n              swap1\n              dup2\n              mstore\n              0x20\n              add\n              0x00\n              keccak256\n                /* \"Procure.sol\":10380:10419  contracts[contractAddress].manufacturer */\n              0x00\n              add\n              0x00\n              swap1\n              sload\n              swap1\n              0x0100\n              exp\n              swap1\n              div\n              0xffffffffffffffffffffffffffffffffffffffff\n              and\n                /* \"Procure.sol\":10421:10430  contracts */\n              0x02\n                /* \"Procure.sol\":10421:10447  contracts[contractAddress] */\n              0x00\n                /* \"Procure.sol\":10431:10446  contractAddress */\n              dup8\n                /* \"Procure.sol\":10421:10447  contracts[contractAddress] */\n              dup2\n              mstore\n              0x20\n              add\n              swap1\n              dup2\n              mstore\n              0x20\n              add\n              0x00\n              keccak256\n                /* \"Procure.sol\":10421:10453  contracts[contractAddress].price */\n              0x04\n              add\n              sload\n                /* \"Procure.sol\":10308:10454  ContractConfirmed(contractAddress, contracts[contractAddress].quantity, contracts[contractAddress].manufacturer, contracts[contractAddress].price) */\n              mload(0x40)\n              dup1\n              dup6\n              dup2\n              mstore\n              0x20\n              add\n              dup5\n              dup2\n              mstore\n              0x20\n              add\n              dup4\n              0xffffffffffffffffffffffffffffffffffffffff\n              and\n              dup2\n              mstore\n              0x20\n              add\n              dup3\n              dup2\n              mstore\n              0x20\n              add\n              swap5\n              pop\n              pop\n              pop\n              pop\n              pop\n              mload(0x40)\n              dup1\n              swap2\n              sub\n              swap1\n              log1\n                /* \"Procure.sol\":10205:10566  if(accepted){\r... */\n              jump(tag_54)\n            tag_52:\n                /* \"Procure.sol\":10534:10554  status.PriceRejected */\n              0x03\n                /* \"Procure.sol\":10495:10504  contracts */\n              0x02\n                /* \"Procure.sol\":10495:10521  contracts[contractAddress] */\n              0x00\n                /* \"Procure.sol\":10505:10520  contractAddress */\n              dup5\n                /* \"Procure.sol\":10495:10521  contracts[contractAddress] */\n              dup2\n              mstore\n              0x20\n              add\n              swap1\n              dup2\n              mstore\n              0x20\n              add\n              0x00\n              keccak256\n                /* \"Procure.sol\":10495:10533  contracts[contractAddress].orderStatus */\n              0x05\n              add\n              0x00\n                /* \"Procure.sol\":10495:10554  contracts[contractAddress].orderStatus=status.PriceRejected */\n              0x0100\n              exp\n              dup2\n              sload\n              dup2\n              0xff\n              mul\n              not\n              and\n              swap1\n              dup4\n              0x04\n              dup2\n              gt\n              iszero\n              tag_55\n              jumpi\n              invalid\n            tag_55:\n              mul\n              or\n              swap1\n              sstore\n              pop\n                /* \"Procure.sol\":10205:10566  if(accepted){\r... */\n            tag_54:\n                /* \"Procure.sol\":9973:10573  function contractStatus(uint contractAddress, bool accepted) public onlyGPO{\r... */\n              pop\n              pop\n              jump\t// out\n                /* \"Procure.sol\":8728:9341  function newContract(uint productID, uint quantity, address manufacturer) public onlyGPO {\r... */\n            tag_23:\n                /* \"Procure.sol\":8084:8104  registrationContract */\n              0x00\n              dup1\n              sload\n              swap1\n              0x0100\n              exp\n              swap1\n              div\n              0xffffffffffffffffffffffffffffffffffffffff\n              and\n                /* \"Procure.sol\":8084:8110  registrationContract.isGPO */\n              0xffffffffffffffffffffffffffffffffffffffff\n              and\n              0x20fe4cff\n                /* \"Procure.sol\":8111:8121  msg.sender */\n              caller\n                /* \"Procure.sol\":8084:8122  registrationContract.isGPO(msg.sender) */\n              mload(0x40)\n              dup3\n              0xffffffff\n              and\n              0xe0\n              shl\n              dup2\n              mstore\n              0x04\n              add\n              dup1\n              dup3\n              0xffffffffffffffffffffffffffffffffffffffff\n              and\n              dup2\n              mstore\n              0x20\n              add\n              swap2\n              pop\n              pop\n              0x20\n              mload(0x40)\n              dup1\n              dup4\n              sub\n              dup2\n              dup7\n              dup1\n              extcodesize\n              iszero\n              dup1\n              iszero\n              tag_57\n              jumpi\n              0x00\n              dup1\n              revert\n            tag_57:\n              pop\n              gas\n              staticcall\n              iszero\n              dup1\n              iszero\n              tag_59\n              jumpi\n              returndatasize\n              0x00\n              dup1\n              returndatacopy\n              revert(0x00, returndatasize)\n            tag_59:\n              pop\n              pop\n              pop\n              pop\n              mload(0x40)\n              returndatasize\n              0x20\n              dup2\n              lt\n              iszero\n              tag_60\n              jumpi\n              0x00\n              dup1\n              revert\n            tag_60:\n              dup2\n              add\n              swap1\n              dup1\n              dup1\n              mload\n              swap1\n              0x20\n              add\n              swap1\n              swap3\n              swap2\n              swap1\n              pop\n              pop\n              pop\n                /* \"Procure.sol\":8076:8164  require(registrationContract.isGPO(msg.sender),\r... */\n              tag_61\n              jumpi\n              mload(0x40)\n              0x08c379a000000000000000000000000000000000000000000000000000000000\n              dup2\n              mstore\n              0x04\n              add\n              dup1\n              dup1\n              0x20\n              add\n              dup3\n              dup2\n              sub\n              dup3\n              mstore\n              0x16\n              dup2\n              mstore\n              0x20\n              add\n              dup1\n              0x53656e646572206e6f7420617574686f72697a65642e00000000000000000000\n              dup2\n              mstore\n              pop\n              0x20\n              add\n              swap2\n              pop\n              pop\n              mload(0x40)\n              dup1\n              swap2\n              sub\n              swap1\n              revert\n            tag_61:\n                /* \"Procure.sol\":8836:8856  registrationContract */\n              0x00\n              dup1\n              sload\n              swap1\n              0x0100\n              exp\n              swap1\n              div\n              0xffffffffffffffffffffffffffffffffffffffff\n              and\n                /* \"Procure.sol\":8836:8875  registrationContract.manufacturerExists */\n              0xffffffffffffffffffffffffffffffffffffffff\n              and\n              0xe0acb7a3\n                /* \"Procure.sol\":8876:8888  manufacturer */\n              dup3\n                /* \"Procure.sol\":8836:8889  registrationContract.manufacturerExists(manufacturer) */\n              mload(0x40)\n              dup3\n              0xffffffff\n              and\n              0xe0\n              shl\n              dup2\n              mstore\n              0x04\n              add\n              dup1\n              dup3\n              0xffffffffffffffffffffffffffffffffffffffff\n              and\n              dup2\n              mstore\n              0x20\n              add\n              swap2\n              pop\n              pop\n              0x20\n              mload(0x40)\n              dup1\n              dup4\n              sub\n              dup2\n              dup7\n              dup1\n              extcodesize\n              iszero\n              dup1\n              iszero\n              tag_63\n              jumpi\n              0x00\n              dup1\n              revert\n            tag_63:\n              pop\n              gas\n              staticcall\n              iszero\n              dup1\n              iszero\n              tag_65\n              jumpi\n              returndatasize\n              0x00\n              dup1\n              returndatacopy\n              revert(0x00, returndatasize)\n            tag_65:\n              pop\n              pop\n              pop\n              pop\n              mload(0x40)\n              returndatasize\n              0x20\n              dup2\n              lt\n              iszero\n              tag_66\n              jumpi\n              0x00\n              dup1\n              revert\n            tag_66:\n              dup2\n              add\n              swap1\n              dup1\n              dup1\n              mload\n              swap1\n              0x20\n              add\n              swap1\n              swap3\n              swap2\n              swap1\n              pop\n              pop\n              pop\n                /* \"Procure.sol\":8828:8949  require(registrationContract.manufacturerExists(manufacturer),\r... */\n              tag_67\n              jumpi\n              mload(0x40)\n              0x08c379a000000000000000000000000000000000000000000000000000000000\n              dup2\n              mstore\n              0x04\n              add\n              dup1\n              dup1\n              0x20\n              add\n              dup3\n              dup2\n              sub\n              dup3\n              mstore\n              0x24\n              dup2\n              mstore\n              0x20\n              add\n              dup1\n              data_9fc63cd0775c3a2e90ae8f24d73b58e5ee0771779fb3f89de96c2fbdfb21f419\n              0x24\n              swap2\n              codecopy\n              0x40\n              add\n              swap2\n              pop\n              pop\n              mload(0x40)\n              dup1\n              swap2\n              sub\n              swap1\n              revert\n            tag_67:\n                /* \"Procure.sol\":8960:8977  contractAddresses */\n              0x01\n              0x00\n                /* \"Procure.sol\":8960:8979  contractAddresses++ */\n              dup2\n              sload\n              dup1\n              swap3\n              swap2\n              swap1\n              0x01\n              add\n              swap2\n              swap1\n              pop\n              sstore\n              pop\n                /* \"Procure.sol\":9087:9164  contractType(manufacturer,address(0),productID,quantity,0,status.NewContract) */\n              mload(0x40)\n              dup1\n              0xc0\n              add\n              0x40\n              mstore\n              dup1\n                /* \"Procure.sol\":9100:9112  manufacturer */\n              dup3\n                /* \"Procure.sol\":9087:9164  contractType(manufacturer,address(0),productID,quantity,0,status.NewContract) */\n              0xffffffffffffffffffffffffffffffffffffffff\n              and\n              dup2\n              mstore\n              0x20\n              add\n                /* \"Procure.sol\":9121:9122  0 */\n              0x00\n                /* \"Procure.sol\":9087:9164  contractType(manufacturer,address(0),productID,quantity,0,status.NewContract) */\n              0xffffffffffffffffffffffffffffffffffffffff\n              and\n              dup2\n              mstore\n              0x20\n              add\n                /* \"Procure.sol\":9124:9133  productID */\n              dup5\n                /* \"Procure.sol\":9087:9164  contractType(manufacturer,address(0),productID,quantity,0,status.NewContract) */\n              dup2\n              mstore\n              0x20\n              add\n                /* \"Procure.sol\":9134:9142  quantity */\n              dup4\n                /* \"Procure.sol\":9087:9164  contractType(manufacturer,address(0),productID,quantity,0,status.NewContract) */\n              dup2\n              mstore\n              0x20\n              add\n                /* \"Procure.sol\":9143:9144  0 */\n              0x00\n                /* \"Procure.sol\":9087:9164  contractType(manufacturer,address(0),productID,quantity,0,status.NewContract) */\n              dup2\n              mstore\n              0x20\n              add\n                /* \"Procure.sol\":9145:9163  status.NewContract */\n              0x00\n                /* \"Procure.sol\":9087:9164  contractType(manufacturer,address(0),productID,quantity,0,status.NewContract) */\n              0x04\n              dup2\n              gt\n              iszero\n              tag_68\n              jumpi\n              invalid\n            tag_68:\n              dup2\n              mstore\n              pop\n                /* \"Procure.sol\":9058:9067  contracts */\n              0x02\n                /* \"Procure.sol\":9058:9086  contracts[contractAddresses] */\n              0x00\n                /* \"Procure.sol\":9068:9085  contractAddresses */\n              sload(0x01)\n                /* \"Procure.sol\":9058:9086  contracts[contractAddresses] */\n              dup2\n              mstore\n              0x20\n              add\n              swap1\n              dup2\n              mstore\n              0x20\n              add\n              0x00\n              keccak256\n                /* \"Procure.sol\":9058:9164  contracts[contractAddresses]=contractType(manufacturer,address(0),productID,quantity,0,status.NewContract) */\n              0x00\n              dup3\n              add\n              mload\n              dup2\n              0x00\n              add\n              exp(0x0100, 0x00)\n              dup2\n              sload\n              dup2\n              0xffffffffffffffffffffffffffffffffffffffff\n              mul\n              not\n              and\n              swap1\n              dup4\n              0xffffffffffffffffffffffffffffffffffffffff\n              and\n              mul\n              or\n              swap1\n              sstore\n              pop\n              0x20\n              dup3\n              add\n              mload\n              dup2\n              0x01\n              add\n              exp(0x0100, 0x00)\n              dup2\n              sload\n              dup2\n              0xffffffffffffffffffffffffffffffffffffffff\n              mul\n              not\n              and\n              swap1\n              dup4\n              0xffffffffffffffffffffffffffffffffffffffff\n              and\n              mul\n              or\n              swap1\n              sstore\n              pop\n              0x40\n              dup3\n              add\n              mload\n              dup2\n              0x02\n              add\n              sstore\n              0x60\n              dup3\n              add\n              mload\n              dup2\n              0x03\n              add\n              sstore\n              0x80\n              dup3\n              add\n              mload\n              dup2\n              0x04\n              add\n              sstore\n              0xa0\n              dup3\n              add\n              mload\n              dup2\n              0x05\n              add\n              exp(0x0100, 0x00)\n              dup2\n              sload\n              dup2\n              0xff\n              mul\n              not\n              and\n              swap1\n              dup4\n              0x04\n              dup2\n              gt\n              iszero\n              tag_69\n              jumpi\n              invalid\n            tag_69:\n              mul\n              or\n              swap1\n              sstore\n              pop\n              swap1\n              pop\n              pop\n                /* \"Procure.sol\":9268:9331  NewContractPublished(contractAddresses, quantity, manufacturer) */\n              0x4aa6814792fc6dc032dac44dd1e4b2773d2d9ff868116534381eeca3ce58bdb5\n                /* \"Procure.sol\":9289:9306  contractAddresses */\n              sload(0x01)\n                /* \"Procure.sol\":9308:9316  quantity */\n              dup4\n                /* \"Procure.sol\":9318:9330  manufacturer */\n              dup4\n                /* \"Procure.sol\":9268:9331  NewContractPublished(contractAddresses, quantity, manufacturer) */\n              mload(0x40)\n              dup1\n              dup5\n              dup2\n              mstore\n              0x20\n              add\n              dup4\n              dup2\n              mstore\n              0x20\n              add\n              dup3\n              0xffffffffffffffffffffffffffffffffffffffff\n              and\n              dup2\n              mstore\n              0x20\n              add\n              swap4\n              pop\n              pop\n              pop\n              pop\n              mload(0x40)\n              dup1\n              swap2\n              sub\n              swap1\n              log1\n                /* \"Procure.sol\":8728:9341  function newContract(uint productID, uint quantity, address manufacturer) public onlyGPO {\r... */\n              pop\n              pop\n              pop\n              jump\t// out\n                /* \"Procure.sol\":9353:9965  function negotiateContract(uint contractAddress, uint newPrice) public onlyManufacturer{\r... */\n            tag_26:\n                /* \"Procure.sol\":8239:8259  registrationContract */\n              0x00\n              dup1\n              sload\n              swap1\n              0x0100\n              exp\n              swap1\n              div\n              0xffffffffffffffffffffffffffffffffffffffff\n              and\n                /* \"Procure.sol\":8239:8278  registrationContract.manufacturerExists */\n              0xffffffffffffffffffffffffffffffffffffffff\n              and\n              0xe0acb7a3\n                /* \"Procure.sol\":8279:8289  msg.sender */\n              caller\n                /* \"Procure.sol\":8239:8290  registrationContract.manufacturerExists(msg.sender) */\n              mload(0x40)\n              dup3\n              0xffffffff\n              and\n              0xe0\n              shl\n              dup2\n              mstore\n              0x04\n              add\n              dup1\n              dup3\n              0xffffffffffffffffffffffffffffffffffffffff\n              and\n              dup2\n              mstore\n              0x20\n              add\n              swap2\n              pop\n              pop\n              0x20\n              mload(0x40)\n              dup1\n              dup4\n              sub\n              dup2\n              dup7\n              dup1\n              extcodesize\n              iszero\n              dup1\n              iszero\n              tag_71\n              jumpi\n              0x00\n              dup1\n              revert\n            tag_71:\n              pop\n              gas\n              staticcall\n              iszero\n              dup1\n              iszero\n              tag_73\n              jumpi\n              returndatasize\n              0x00\n              dup1\n              returndatacopy\n              revert(0x00, returndatasize)\n            tag_73:\n              pop\n              pop\n              pop\n              pop\n              mload(0x40)\n              returndatasize\n              0x20\n              dup2\n              lt\n              iszero\n              tag_74\n              jumpi\n              0x00\n              dup1\n              revert\n            tag_74:\n              dup2\n              add\n              swap1\n              dup1\n              dup1\n              mload\n              swap1\n              0x20\n              add\n              swap1\n              swap3\n              swap2\n              swap1\n              pop\n              pop\n              pop\n                /* \"Procure.sol\":8231:8332  require(registrationContract.manufacturerExists(msg.sender),\r... */\n              tag_75\n              jumpi\n              mload(0x40)\n              0x08c379a000000000000000000000000000000000000000000000000000000000\n              dup2\n              mstore\n              0x04\n              add\n              dup1\n              dup1\n              0x20\n              add\n              dup3\n              dup2\n              sub\n              dup3\n              mstore\n              0x16\n              dup2\n              mstore\n              0x20\n              add\n              dup1\n              0x53656e646572206e6f7420617574686f72697a65642e00000000000000000000\n              dup2\n              mstore\n              pop\n              0x20\n              add\n              swap2\n              pop\n              pop\n              mload(0x40)\n              dup1\n              swap2\n              sub\n              swap1\n              revert\n            tag_75:\n                /* \"Procure.sol\":9499:9517  status.NewContract */\n              0x00\n                /* \"Procure.sol\":9459:9517  contracts[contractAddress].orderStatus==status.NewContract */\n              0x04\n              dup2\n              gt\n              iszero\n              tag_77\n              jumpi\n              invalid\n            tag_77:\n                /* \"Procure.sol\":9459:9468  contracts */\n              0x02\n                /* \"Procure.sol\":9459:9485  contracts[contractAddress] */\n              0x00\n                /* \"Procure.sol\":9469:9484  contractAddress */\n              dup5\n                /* \"Procure.sol\":9459:9485  contracts[contractAddress] */\n              dup2\n              mstore\n              0x20\n              add\n              swap1\n              dup2\n              mstore\n              0x20\n              add\n              0x00\n              keccak256\n                /* \"Procure.sol\":9459:9497  contracts[contractAddress].orderStatus */\n              0x05\n              add\n              0x00\n              swap1\n              sload\n              swap1\n              0x0100\n              exp\n              swap1\n              div\n              0xff\n              and\n                /* \"Procure.sol\":9459:9517  contracts[contractAddress].orderStatus==status.NewContract */\n              0x04\n              dup2\n              gt\n              iszero\n              tag_78\n              jumpi\n              invalid\n            tag_78:\n              eq\n                /* \"Procure.sol\":9459:9582  contracts[contractAddress].orderStatus==status.NewContract  || contracts[contractAddress].orderStatus==status.PriceRejected */\n              dup1\n              tag_79\n              jumpi\n              pop\n                /* \"Procure.sol\":9562:9582  status.PriceRejected */\n              0x03\n                /* \"Procure.sol\":9522:9582  contracts[contractAddress].orderStatus==status.PriceRejected */\n              0x04\n              dup2\n              gt\n              iszero\n              tag_80\n              jumpi\n              invalid\n            tag_80:\n                /* \"Procure.sol\":9522:9531  contracts */\n              0x02\n                /* \"Procure.sol\":9522:9548  contracts[contractAddress] */\n              0x00\n                /* \"Procure.sol\":9532:9547  contractAddress */\n              dup5\n                /* \"Procure.sol\":9522:9548  contracts[contractAddress] */\n              dup2\n              mstore\n              0x20\n              add\n              swap1\n              dup2\n              mstore\n              0x20\n              add\n              0x00\n              keccak256\n                /* \"Procure.sol\":9522:9560  contracts[contractAddress].orderStatus */\n              0x05\n              add\n              0x00\n              swap1\n              sload\n              swap1\n              0x0100\n              exp\n              swap1\n              div\n              0xff\n              and\n                /* \"Procure.sol\":9522:9582  contracts[contractAddress].orderStatus==status.PriceRejected */\n              0x04\n              dup2\n              gt\n              iszero\n              tag_81\n              jumpi\n              invalid\n            tag_81:\n              eq\n                /* \"Procure.sol\":9459:9582  contracts[contractAddress].orderStatus==status.NewContract  || contracts[contractAddress].orderStatus==status.PriceRejected */\n            tag_79:\n                /* \"Procure.sol\":9451:9651  require(contracts[contractAddress].orderStatus==status.NewContract  || contracts[contractAddress].orderStatus==status.PriceRejected,\r... */\n              tag_82\n              jumpi\n              mload(0x40)\n              0x08c379a000000000000000000000000000000000000000000000000000000000\n              dup2\n              mstore\n              0x04\n              add\n              dup1\n              dup1\n              0x20\n              add\n              dup3\n              dup2\n              sub\n              dup3\n              mstore\n              0x2d\n              dup2\n              mstore\n              0x20\n              add\n              dup1\n              data_7ca2fc90c33a1a1c77ac301ff15a783eb6355585d21f8bb480c76f7705df448c\n              0x2d\n              swap2\n              codecopy\n              0x40\n              add\n              swap2\n              pop\n              pop\n              mload(0x40)\n              dup1\n              swap2\n              sub\n              swap1\n              revert\n            tag_82:\n                /* \"Procure.sol\":9711:9721  msg.sender */\n              caller\n                /* \"Procure.sol\":9670:9721  contracts[contractAddress].manufacturer==msg.sender */\n              0xffffffffffffffffffffffffffffffffffffffff\n              and\n                /* \"Procure.sol\":9670:9679  contracts */\n              0x02\n                /* \"Procure.sol\":9670:9696  contracts[contractAddress] */\n              0x00\n                /* \"Procure.sol\":9680:9695  contractAddress */\n              dup5\n                /* \"Procure.sol\":9670:9696  contracts[contractAddress] */\n              dup2\n              mstore\n              0x20\n              add\n              swap1\n              dup2\n              mstore\n              0x20\n              add\n              0x00\n              keccak256\n                /* \"Procure.sol\":9670:9709  contracts[contractAddress].manufacturer */\n              0x00\n              add\n              0x00\n              swap1\n              sload\n              swap1\n              0x0100\n              exp\n              swap1\n              div\n              0xffffffffffffffffffffffffffffffffffffffff\n              and\n                /* \"Procure.sol\":9670:9721  contracts[contractAddress].manufacturer==msg.sender */\n              0xffffffffffffffffffffffffffffffffffffffff\n              and\n              eq\n                /* \"Procure.sol\":9662:9776  require(contracts[contractAddress].manufacturer==msg.sender,\r... */\n              tag_83\n              jumpi\n              mload(0x40)\n              0x08c379a000000000000000000000000000000000000000000000000000000000\n              dup2\n              mstore\n              0x04\n              add\n              dup1\n              dup1\n              0x20\n              add\n              dup3\n              dup2\n              sub\n              dup3\n              mstore\n              0x1b\n              dup2\n              mstore\n              0x20\n              add\n              dup1\n              0x4d616e756661637475726572206e6f7420617574686f72697a65640000000000\n              dup2\n              mstore\n              pop\n              0x20\n              add\n              swap2\n              pop\n              pop\n              mload(0x40)\n              dup1\n              swap2\n              sub\n              swap1\n              revert\n            tag_83:\n                /* \"Procure.sol\":9792:9835  PriceNegotiation(contractAddress, newPrice) */\n              0xc382ef700bf5db62b7270b2a6d0029b93c53f5fdd928b9e81615c604b9c451e0\n                /* \"Procure.sol\":9809:9824  contractAddress */\n              dup3\n                /* \"Procure.sol\":9826:9834  newPrice */\n              dup3\n                /* \"Procure.sol\":9792:9835  PriceNegotiation(contractAddress, newPrice) */\n              mload(0x40)\n              dup1\n              dup4\n              dup2\n              mstore\n              0x20\n              add\n              dup3\n              dup2\n              mstore\n              0x20\n              add\n              swap3\n              pop\n              pop\n              pop\n              mload(0x40)\n              dup1\n              swap2\n              sub\n              swap1\n              log1\n                /* \"Procure.sol\":9879:9887  newPrice */\n              dup1\n                /* \"Procure.sol\":9846:9855  contracts */\n              0x02\n                /* \"Procure.sol\":9846:9872  contracts[contractAddress] */\n              0x00\n                /* \"Procure.sol\":9856:9871  contractAddress */\n              dup5\n                /* \"Procure.sol\":9846:9872  contracts[contractAddress] */\n              dup2\n              mstore\n              0x20\n              add\n              swap1\n              dup2\n              mstore\n              0x20\n              add\n              0x00\n              keccak256\n                /* \"Procure.sol\":9846:9878  contracts[contractAddress].price */\n              0x04\n              add\n                /* \"Procure.sol\":9846:9887  contracts[contractAddress].price=newPrice */\n              dup2\n              swap1\n              sstore\n              pop\n                /* \"Procure.sol\":9937:9955  status.Negotiating */\n              0x01\n                /* \"Procure.sol\":9898:9907  contracts */\n              0x02\n                /* \"Procure.sol\":9898:9924  contracts[contractAddress] */\n              0x00\n                /* \"Procure.sol\":9908:9923  contractAddress */\n              dup5\n                /* \"Procure.sol\":9898:9924  contracts[contractAddress] */\n              dup2\n              mstore\n              0x20\n              add\n              swap1\n              dup2\n              mstore\n              0x20\n              add\n              0x00\n              keccak256\n                /* \"Procure.sol\":9898:9936  contracts[contractAddress].orderStatus */\n              0x05\n              add\n              0x00\n                /* \"Procure.sol\":9898:9955  contracts[contractAddress].orderStatus=status.Negotiating */\n              0x0100\n              exp\n              dup2\n              sload\n              dup2\n              0xff\n              mul\n              not\n              and\n              swap1\n              dup4\n              0x04\n              dup2\n              gt\n              iszero\n              tag_84\n              jumpi\n              invalid\n            tag_84:\n              mul\n              or\n              swap1\n              sstore\n              pop\n                /* \"Procure.sol\":9353:9965  function negotiateContract(uint contractAddress, uint newPrice) public onlyManufacturer{\r... */\n              pop\n              pop\n              jump\t// out\n            stop\n            data_7ca2fc90c33a1a1c77ac301ff15a783eb6355585d21f8bb480c76f7705df448c 436f6e7472616374206e6f7420617661696c61626c6520666f72207072696365206e65676f74696174696f6e2e\n            data_9fc63cd0775c3a2e90ae8f24d73b58e5ee0771779fb3f89de96c2fbdfb21f419 4d616e7566616374757265722061646472657373206e6f74207265636f676e697a65642e\n\n            auxdata: 0xa26469706673582212203291670d7a319b94296f46ed5a226d1a3a55ff6cd1559f340f5db0858829d90f64736f6c634300060c0033\n        }\n    }\n\n    sub_4: assembly {\n            /* \"Procure.sol\":14327:15057  contract LoyaltyRebates{            // contract for giving loyalty bonuses\r... */\n          mstore(0x40, 0x80)\n            /* \"Procure.sol\":14599:14729  constructor(address registrationAddress)public {\r... */\n          callvalue\n          dup1\n          iszero\n          tag_1\n          jumpi\n          0x00\n          dup1\n          revert\n        tag_1:\n          pop\n          mload(0x40)\n          sub(codesize, bytecodeSize)\n          dup1\n          bytecodeSize\n          dup4\n          codecopy\n          dup2\n          dup2\n          add\n          0x40\n          mstore\n          0x20\n          dup2\n          lt\n          iszero\n          tag_2\n          jumpi\n          0x00\n          dup1\n          revert\n        tag_2:\n          dup2\n          add\n          swap1\n          dup1\n          dup1\n          mload\n          swap1\n          0x20\n          add\n          swap1\n          swap3\n          swap2\n          swap1\n          pop\n          pop\n          pop\n            /* \"Procure.sol\":14691:14710  registrationAddress */\n          dup1\n            /* \"Procure.sol\":14657:14677  registrationContract */\n          0x00\n          dup1\n            /* \"Procure.sol\":14657:14711  registrationContract=Registration(registrationAddress) */\n          0x0100\n          exp\n          dup2\n          sload\n          dup2\n          0xffffffffffffffffffffffffffffffffffffffff\n          mul\n          not\n          and\n          swap1\n          dup4\n          0xffffffffffffffffffffffffffffffffffffffff\n          and\n          mul\n          or\n          swap1\n          sstore\n          pop\n            /* \"Procure.sol\":14599:14729  constructor(address registrationAddress)public {\r... */\n          pop\n            /* \"Procure.sol\":14327:15057  contract LoyaltyRebates{            // contract for giving loyalty bonuses\r... */\n          dataSize(sub_0)\n          dup1\n          dataOffset(sub_0)\n          0x00\n          codecopy\n          0x00\n          return\n        stop\n\n        sub_0: assembly {\n                /* \"Procure.sol\":14327:15057  contract LoyaltyRebates{            // contract for giving loyalty bonuses\r... */\n              mstore(0x40, 0x80)\n              jumpi(tag_1, lt(calldatasize, 0x04))\n              shr(0xe0, calldataload(0x00))\n              dup1\n              0x82a666d0\n              eq\n              tag_2\n              jumpi\n            tag_1:\n              0x00\n              dup1\n              revert\n                /* \"Procure.sol\":14741:15046  function sendLoyaltyRebate(address payable serviceProvider) payable public onlyGPO{\r... */\n            tag_2:\n              tag_3\n              0x04\n              dup1\n              calldatasize\n              sub\n              0x20\n              dup2\n              lt\n              iszero\n              tag_4\n              jumpi\n              0x00\n              dup1\n              revert\n            tag_4:\n              dup2\n              add\n              swap1\n              dup1\n              dup1\n              calldataload\n              0xffffffffffffffffffffffffffffffffffffffff\n              and\n              swap1\n              0x20\n              add\n              swap1\n              swap3\n              swap2\n              swap1\n              pop\n              pop\n              pop\n              tag_5\n              jump\t// in\n            tag_3:\n              stop\n            tag_5:\n                /* \"Procure.sol\":14486:14506  registrationContract */\n              0x00\n              dup1\n              sload\n              swap1\n              0x0100\n              exp\n              swap1\n              div\n              0xffffffffffffffffffffffffffffffffffffffff\n              and\n                /* \"Procure.sol\":14486:14512  registrationContract.isGPO */\n              0xffffffffffffffffffffffffffffffffffffffff\n              and\n              0x20fe4cff\n                /* \"Procure.sol\":14513:14523  msg.sender */\n              caller\n                /* \"Procure.sol\":14486:14524  registrationContract.isGPO(msg.sender) */\n              mload(0x40)\n              dup3\n              0xffffffff\n              and\n              0xe0\n              shl\n              dup2\n              mstore\n              0x04\n              add\n              dup1\n              dup3\n              0xffffffffffffffffffffffffffffffffffffffff\n              and\n              dup2\n              mstore\n              0x20\n              add\n              swap2\n              pop\n              pop\n              0x20\n              mload(0x40)\n              dup1\n              dup4\n              sub\n              dup2\n              dup7\n              dup1\n              extcodesize\n              iszero\n              dup1\n              iszero\n              tag_7\n              jumpi\n              0x00\n              dup1\n              revert\n            tag_7:\n              pop\n              gas\n              staticcall\n              iszero\n              dup1\n              iszero\n              tag_9\n              jumpi\n              returndatasize\n              0x00\n              dup1\n              returndatacopy\n              revert(0x00, returndatasize)\n            tag_9:\n              pop\n              pop\n              pop\n              pop\n              mload(0x40)\n              returndatasize\n              0x20\n              dup2\n              lt\n              iszero\n              tag_10\n              jumpi\n              0x00\n              dup1\n              revert\n            tag_10:\n              dup2\n              add\n              swap1\n              dup1\n              dup1\n              mload\n              swap1\n              0x20\n              add\n              swap1\n              swap3\n              swap2\n              swap1\n              pop\n              pop\n              pop\n                /* \"Procure.sol\":14478:14566  require(registrationContract.isGPO(msg.sender),\r... */\n              tag_11\n              jumpi\n              mload(0x40)\n              0x08c379a000000000000000000000000000000000000000000000000000000000\n              dup2\n              mstore\n              0x04\n              add\n              dup1\n              dup1\n              0x20\n              add\n              dup3\n              dup2\n              sub\n              dup3\n              mstore\n              0x16\n              dup2\n              mstore\n              0x20\n              add\n              dup1\n              0x53656e646572206e6f7420617574686f72697a65642e00000000000000000000\n              dup2\n              mstore\n              pop\n              0x20\n              add\n              swap2\n              pop\n              pop\n              mload(0x40)\n              dup1\n              swap2\n              sub\n              swap1\n              revert\n            tag_11:\n                /* \"Procure.sol\":14840:14860  registrationContract */\n              0x00\n              dup1\n              sload\n              swap1\n              0x0100\n              exp\n              swap1\n              div\n              0xffffffffffffffffffffffffffffffffffffffff\n              and\n                /* \"Procure.sol\":14840:14869  registrationContract.SPExists */\n              0xffffffffffffffffffffffffffffffffffffffff\n              and\n              0xf767c6e9\n                /* \"Procure.sol\":14870:14885  serviceProvider */\n              dup3\n                /* \"Procure.sol\":14840:14886  registrationContract.SPExists(serviceProvider) */\n              mload(0x40)\n              dup3\n              0xffffffff\n              and\n              0xe0\n              shl\n              dup2\n              mstore\n              0x04\n              add\n              dup1\n              dup3\n              0xffffffffffffffffffffffffffffffffffffffff\n              and\n              dup2\n              mstore\n              0x20\n              add\n              swap2\n              pop\n              pop\n              0x20\n              mload(0x40)\n              dup1\n              dup4\n              sub\n              dup2\n              dup7\n              dup1\n              extcodesize\n              iszero\n              dup1\n              iszero\n              tag_13\n              jumpi\n              0x00\n              dup1\n              revert\n            tag_13:\n              pop\n              gas\n              staticcall\n              iszero\n              dup1\n              iszero\n              tag_15\n              jumpi\n              returndatasize\n              0x00\n              dup1\n              returndatacopy\n              revert(0x00, returndatasize)\n            tag_15:\n              pop\n              pop\n              pop\n              pop\n              mload(0x40)\n              returndatasize\n              0x20\n              dup2\n              lt\n              iszero\n              tag_16\n              jumpi\n              0x00\n              dup1\n              revert\n            tag_16:\n              dup2\n              add\n              swap1\n              dup1\n              dup1\n              mload\n              swap1\n              0x20\n              add\n              swap1\n              swap3\n              swap2\n              swap1\n              pop\n              pop\n              pop\n                /* \"Procure.sol\":14832:14946  require(registrationContract.SPExists(serviceProvider),\r... */\n              tag_17\n              jumpi\n              mload(0x40)\n              0x08c379a000000000000000000000000000000000000000000000000000000000\n              dup2\n              mstore\n              0x04\n              add\n              dup1\n              dup1\n              0x20\n              add\n              dup3\n              dup2\n              sub\n              dup3\n              mstore\n              0x28\n              dup2\n              mstore\n              0x20\n              add\n              dup1\n              data_73721ffca6e5f634ad25a036dcff3fa93671d6a545a013ee02c6a6c58350fa85\n              0x28\n              swap2\n              codecopy\n              0x40\n              add\n              swap2\n              pop\n              pop\n              mload(0x40)\n              dup1\n              swap2\n              sub\n              swap1\n              revert\n            tag_17:\n                /* \"Procure.sol\":14958:14973  serviceProvider */\n              dup1\n                /* \"Procure.sol\":14958:14982  serviceProvider.transfer */\n              0xffffffffffffffffffffffffffffffffffffffff\n              and\n                /* \"Procure.sol\":14958:14993  serviceProvider.transfer(msg.value) */\n              0x08fc\n                /* \"Procure.sol\":14983:14992  msg.value */\n              callvalue\n                /* \"Procure.sol\":14958:14993  serviceProvider.transfer(msg.value) */\n              swap1\n              dup2\n              iszero\n              mul\n              swap1\n              mload(0x40)\n              0x00\n              mload(0x40)\n              dup1\n              dup4\n              sub\n              dup2\n              dup6\n              dup9\n              dup9\n              call\n              swap4\n              pop\n              pop\n              pop\n              pop\n              iszero\n              dup1\n              iszero\n              tag_19\n              jumpi\n              returndatasize\n              0x00\n              dup1\n              returndatacopy\n              revert(0x00, returndatasize)\n            tag_19:\n              pop\n                /* \"Procure.sol\":14741:15046  function sendLoyaltyRebate(address payable serviceProvider) payable public onlyGPO{\r... */\n              pop\n              jump\t// out\n            stop\n            data_73721ffca6e5f634ad25a036dcff3fa93671d6a545a013ee02c6a6c58350fa85 736572766963652070726f76696465722061646472657373206e6f74207265636f676e697a65642e\n\n            auxdata: 0xa26469706673582212202bb21568c21e8c459eec8eeba885e8f952f62fdfd31254a42d3447d4afaa727d64736f6c634300060c0033\n        }\n    }\n\n    auxdata: 0xa26469706673582212206e55895580683b5adcf6a21287b534fc69c7920788f708a4191da4f8cb63277064736f6c634300060c0033\n}\n","bytecode":{"linkReferences":{},"object":"608060405234801561001057600080fd5b50336000806101000a81548173ffffffffffffffffffffffffffffffffffffffff021916908373ffffffffffffffffffffffffffffffffffffffff160217905550614978806100606000396000f3fe608060405234801561001057600080fd5b50600436106100625760003560e01c80632578a72c14610067578063741f4ebc14610071578063a2e3a0d31461007b578063cdb0732d14610085578063d67c8f221461008f578063dc94ae5a14610099575b600080fd5b61006f610111565b005b6100796105d8565b005b610083610885565b005b61008d610d4c565b005b610097611213565b005b6100e5600480360360408110156100af57600080fd5b81019080803573ffffffffffffffffffffffffffffffffffffffff169060200190929190803590602001909291905050506116da565b604051808273ffffffffffffffffffffffffffffffffffffffff16815260200191505060405180910390f35b60011515600260003373ffffffffffffffffffffffffffffffffffffffff1673ffffffffffffffffffffffffffffffffffffffff16815260200190815260200160002060009054906101000a900460ff161515146101d7576040517f08c379a000000000000000000000000000000000000000000000000000000000815260040180806020018281038252601d8152602001807f53656e646572206e6f7420617574686f72697a65642061732047504f2e00000081525060200191505060405180910390fd5b600073ffffffffffffffffffffffffffffffffffffffff16600160003373ffffffffffffffffffffffffffffffffffffffff1673ffffffffffffffffffffffffffffffffffffffff16815260200190815260200160002060026005811061023a57fe5b0160009054906101000a900473ffffffffffffffffffffffffffffffffffffffff1673ffffffffffffffffffffffffffffffffffffffff1614156102e6576040517f08c379a000000000000000000000000000000000000000000000000000000000815260040180806020018281038252601f8152602001807f5075726368617365206f72646572206e6f74206465706c6f796564207965740081525060200191505060405180910390fd5b600073ffffffffffffffffffffffffffffffffffffffff16600160003373ffffffffffffffffffffffffffffffffffffffff1673ffffffffffffffffffffffffffffffffffffffff16815260200190815260200160002060036005811061034957fe5b0160009054906101000a900473ffffffffffffffffffffffffffffffffffffffff1673ffffffffffffffffffffffffffffffffffffffff16146103d7576040517f08c379a00000000000000000000000000000000000000000000000000000000081526004018080602001828103825260228152602001806149216022913960400191505060405180910390fd5b6000600160003373ffffffffffffffffffffffffffffffffffffffff1673ffffffffffffffffffffffffffffffffffffffff16815260200190815260200160002060006005811061042457fe5b0160009054906101000a900473ffffffffffffffffffffffffffffffffffffffff166040516104529061171c565b808273ffffffffffffffffffffffffffffffffffffffff168152602001915050604051809103906000f08015801561048e573d6000803e3d6000fd5b50905080600160003373ffffffffffffffffffffffffffffffffffffffff1673ffffffffffffffffffffffffffffffffffffffff1681526020019081526020016000206003600581106104dd57fe5b0160006101000a81548173ffffffffffffffffffffffffffffffffffffffff021916908373ffffffffffffffffffffffffffffffffffffffff1602179055507f7407654b69a9405f4efce3dec2fe6534f55afa5a8128df6e13077f825d35c9cb600160003373ffffffffffffffffffffffffffffffffffffffff1673ffffffffffffffffffffffffffffffffffffffff16815260200190815260200160002060036005811061058857fe5b0160009054906101000a900473ffffffffffffffffffffffffffffffffffffffff16604051808273ffffffffffffffffffffffffffffffffffffffff16815260200191505060405180910390a150565b600260003373ffffffffffffffffffffffffffffffffffffffff1673ffffffffffffffffffffffffffffffffffffffff16815260200190815260200160002060009054906101000a900460ff1615610698576040517f08c379a00000000000000000000000000000000000000000000000000000000081526004018080602001828103825260198152602001807f526567697374726174696f6e20646f6e6520616c72656164790000000000000081525060200191505060405180910390fd5b6000336040516106a790611729565b808273ffffffffffffffffffffffffffffffffffffffff168152602001915050604051809103906000f0801580156106e3573d6000803e3d6000fd5b50905080600160003373ffffffffffffffffffffffffffffffffffffffff1673ffffffffffffffffffffffffffffffffffffffff16815260200190815260200160002060006005811061073257fe5b0160006101000a81548173ffffffffffffffffffffffffffffffffffffffff021916908373ffffffffffffffffffffffffffffffffffffffff1602179055506001600260003373ffffffffffffffffffffffffffffffffffffffff1673ffffffffffffffffffffffffffffffffffffffff16815260200190815260200160002060006101000a81548160ff0219169083151502179055507f01d111c79619a9bb5b0e1dbf751a9792397cde25a781f02ecfaad0d3ea9b5b8d600160003373ffffffffffffffffffffffffffffffffffffffff1673ffffffffffffffffffffffffffffffffffffffff16815260200190815260200160002060006005811061083557fe5b0160009054906101000a900473ffffffffffffffffffffffffffffffffffffffff16604051808273ffffffffffffffffffffffffffffffffffffffff16815260200191505060405180910390a150565b60011515600260003373ffffffffffffffffffffffffffffffffffffffff1673ffffffffffffffffffffffffffffffffffffffff16815260200190815260200160002060009054906101000a900460ff1615151461094b576040517f08c379a000000000000000000000000000000000000000000000000000000000815260040180806020018281038252601d8152602001807f53656e646572206e6f7420617574686f72697a65642061732047504f2e00000081525060200191505060405180910390fd5b600073ffffffffffffffffffffffffffffffffffffffff16600160003373ffffffffffffffffffffffffffffffffffffffff1673ffffffffffffffffffffffffffffffffffffffff1681526020019081526020016000206001600581106109ae57fe5b0160009054906101000a900473ffffffffffffffffffffffffffffffffffffffff1673ffffffffffffffffffffffffffffffffffffffff161415610a3d576040517f08c379a00000000000000000000000000000000000000000000000000000000081526004018080602001828103825260258152602001806148fc6025913960400191505060405180910390fd5b600073ffffffffffffffffffffffffffffffffffffffff16600160003373ffffffffffffffffffffffffffffffffffffffff1673ffffffffffffffffffffffffffffffffffffffff168152602001908152602001600020600260058110610aa057fe5b0160009054906101000a900473ffffffffffffffffffffffffffffffffffffffff1673ffffffffffffffffffffffffffffffffffffffff1614610b4b576040517f08c379a000000000000000000000000000000000000000000000000000000000815260040180806020018281038252601f8152602001807f5075726368617365206f7264657220616c7265616479206465706c6f7965640081525060200191505060405180910390fd5b6000600160003373ffffffffffffffffffffffffffffffffffffffff1673ffffffffffffffffffffffffffffffffffffffff168152602001908152602001600020600060058110610b9857fe5b0160009054906101000a900473ffffffffffffffffffffffffffffffffffffffff16604051610bc690611736565b808273ffffffffffffffffffffffffffffffffffffffff168152602001915050604051809103906000f080158015610c02573d6000803e3d6000fd5b50905080600160003373ffffffffffffffffffffffffffffffffffffffff1673ffffffffffffffffffffffffffffffffffffffff168152602001908152602001600020600260058110610c5157fe5b0160006101000a81548173ffffffffffffffffffffffffffffffffffffffff021916908373ffffffffffffffffffffffffffffffffffffffff1602179055507f025454cb5abc7aed86cf5ffdef96c47b56358ad2a554d64ec1218c8b41808fb3600160003373ffffffffffffffffffffffffffffffffffffffff1673ffffffffffffffffffffffffffffffffffffffff168152602001908152602001600020600260058110610cfc57fe5b0160009054906101000a900473ffffffffffffffffffffffffffffffffffffffff16604051808273ffffffffffffffffffffffffffffffffffffffff16815260200191505060405180910390a150565b60011515600260003373ffffffffffffffffffffffffffffffffffffffff1673ffffffffffffffffffffffffffffffffffffffff16815260200190815260200160002060009054906101000a900460ff16151514610e12576040517f08c379a000000000000000000000000000000000000000000000000000000000815260040180806020018281038252601d8152602001807f53656e646572206e6f7420617574686f72697a65642061732047504f2e00000081525060200191505060405180910390fd5b600073ffffffffffffffffffffffffffffffffffffffff16600160003373ffffffffffffffffffffffffffffffffffffffff1673ffffffffffffffffffffffffffffffffffffffff168152602001908152602001600020600060058110610e7557fe5b0160009054906101000a900473ffffffffffffffffffffffffffffffffffffffff1673ffffffffffffffffffffffffffffffffffffffff161415610f21576040517f08c379a000000000000000000000000000000000000000000000000000000000815260040180806020018281038252601d8152602001807f526567697374726174696f6e206e6f74206465706c6f7965642079657400000081525060200191505060405180910390fd5b600073ffffffffffffffffffffffffffffffffffffffff16600160003373ffffffffffffffffffffffffffffffffffffffff1673ffffffffffffffffffffffffffffffffffffffff168152602001908152602001600020600160058110610f8457fe5b0160009054906101000a900473ffffffffffffffffffffffffffffffffffffffff1673ffffffffffffffffffffffffffffffffffffffff1614611012576040517f08c379a00000000000000000000000000000000000000000000000000000000081526004018080602001828103825260258152602001806148b56025913960400191505060405180910390fd5b6000600160003373ffffffffffffffffffffffffffffffffffffffff1673ffffffffffffffffffffffffffffffffffffffff16815260200190815260200160002060006005811061105f57fe5b0160009054906101000a900473ffffffffffffffffffffffffffffffffffffffff1660405161108d90611743565b808273ffffffffffffffffffffffffffffffffffffffff168152602001915050604051809103906000f0801580156110c9573d6000803e3d6000fd5b50905080600160003373ffffffffffffffffffffffffffffffffffffffff1673ffffffffffffffffffffffffffffffffffffffff16815260200190815260200160002060016005811061111857fe5b0160006101000a81548173ffffffffffffffffffffffffffffffffffffffff021916908373ffffffffffffffffffffffffffffffffffffffff1602179055507fe35e6e883f7c106483dd4dd186225f83a4dc00fe7b56dc82f726ad8d686237ae600160003373ffffffffffffffffffffffffffffffffffffffff1673ffffffffffffffffffffffffffffffffffffffff1681526020019081526020016000206001600581106111c357fe5b0160009054906101000a900473ffffffffffffffffffffffffffffffffffffffff16604051808273ffffffffffffffffffffffffffffffffffffffff16815260200191505060405180910390a150565b60011515600260003373ffffffffffffffffffffffffffffffffffffffff1673ffffffffffffffffffffffffffffffffffffffff16815260200190815260200160002060009054906101000a900460ff161515146112d9576040517f08c379a000000000000000000000000000000000000000000000000000000000815260040180806020018281038252601d8152602001807f53656e646572206e6f7420617574686f72697a65642061732047504f2e00000081525060200191505060405180910390fd5b600073ffffffffffffffffffffffffffffffffffffffff16600160003373ffffffffffffffffffffffffffffffffffffffff1673ffffffffffffffffffffffffffffffffffffffff16815260200190815260200160002060036005811061133c57fe5b0160009054906101000a900473ffffffffffffffffffffffffffffffffffffffff1673ffffffffffffffffffffffffffffffffffffffff1614156113cb576040517f08c379a00000000000000000000000000000000000000000000000000000000081526004018080602001828103825260228152602001806148da6022913960400191505060405180910390fd5b600073ffffffffffffffffffffffffffffffffffffffff16600160003373ffffffffffffffffffffffffffffffffffffffff1673ffffffffffffffffffffffffffffffffffffffff16815260200190815260200160002060046005811061142e57fe5b0160009054906101000a900473ffffffffffffffffffffffffffffffffffffffff1673ffffffffffffffffffffffffffffffffffffffff16146114d9576040517f08c379a00000000000000000000000000000000000000000000000000000000081526004018080602001828103825260188152602001807f4c6f79616c747920616c7265616479206465706c6f796564000000000000000081525060200191505060405180910390fd5b6000600160003373ffffffffffffffffffffffffffffffffffffffff1673ffffffffffffffffffffffffffffffffffffffff16815260200190815260200160002060006005811061152657fe5b0160009054906101000a900473ffffffffffffffffffffffffffffffffffffffff1660405161155490611750565b808273ffffffffffffffffffffffffffffffffffffffff168152602001915050604051809103906000f080158015611590573d6000803e3d6000fd5b50905080600160003373ffffffffffffffffffffffffffffffffffffffff1673ffffffffffffffffffffffffffffffffffffffff1681526020019081526020016000206004600581106115df57fe5b0160006101000a81548173ffffffffffffffffffffffffffffffffffffffff021916908373ffffffffffffffffffffffffffffffffffffffff1602179055507f2df6c62a3b6118b70c28b56566b9805dd99e413bd3d26be7aac5db7c19761a53600160003373ffffffffffffffffffffffffffffffffffffffff1673ffffffffffffffffffffffffffffffffffffffff16815260200190815260200160002060046005811061168a57fe5b0160009054906101000a900473ffffffffffffffffffffffffffffffffffffffff16604051808273ffffffffffffffffffffffffffffffffffffffff16815260200191505060405180910390a150565b600160205281600052604060002081600581106116f357fe5b016000915091509054906101000a900473ffffffffffffffffffffffffffffffffffffffff1681565b6107a58061175e83390190565b610c8380611f0383390190565b6106ad80612b8683390190565b6112948061323383390190565b6103ee806144c78339019056fe608060405234801561001057600080fd5b506040516107a53803806107a58339818101604052602081101561003357600080fd5b8101908080519060200190929190505050806000806101000a81548173ffffffffffffffffffffffffffffffffffffffff021916908373ffffffffffffffffffffffffffffffffffffffff16021790555050610711806100946000396000f3fe6080604052600436106100295760003560e01c80631fb8a38f1461002e578063f008b98b14610093575b600080fd5b34801561003a57600080fd5b506100916004803603606081101561005157600080fd5b810190808035906020019092919080359060200190929190803573ffffffffffffffffffffffffffffffffffffffff1690602001909291905050506100e1565b005b6100df600480360360408110156100a957600080fd5b8101908080359060200190929190803573ffffffffffffffffffffffffffffffffffffffff1690602001909291905050506103c4565b005b60008054906101000a900473ffffffffffffffffffffffffffffffffffffffff1673ffffffffffffffffffffffffffffffffffffffff166379ea51d4336040518263ffffffff1660e01b8152600401808273ffffffffffffffffffffffffffffffffffffffff16815260200191505060206040518083038186803b15801561016857600080fd5b505afa15801561017c573d6000803e3d6000fd5b505050506040513d602081101561019257600080fd5b8101908080519060200190929190505050610215576040517f08c379a00000000000000000000000000000000000000000000000000000000081526004018080602001828103825260168152602001807f53656e646572206e6f7420617574686f72697a65642e0000000000000000000081525060200191505060405180910390fd5b60008054906101000a900473ffffffffffffffffffffffffffffffffffffffff1673ffffffffffffffffffffffffffffffffffffffff1663e0acb7a3826040518263ffffffff1660e01b8152600401808273ffffffffffffffffffffffffffffffffffffffff16815260200191505060206040518083038186803b15801561029c57600080fd5b505afa1580156102b0573d6000803e3d6000fd5b505050506040513d60208110156102c657600080fd5b810190808051906020019092919050505061032c576040517f08c379a00000000000000000000000000000000000000000000000000000000081526004018080602001828103825260248152602001806106896024913960400191505060405180910390fd5b8160016000858152602001908152602001600020819055507f6b8b5414e3da4d8a3345869ba629fe05d1d64b5a7b75269a010b6e260aa92a1383338385604051808581526020018473ffffffffffffffffffffffffffffffffffffffff1681526020018373ffffffffffffffffffffffffffffffffffffffff16815260200182815260200194505050505060405180910390a1505050565b60008054906101000a900473ffffffffffffffffffffffffffffffffffffffff1673ffffffffffffffffffffffffffffffffffffffff1663e0acb7a3336040518263ffffffff1660e01b8152600401808273ffffffffffffffffffffffffffffffffffffffff16815260200191505060206040518083038186803b15801561044b57600080fd5b505afa15801561045f573d6000803e3d6000fd5b505050506040513d602081101561047557600080fd5b81019080805190602001909291905050506104f8576040517f08c379a00000000000000000000000000000000000000000000000000000000081526004018080602001828103825260168152602001807f53656e646572206e6f7420617574686f72697a65642e0000000000000000000081525060200191505060405180910390fd5b6000600160008481526020019081526020016000205411610564576040517f08c379a000000000000000000000000000000000000000000000000000000000815260040180806020018281038252602f8152602001806106ad602f913960400191505060405180910390fd5b60016000838152602001908152602001600020543410156105ed576040517f08c379a00000000000000000000000000000000000000000000000000000000081526004018080602001828103825260208152602001807f5472616e7366657272656420616d6f756e7420696e73756666696369656e742e81525060200191505060405180910390fd5b600060016000848152602001908152602001600020819055507fbecbbd7543b68baaaf7e9c3fd12e4719f1f506f4253abef4a6573d0adf3a73ed826040518082815260200191505060405180910390a18073ffffffffffffffffffffffffffffffffffffffff166108fc349081150290604051600060405180830381858888f19350505050158015610683573d6000803e3d6000fd5b50505056fe4d616e7566616374757265722061646472657373206e6f7420617574686f72697a65642e5265626174652072657175657374206e6f74207375626d697474656420666f72207468697320636f6e74726163742ea264697066735822122003a91ee635052d3d7b83679d486a25f8270ad97e3628e00e5da1598ad1b988d464736f6c634300060c0033608060405234801561001057600080fd5b50604051610c83380380610c838339818101604052602081101561003357600080fd5b8101908080519060200190929190505050806000806101000a81548173ffffffffffffffffffffffffffffffffffffffff021916908373ffffffffffffffffffffffffffffffffffffffff16021790555050610bef806100946000396000f3fe6080604052600436106100705760003560e01c8063d4fd04c71161004e578063d4fd04c714610194578063e0acb7a31461019e578063f767c6e914610205578063f769c6d01461026c57610070565b806320fe4cff1461007557806331ab0518146100dc57806379ea51d41461012d575b600080fd5b34801561008157600080fd5b506100c46004803603602081101561009857600080fd5b81019080803573ffffffffffffffffffffffffffffffffffffffff169060200190929190505050610276565b60405180821515815260200191505060405180910390f35b3480156100e857600080fd5b5061012b600480360360208110156100ff57600080fd5b81019080803573ffffffffffffffffffffffffffffffffffffffff1690602001909291905050506102cf565b005b34801561013957600080fd5b5061017c6004803603602081101561015057600080fd5b81019080803573ffffffffffffffffffffffffffffffffffffffff1690602001909291905050506105a4565b60405180821515815260200191505060405180910390f35b61019c6105fa565b005b3480156101aa57600080fd5b506101ed600480360360208110156101c157600080fd5b81019080803573ffffffffffffffffffffffffffffffffffffffff169060200190929190505050610883565b60405180821515815260200191505060405180910390f35b34801561021157600080fd5b506102546004803603602081101561022857600080fd5b81019080803573ffffffffffffffffffffffffffffffffffffffff1690602001909291905050506108d9565b60405180821515815260200191505060405180910390f35b61027461092f565b005b60008060009054906101000a900473ffffffffffffffffffffffffffffffffffffffff1673ffffffffffffffffffffffffffffffffffffffff168273ffffffffffffffffffffffffffffffffffffffff16149050919050565b60008054906101000a900473ffffffffffffffffffffffffffffffffffffffff1673ffffffffffffffffffffffffffffffffffffffff163373ffffffffffffffffffffffffffffffffffffffff1614610390576040517f08c379a00000000000000000000000000000000000000000000000000000000081526004018080602001828103825260168152602001807f53656e646572206e6f7420617574686f72697a65642e0000000000000000000081525060200191505060405180910390fd5b600160008273ffffffffffffffffffffffffffffffffffffffff1673ffffffffffffffffffffffffffffffffffffffff16815260200190815260200160002060009054906101000a900460ff161580156104345750600260008273ffffffffffffffffffffffffffffffffffffffff1673ffffffffffffffffffffffffffffffffffffffff16815260200190815260200160002060009054906101000a900460ff16155b801561048a5750600360008273ffffffffffffffffffffffffffffffffffffffff1673ffffffffffffffffffffffffffffffffffffffff16815260200190815260200160002060009054906101000a900460ff16155b6104fc576040517f08c379a00000000000000000000000000000000000000000000000000000000081526004018080602001828103825260148152602001807f4164647265737320616c7265616479207573656400000000000000000000000081525060200191505060405180910390fd5b6001600260008373ffffffffffffffffffffffffffffffffffffffff1673ffffffffffffffffffffffffffffffffffffffff16815260200190815260200160002060006101000a81548160ff0219169083151502179055507f3b2c2671a4556fca8f080b2c4469c9041a5019e2d24ddc37cfa48c95f542ac5581604051808273ffffffffffffffffffffffffffffffffffffffff16815260200191505060405180910390a150565b6000600260008373ffffffffffffffffffffffffffffffffffffffff1673ffffffffffffffffffffffffffffffffffffffff16815260200190815260200160002060009054906101000a900460ff169050919050565b600160003373ffffffffffffffffffffffffffffffffffffffff1673ffffffffffffffffffffffffffffffffffffffff16815260200190815260200160002060009054906101000a900460ff1615801561069e5750600260003373ffffffffffffffffffffffffffffffffffffffff1673ffffffffffffffffffffffffffffffffffffffff16815260200190815260200160002060009054906101000a900460ff16155b80156106f45750600360003373ffffffffffffffffffffffffffffffffffffffff1673ffffffffffffffffffffffffffffffffffffffff16815260200190815260200160002060009054906101000a900460ff16155b610766576040517f08c379a00000000000000000000000000000000000000000000000000000000081526004018080602001828103825260148152602001807f4164647265737320616c7265616479207573656400000000000000000000000081525060200191505060405180910390fd5b60013410156107dd576040517f08c379a000000000000000000000000000000000000000000000000000000000815260040180806020018281038252601a8152602001807f41646d697373696f6e2066656520696e73756666696369656e7400000000000081525060200191505060405180910390fd5b60018060003373ffffffffffffffffffffffffffffffffffffffff1673ffffffffffffffffffffffffffffffffffffffff16815260200190815260200160002060006101000a81548160ff0219169083151502179055507fa02022e57eb2e7ae40c00a3b394bec5819680c1ce2bf125655fb6d98dffdb8df33604051808273ffffffffffffffffffffffffffffffffffffffff16815260200191505060405180910390a1565b6000600160008373ffffffffffffffffffffffffffffffffffffffff1673ffffffffffffffffffffffffffffffffffffffff16815260200190815260200160002060009054906101000a900460ff169050919050565b6000600360008373ffffffffffffffffffffffffffffffffffffffff1673ffffffffffffffffffffffffffffffffffffffff16815260200190815260200160002060009054906101000a900460ff169050919050565b600160003373ffffffffffffffffffffffffffffffffffffffff1673ffffffffffffffffffffffffffffffffffffffff16815260200190815260200160002060009054906101000a900460ff161580156109d35750600260003373ffffffffffffffffffffffffffffffffffffffff1673ffffffffffffffffffffffffffffffffffffffff16815260200190815260200160002060009054906101000a900460ff16155b8015610a295750600360003373ffffffffffffffffffffffffffffffffffffffff1673ffffffffffffffffffffffffffffffffffffffff16815260200190815260200160002060009054906101000a900460ff16155b610a9b576040517f08c379a00000000000000000000000000000000000000000000000000000000081526004018080602001828103825260148152602001807f4164647265737320616c7265616479207573656400000000000000000000000081525060200191505060405180910390fd5b6001341015610b12576040517f08c379a000000000000000000000000000000000000000000000000000000000815260040180806020018281038252601a8152602001807f41646d697373696f6e2066656520696e73756666696369656e7400000000000081525060200191505060405180910390fd5b6001600360003373ffffffffffffffffffffffffffffffffffffffff1673ffffffffffffffffffffffffffffffffffffffff16815260200190815260200160002060006101000a81548160ff0219169083151502179055507f41360fc84c3f602746dd7837265b2cc28103ca5d89b494aea5fe33f549ddcb7a33604051808273ffffffffffffffffffffffffffffffffffffffff16815260200191505060405180910390a156fea26469706673582212202c92b8496c40ba463024a89a907877a697dafb50c3fd8346e048eed4239d5e0764736f6c634300060c0033608060405234801561001057600080fd5b506040516106ad3803806106ad8339818101604052602081101561003357600080fd5b8101908080519060200190929190505050806000806101000a81548173ffffffffffffffffffffffffffffffffffffffff021916908373ffffffffffffffffffffffffffffffffffffffff16021790555050610619806100946000396000f3fe608060405234801561001057600080fd5b50600436106100365760003560e01c806301efba231461003b5780631d2c78f414610089575b600080fd5b6100876004803603604081101561005157600080fd5b8101908080359060200190929190803573ffffffffffffffffffffffffffffffffffffffff1690602001909291905050506100b7565b005b6100b56004803603602081101561009f57600080fd5b8101908080359060200190929190505050610370565b005b60008054906101000a900473ffffffffffffffffffffffffffffffffffffffff1673ffffffffffffffffffffffffffffffffffffffff1663f767c6e9336040518263ffffffff1660e01b8152600401808273ffffffffffffffffffffffffffffffffffffffff16815260200191505060206040518083038186803b15801561013e57600080fd5b505afa158015610152573d6000803e3d6000fd5b505050506040513d602081101561016857600080fd5b81019080805190602001909291905050506101eb576040517f08c379a00000000000000000000000000000000000000000000000000000000081526004018080602001828103825260168152602001807f53656e646572206e6f7420617574686f72697a65642e0000000000000000000081525060200191505060405180910390fd5b60405180606001604052803373ffffffffffffffffffffffffffffffffffffffff1681526020018273ffffffffffffffffffffffffffffffffffffffff168152602001600015158152506001600084815260200190815260200160002060008201518160000160006101000a81548173ffffffffffffffffffffffffffffffffffffffff021916908373ffffffffffffffffffffffffffffffffffffffff16021790555060208201518160010160006101000a81548173ffffffffffffffffffffffffffffffffffffffff021916908373ffffffffffffffffffffffffffffffffffffffff16021790555060408201518160010160146101000a81548160ff0219169083151502179055509050507f8d740f86cf4d186f81b02d3740c671fb7ada67a8329869b5c274cb22d1fe6eeb823383604051808481526020018373ffffffffffffffffffffffffffffffffffffffff1681526020018273ffffffffffffffffffffffffffffffffffffffff168152602001935050505060405180910390a15050565b60008054906101000a900473ffffffffffffffffffffffffffffffffffffffff1673ffffffffffffffffffffffffffffffffffffffff166379ea51d4336040518263ffffffff1660e01b8152600401808273ffffffffffffffffffffffffffffffffffffffff16815260200191505060206040518083038186803b1580156103f757600080fd5b505afa15801561040b573d6000803e3d6000fd5b505050506040513d602081101561042157600080fd5b81019080805190602001909291905050506104a4576040517f08c379a00000000000000000000000000000000000000000000000000000000081526004018080602001828103825260168152602001807f53656e646572206e6f7420617574686f72697a65642e0000000000000000000081525060200191505060405180910390fd5b3373ffffffffffffffffffffffffffffffffffffffff166001600083815260200190815260200160002060010160009054906101000a900473ffffffffffffffffffffffffffffffffffffffff1673ffffffffffffffffffffffffffffffffffffffff161461057b576040517f08c379a000000000000000000000000000000000000000000000000000000000815260040180806020018281038252601a8152602001807f4469737472696275746f72206e6f7420617574686f72697a656400000000000081525060200191505060405180910390fd5b600180600083815260200190815260200160002060010160146101000a81548160ff0219169083151502179055507fe21fe02c1589242b30be2057f54fd54b7ddc463695d19ffdb54f9ebb0584f24a816040518082815260200191505060405180910390a15056fea264697066735822122017bbe9eeca80553260d93dde304efd703812965341718ff9ab8319a5a9f6bfee64736f6c634300060c0033608060405234801561001057600080fd5b506040516112943803806112948339818101604052602081101561003357600080fd5b8101908080519060200190929190505050806000806101000a81548173ffffffffffffffffffffffffffffffffffffffff021916908373ffffffffffffffffffffffffffffffffffffffff160217905550334230604051602001808473ffffffffffffffffffffffffffffffffffffffff1660601b81526014018381526020018273ffffffffffffffffffffffffffffffffffffffff1660601b815260140193505050506040516020818303038152906040528051906020012060001c6001819055505061118e806101066000396000f3fe608060405234801561001057600080fd5b50600436106100625760003560e01c8063474da79a1461006757806353e8a55014610103578063aa9a533f14610121578063b866cf731461016f578063e4662d86146101a9578063f5d2546914610201575b600080fd5b6100936004803603602081101561007d57600080fd5b8101908080359060200190929190505050610239565b604051808773ffffffffffffffffffffffffffffffffffffffff1681526020018673ffffffffffffffffffffffffffffffffffffffff1681526020018581526020018481526020018381526020018260048111156100ed57fe5b8152602001965050505050505060405180910390f35b61010b6102c2565b6040518082815260200191505060405180910390f35b61016d6004803603604081101561013757600080fd5b8101908080359060200190929190803573ffffffffffffffffffffffffffffffffffffffff1690602001909291905050506102c8565b005b6101a76004803603604081101561018557600080fd5b810190808035906020019092919080351515906020019092919050505061066f565b005b6101ff600480360360608110156101bf57600080fd5b810190808035906020019092919080359060200190929190803573ffffffffffffffffffffffffffffffffffffffff16906020019092919050505061097b565b005b6102376004803603604081101561021757600080fd5b810190808035906020019092919080359060200190929190505050610d90565b005b60026020528060005260406000206000915090508060000160009054906101000a900473ffffffffffffffffffffffffffffffffffffffff16908060010160009054906101000a900473ffffffffffffffffffffffffffffffffffffffff16908060020154908060030154908060040154908060050160009054906101000a900460ff16905086565b60015481565b60008054906101000a900473ffffffffffffffffffffffffffffffffffffffff1673ffffffffffffffffffffffffffffffffffffffff166320fe4cff336040518263ffffffff1660e01b8152600401808273ffffffffffffffffffffffffffffffffffffffff16815260200191505060206040518083038186803b15801561034f57600080fd5b505afa158015610363573d6000803e3d6000fd5b505050506040513d602081101561037957600080fd5b81019080805190602001909291905050506103fc576040517f08c379a00000000000000000000000000000000000000000000000000000000081526004018080602001828103825260168152602001807f53656e646572206e6f7420617574686f72697a65642e0000000000000000000081525060200191505060405180910390fd5b6002600481111561040957fe5b6002600084815260200190815260200160002060050160009054906101000a900460ff16600481111561043857fe5b146104ab576040517f08c379a00000000000000000000000000000000000000000000000000000000081526004018080602001828103825260178152602001807f436f6e7472616374206e6f7420636f6e6669726d65642e00000000000000000081525060200191505060405180910390fd5b60008054906101000a900473ffffffffffffffffffffffffffffffffffffffff1673ffffffffffffffffffffffffffffffffffffffff166379ea51d4826040518263ffffffff1660e01b8152600401808273ffffffffffffffffffffffffffffffffffffffff16815260200191505060206040518083038186803b15801561053257600080fd5b505afa158015610546573d6000803e3d6000fd5b505050506040513d602081101561055c57600080fd5b81019080805190602001909291905050506105df576040517f08c379a000000000000000000000000000000000000000000000000000000000815260040180806020018281038252601f8152602001807f4469737472696275746f7220616461646472657373206e6f742076616c69640081525060200191505060405180910390fd5b806002600084815260200190815260200160002060010160006101000a81548173ffffffffffffffffffffffffffffffffffffffff021916908373ffffffffffffffffffffffffffffffffffffffff1602179055507fd79ef0d7f68df3d827e7c4b6a13ec4570e9a30515c4717bbaa647da58ca68be1826040518082815260200191505060405180910390a15050565b60008054906101000a900473ffffffffffffffffffffffffffffffffffffffff1673ffffffffffffffffffffffffffffffffffffffff166320fe4cff336040518263ffffffff1660e01b8152600401808273ffffffffffffffffffffffffffffffffffffffff16815260200191505060206040518083038186803b1580156106f657600080fd5b505afa15801561070a573d6000803e3d6000fd5b505050506040513d602081101561072057600080fd5b81019080805190602001909291905050506107a3576040517f08c379a00000000000000000000000000000000000000000000000000000000081526004018080602001828103825260168152602001807f53656e646572206e6f7420617574686f72697a65642e0000000000000000000081525060200191505060405180910390fd5b600160048111156107b057fe5b6002600084815260200190815260200160002060050160009054906101000a900460ff1660048111156107df57fe5b14610835576040517f08c379a000000000000000000000000000000000000000000000000000000000815260040180806020018281038252602d815260200180611108602d913960400191505060405180910390fd5b801561093e57600280600084815260200190815260200160002060050160006101000a81548160ff0219169083600481111561086d57fe5b02179055507fdcc3d52102da88c42cdba7590b58c66c6575977e09b624aeaf616dd03a0cb5e58260026000858152602001908152602001600020600301546002600086815260200190815260200160002060000160009054906101000a900473ffffffffffffffffffffffffffffffffffffffff166002600087815260200190815260200160002060040154604051808581526020018481526020018373ffffffffffffffffffffffffffffffffffffffff16815260200182815260200194505050505060405180910390a1610977565b60036002600084815260200190815260200160002060050160006101000a81548160ff0219169083600481111561097157fe5b02179055505b5050565b60008054906101000a900473ffffffffffffffffffffffffffffffffffffffff1673ffffffffffffffffffffffffffffffffffffffff166320fe4cff336040518263ffffffff1660e01b8152600401808273ffffffffffffffffffffffffffffffffffffffff16815260200191505060206040518083038186803b158015610a0257600080fd5b505afa158015610a16573d6000803e3d6000fd5b505050506040513d6020811015610a2c57600080fd5b8101908080519060200190929190505050610aaf576040517f08c379a00000000000000000000000000000000000000000000000000000000081526004018080602001828103825260168152602001807f53656e646572206e6f7420617574686f72697a65642e0000000000000000000081525060200191505060405180910390fd5b60008054906101000a900473ffffffffffffffffffffffffffffffffffffffff1673ffffffffffffffffffffffffffffffffffffffff1663e0acb7a3826040518263ffffffff1660e01b8152600401808273ffffffffffffffffffffffffffffffffffffffff16815260200191505060206040518083038186803b158015610b3657600080fd5b505afa158015610b4a573d6000803e3d6000fd5b505050506040513d6020811015610b6057600080fd5b8101908080519060200190929190505050610bc6576040517f08c379a00000000000000000000000000000000000000000000000000000000081526004018080602001828103825260248152602001806111356024913960400191505060405180910390fd5b6001600081548092919060010191905055506040518060c001604052808273ffffffffffffffffffffffffffffffffffffffff168152602001600073ffffffffffffffffffffffffffffffffffffffff1681526020018481526020018381526020016000815260200160006004811115610c3c57fe5b81525060026000600154815260200190815260200160002060008201518160000160006101000a81548173ffffffffffffffffffffffffffffffffffffffff021916908373ffffffffffffffffffffffffffffffffffffffff16021790555060208201518160010160006101000a81548173ffffffffffffffffffffffffffffffffffffffff021916908373ffffffffffffffffffffffffffffffffffffffff16021790555060408201518160020155606082015181600301556080820151816004015560a08201518160050160006101000a81548160ff02191690836004811115610d2457fe5b02179055509050507f4aa6814792fc6dc032dac44dd1e4b2773d2d9ff868116534381eeca3ce58bdb56001548383604051808481526020018381526020018273ffffffffffffffffffffffffffffffffffffffff168152602001935050505060405180910390a1505050565b60008054906101000a900473ffffffffffffffffffffffffffffffffffffffff1673ffffffffffffffffffffffffffffffffffffffff1663e0acb7a3336040518263ffffffff1660e01b8152600401808273ffffffffffffffffffffffffffffffffffffffff16815260200191505060206040518083038186803b158015610e1757600080fd5b505afa158015610e2b573d6000803e3d6000fd5b505050506040513d6020811015610e4157600080fd5b8101908080519060200190929190505050610ec4576040517f08c379a00000000000000000000000000000000000000000000000000000000081526004018080602001828103825260168152602001807f53656e646572206e6f7420617574686f72697a65642e0000000000000000000081525060200191505060405180910390fd5b60006004811115610ed157fe5b6002600084815260200190815260200160002060050160009054906101000a900460ff166004811115610f0057fe5b1480610f45575060036004811115610f1457fe5b6002600084815260200190815260200160002060050160009054906101000a900460ff166004811115610f4357fe5b145b610f9a576040517f08c379a000000000000000000000000000000000000000000000000000000000815260040180806020018281038252602d815260200180611108602d913960400191505060405180910390fd5b3373ffffffffffffffffffffffffffffffffffffffff166002600084815260200190815260200160002060000160009054906101000a900473ffffffffffffffffffffffffffffffffffffffff1673ffffffffffffffffffffffffffffffffffffffff1614611071576040517f08c379a000000000000000000000000000000000000000000000000000000000815260040180806020018281038252601b8152602001807f4d616e756661637475726572206e6f7420617574686f72697a6564000000000081525060200191505060405180910390fd5b7fc382ef700bf5db62b7270b2a6d0029b93c53f5fdd928b9e81615c604b9c451e08282604051808381526020018281526020019250505060405180910390a180600260008481526020019081526020016000206004018190555060016002600084815260200190815260200160002060050160006101000a81548160ff021916908360048111156110fe57fe5b0217905550505056fe436f6e7472616374206e6f7420617661696c61626c6520666f72207072696365206e65676f74696174696f6e2e4d616e7566616374757265722061646472657373206e6f74207265636f676e697a65642ea26469706673582212203291670d7a319b94296f46ed5a226d1a3a55ff6cd1559f340f5db0858829d90f64736f6c634300060c0033608060405234801561001057600080fd5b506040516103ee3803806103ee8339818101604052602081101561003357600080fd5b8101908080519060200190929190505050806000806101000a81548173ffffffffffffffffffffffffffffffffffffffff021916908373ffffffffffffffffffffffffffffffffffffffff1602179055505061035a806100946000396000f3fe60806040526004361061001e5760003560e01c806382a666d014610023575b600080fd5b6100656004803603602081101561003957600080fd5b81019080803573ffffffffffffffffffffffffffffffffffffffff169060200190929190505050610067565b005b60008054906101000a900473ffffffffffffffffffffffffffffffffffffffff1673ffffffffffffffffffffffffffffffffffffffff166320fe4cff336040518263ffffffff1660e01b8152600401808273ffffffffffffffffffffffffffffffffffffffff16815260200191505060206040518083038186803b1580156100ee57600080fd5b505afa158015610102573d6000803e3d6000fd5b505050506040513d602081101561011857600080fd5b810190808051906020019092919050505061019b576040517f08c379a00000000000000000000000000000000000000000000000000000000081526004018080602001828103825260168152602001807f53656e646572206e6f7420617574686f72697a65642e0000000000000000000081525060200191505060405180910390fd5b60008054906101000a900473ffffffffffffffffffffffffffffffffffffffff1673ffffffffffffffffffffffffffffffffffffffff1663f767c6e9826040518263ffffffff1660e01b8152600401808273ffffffffffffffffffffffffffffffffffffffff16815260200191505060206040518083038186803b15801561022257600080fd5b505afa158015610236573d6000803e3d6000fd5b505050506040513d602081101561024c57600080fd5b81019080805190602001909291905050506102b2576040517f08c379a00000000000000000000000000000000000000000000000000000000081526004018080602001828103825260288152602001806102fd6028913960400191505060405180910390fd5b8073ffffffffffffffffffffffffffffffffffffffff166108fc349081150290604051600060405180830381858888f193505050501580156102f8573d6000803e3d6000fd5b505056fe736572766963652070726f76696465722061646472657373206e6f74207265636f676e697a65642ea26469706673582212202bb21568c21e8c459eec8eeba885e8f952f62fdfd31254a42d3447d4afaa727d64736f6c634300060c00335075726368617365206e65676f74696174696f6e20616c7265616479206465706c6f79656452656261746520736574746c656d656e74206e6f74206465706c6f796564207965745075726368617365206e65676f74696174696f6e206e6f74206465706c6f7965642079657452656261746520736574746c656d656e7420616c7265616479206465706c6f796564a26469706673582212206e55895580683b5adcf6a21287b534fc69c7920788f708a4191da4f8cb63277064736f6c634300060c0033","opcodes":"PUSH1 0x80 PUSH1 0x40 MSTORE CALLVALUE DUP1 ISZERO PUSH2 0x10 JUMPI PUSH1 0x0 DUP1 REVERT JUMPDEST POP CALLER PUSH1 0x0 DUP1 PUSH2 0x100 EXP DUP2 SLOAD DUP2 PUSH20 0xFFFFFFFFFFFFFFFFFFFFFFFFFFFFFFFFFFFFFFFF MUL NOT AND SWAP1 DUP4 PUSH20 0xFFFFFFFFFFFFFFFFFFFFFFFFFFFFFFFFFFFFFFFF AND MUL OR SWAP1 SSTORE POP PUSH2 0x4978 DUP1 PUSH2 0x60 PUSH1 0x0 CODECOPY PUSH1 0x0 RETURN INVALID PUSH1 0x80 PUSH1 0x40 MSTORE CALLVALUE DUP1 ISZERO PUSH2 0x10 JUMPI PUSH1 0x0 DUP1 REVERT JUMPDEST POP PUSH1 0x4 CALLDATASIZE LT PUSH2 0x62 JUMPI PUSH1 0x0 CALLDATALOAD PUSH1 0xE0 SHR DUP1 PUSH4 0x2578A72C EQ PUSH2 0x67 JUMPI DUP1 PUSH4 0x741F4EBC EQ PUSH2 0x71 JUMPI DUP1 PUSH4 0xA2E3A0D3 EQ PUSH2 0x7B JUMPI DUP1 PUSH4 0xCDB0732D EQ PUSH2 0x85 JUMPI DUP1 PUSH4 0xD67C8F22 EQ PUSH2 0x8F JUMPI DUP1 PUSH4 0xDC94AE5A EQ PUSH2 0x99 JUMPI JUMPDEST PUSH1 0x0 DUP1 REVERT JUMPDEST PUSH2 0x6F PUSH2 0x111 JUMP JUMPDEST STOP JUMPDEST PUSH2 0x79 PUSH2 0x5D8 JUMP JUMPDEST STOP JUMPDEST PUSH2 0x83 PUSH2 0x885 JUMP JUMPDEST STOP JUMPDEST PUSH2 0x8D PUSH2 0xD4C JUMP JUMPDEST STOP JUMPDEST PUSH2 0x97 PUSH2 0x1213 JUMP JUMPDEST STOP JUMPDEST PUSH2 0xE5 PUSH1 0x4 DUP1 CALLDATASIZE SUB PUSH1 0x40 DUP2 LT ISZERO PUSH2 0xAF JUMPI PUSH1 0x0 DUP1 REVERT JUMPDEST DUP2 ADD SWAP1 DUP1 DUP1 CALLDATALOAD PUSH20 0xFFFFFFFFFFFFFFFFFFFFFFFFFFFFFFFFFFFFFFFF AND SWAP1 PUSH1 0x20 ADD SWAP1 SWAP3 SWAP2 SWAP1 DUP1 CALLDATALOAD SWAP1 PUSH1 0x20 ADD SWAP1 SWAP3 SWAP2 SWAP1 POP POP POP PUSH2 0x16DA JUMP JUMPDEST PUSH1 0x40 MLOAD DUP1 DUP3 PUSH20 0xFFFFFFFFFFFFFFFFFFFFFFFFFFFFFFFFFFFFFFFF AND DUP2 MSTORE PUSH1 0x20 ADD SWAP2 POP POP PUSH1 0x40 MLOAD DUP1 SWAP2 SUB SWAP1 RETURN JUMPDEST PUSH1 0x1 ISZERO ISZERO PUSH1 0x2 PUSH1 0x0 CALLER PUSH20 0xFFFFFFFFFFFFFFFFFFFFFFFFFFFFFFFFFFFFFFFF AND PUSH20 0xFFFFFFFFFFFFFFFFFFFFFFFFFFFFFFFFFFFFFFFF AND DUP2 MSTORE PUSH1 0x20 ADD SWAP1 DUP2 MSTORE PUSH1 0x20 ADD PUSH1 0x0 KECCAK256 PUSH1 0x0 SWAP1 SLOAD SWAP1 PUSH2 0x100 EXP SWAP1 DIV PUSH1 0xFF AND ISZERO ISZERO EQ PUSH2 0x1D7 JUMPI PUSH1 0x40 MLOAD PUSH32 0x8C379A000000000000000000000000000000000000000000000000000000000 DUP2 MSTORE PUSH1 0x4 ADD DUP1 DUP1 PUSH1 0x20 ADD DUP3 DUP2 SUB DUP3 MSTORE PUSH1 0x1D DUP2 MSTORE PUSH1 0x20 ADD DUP1 PUSH32 0x53656E646572206E6F7420617574686F72697A65642061732047504F2E000000 DUP2 MSTORE POP PUSH1 0x20 ADD SWAP2 POP POP PUSH1 0x40 MLOAD DUP1 SWAP2 SUB SWAP1 REVERT JUMPDEST PUSH1 0x0 PUSH20 0xFFFFFFFFFFFFFFFFFFFFFFFFFFFFFFFFFFFFFFFF AND PUSH1 0x1 PUSH1 0x0 CALLER PUSH20 0xFFFFFFFFFFFFFFFFFFFFFFFFFFFFFFFFFFFFFFFF AND PUSH20 0xFFFFFFFFFFFFFFFFFFFFFFFFFFFFFFFFFFFFFFFF AND DUP2 MSTORE PUSH1 0x20 ADD SWAP1 DUP2 MSTORE PUSH1 0x20 ADD PUSH1 0x0 KECCAK256 PUSH1 0x2 PUSH1 0x5 DUP2 LT PUSH2 0x23A JUMPI INVALID JUMPDEST ADD PUSH1 0x0 SWAP1 SLOAD SWAP1 PUSH2 0x100 EXP SWAP1 DIV PUSH20 0xFFFFFFFFFFFFFFFFFFFFFFFFFFFFFFFFFFFFFFFF AND PUSH20 0xFFFFFFFFFFFFFFFFFFFFFFFFFFFFFFFFFFFFFFFF AND EQ ISZERO PUSH2 0x2E6 JUMPI PUSH1 0x40 MLOAD PUSH32 0x8C379A000000000000000000000000000000000000000000000000000000000 DUP2 MSTORE PUSH1 0x4 ADD DUP1 DUP1 PUSH1 0x20 ADD DUP3 DUP2 SUB DUP3 MSTORE PUSH1 0x1F DUP2 MSTORE PUSH1 0x20 ADD DUP1 PUSH32 0x5075726368617365206F72646572206E6F74206465706C6F7965642079657400 DUP2 MSTORE POP PUSH1 0x20 ADD SWAP2 POP POP PUSH1 0x40 MLOAD DUP1 SWAP2 SUB SWAP1 REVERT JUMPDEST PUSH1 0x0 PUSH20 0xFFFFFFFFFFFFFFFFFFFFFFFFFFFFFFFFFFFFFFFF AND PUSH1 0x1 PUSH1 0x0 CALLER PUSH20 0xFFFFFFFFFFFFFFFFFFFFFFFFFFFFFFFFFFFFFFFF AND PUSH20 0xFFFFFFFFFFFFFFFFFFFFFFFFFFFFFFFFFFFFFFFF AND DUP2 MSTORE PUSH1 0x20 ADD SWAP1 DUP2 MSTORE PUSH1 0x20 ADD PUSH1 0x0 KECCAK256 PUSH1 0x3 PUSH1 0x5 DUP2 LT PUSH2 0x349 JUMPI INVALID JUMPDEST ADD PUSH1 0x0 SWAP1 SLOAD SWAP1 PUSH2 0x100 EXP SWAP1 DIV PUSH20 0xFFFFFFFFFFFFFFFFFFFFFFFFFFFFFFFFFFFFFFFF AND PUSH20 0xFFFFFFFFFFFFFFFFFFFFFFFFFFFFFFFFFFFFFFFF AND EQ PUSH2 0x3D7 JUMPI PUSH1 0x40 MLOAD PUSH32 0x8C379A000000000000000000000000000000000000000000000000000000000 DUP2 MSTORE PUSH1 0x4 ADD DUP1 DUP1 PUSH1 0x20 ADD DUP3 DUP2 SUB DUP3 MSTORE PUSH1 0x22 DUP2 MSTORE PUSH1 0x20 ADD DUP1 PUSH2 0x4921 PUSH1 0x22 SWAP2 CODECOPY PUSH1 0x40 ADD SWAP2 POP POP PUSH1 0x40 MLOAD DUP1 SWAP2 SUB SWAP1 REVERT JUMPDEST PUSH1 0x0 PUSH1 0x1 PUSH1 0x0 CALLER PUSH20 0xFFFFFFFFFFFFFFFFFFFFFFFFFFFFFFFFFFFFFFFF AND PUSH20 0xFFFFFFFFFFFFFFFFFFFFFFFFFFFFFFFFFFFFFFFF AND DUP2 MSTORE PUSH1 0x20 ADD SWAP1 DUP2 MSTORE PUSH1 0x20 ADD PUSH1 0x0 KECCAK256 PUSH1 0x0 PUSH1 0x5 DUP2 LT PUSH2 0x424 JUMPI INVALID JUMPDEST ADD PUSH1 0x0 SWAP1 SLOAD SWAP1 PUSH2 0x100 EXP SWAP1 DIV PUSH20 0xFFFFFFFFFFFFFFFFFFFFFFFFFFFFFFFFFFFFFFFF AND PUSH1 0x40 MLOAD PUSH2 0x452 SWAP1 PUSH2 0x171C JUMP JUMPDEST DUP1 DUP3 PUSH20 0xFFFFFFFFFFFFFFFFFFFFFFFFFFFFFFFFFFFFFFFF AND DUP2 MSTORE PUSH1 0x20 ADD SWAP2 POP POP PUSH1 0x40 MLOAD DUP1 SWAP2 SUB SWAP1 PUSH1 0x0 CREATE DUP1 ISZERO DUP1 ISZERO PUSH2 0x48E JUMPI RETURNDATASIZE PUSH1 0x0 DUP1 RETURNDATACOPY RETURNDATASIZE PUSH1 0x0 REVERT JUMPDEST POP SWAP1 POP DUP1 PUSH1 0x1 PUSH1 0x0 CALLER PUSH20 0xFFFFFFFFFFFFFFFFFFFFFFFFFFFFFFFFFFFFFFFF AND PUSH20 0xFFFFFFFFFFFFFFFFFFFFFFFFFFFFFFFFFFFFFFFF AND DUP2 MSTORE PUSH1 0x20 ADD SWAP1 DUP2 MSTORE PUSH1 0x20 ADD PUSH1 0x0 KECCAK256 PUSH1 0x3 PUSH1 0x5 DUP2 LT PUSH2 0x4DD JUMPI INVALID JUMPDEST ADD PUSH1 0x0 PUSH2 0x100 EXP DUP2 SLOAD DUP2 PUSH20 0xFFFFFFFFFFFFFFFFFFFFFFFFFFFFFFFFFFFFFFFF MUL NOT AND SWAP1 DUP4 PUSH20 0xFFFFFFFFFFFFFFFFFFFFFFFFFFFFFFFFFFFFFFFF AND MUL OR SWAP1 SSTORE POP PUSH32 0x7407654B69A9405F4EFCE3DEC2FE6534F55AFA5A8128DF6E13077F825D35C9CB PUSH1 0x1 PUSH1 0x0 CALLER PUSH20 0xFFFFFFFFFFFFFFFFFFFFFFFFFFFFFFFFFFFFFFFF AND PUSH20 0xFFFFFFFFFFFFFFFFFFFFFFFFFFFFFFFFFFFFFFFF AND DUP2 MSTORE PUSH1 0x20 ADD SWAP1 DUP2 MSTORE PUSH1 0x20 ADD PUSH1 0x0 KECCAK256 PUSH1 0x3 PUSH1 0x5 DUP2 LT PUSH2 0x588 JUMPI INVALID JUMPDEST ADD PUSH1 0x0 SWAP1 SLOAD SWAP1 PUSH2 0x100 EXP SWAP1 DIV PUSH20 0xFFFFFFFFFFFFFFFFFFFFFFFFFFFFFFFFFFFFFFFF AND PUSH1 0x40 MLOAD DUP1 DUP3 PUSH20 0xFFFFFFFFFFFFFFFFFFFFFFFFFFFFFFFFFFFFFFFF AND DUP2 MSTORE PUSH1 0x20 ADD SWAP2 POP POP PUSH1 0x40 MLOAD DUP1 SWAP2 SUB SWAP1 LOG1 POP JUMP JUMPDEST PUSH1 0x2 PUSH1 0x0 CALLER PUSH20 0xFFFFFFFFFFFFFFFFFFFFFFFFFFFFFFFFFFFFFFFF AND PUSH20 0xFFFFFFFFFFFFFFFFFFFFFFFFFFFFFFFFFFFFFFFF AND DUP2 MSTORE PUSH1 0x20 ADD SWAP1 DUP2 MSTORE PUSH1 0x20 ADD PUSH1 0x0 KECCAK256 PUSH1 0x0 SWAP1 SLOAD SWAP1 PUSH2 0x100 EXP SWAP1 DIV PUSH1 0xFF AND ISZERO PUSH2 0x698 JUMPI PUSH1 0x40 MLOAD PUSH32 0x8C379A000000000000000000000000000000000000000000000000000000000 DUP2 MSTORE PUSH1 0x4 ADD DUP1 DUP1 PUSH1 0x20 ADD DUP3 DUP2 SUB DUP3 MSTORE PUSH1 0x19 DUP2 MSTORE PUSH1 0x20 ADD DUP1 PUSH32 0x526567697374726174696F6E20646F6E6520616C726561647900000000000000 DUP2 MSTORE POP PUSH1 0x20 ADD SWAP2 POP POP PUSH1 0x40 MLOAD DUP1 SWAP2 SUB SWAP1 REVERT JUMPDEST PUSH1 0x0 CALLER PUSH1 0x40 MLOAD PUSH2 0x6A7 SWAP1 PUSH2 0x1729 JUMP JUMPDEST DUP1 DUP3 PUSH20 0xFFFFFFFFFFFFFFFFFFFFFFFFFFFFFFFFFFFFFFFF AND DUP2 MSTORE PUSH1 0x20 ADD SWAP2 POP POP PUSH1 0x40 MLOAD DUP1 SWAP2 SUB SWAP1 PUSH1 0x0 CREATE DUP1 ISZERO DUP1 ISZERO PUSH2 0x6E3 JUMPI RETURNDATASIZE PUSH1 0x0 DUP1 RETURNDATACOPY RETURNDATASIZE PUSH1 0x0 REVERT JUMPDEST POP SWAP1 POP DUP1 PUSH1 0x1 PUSH1 0x0 CALLER PUSH20 0xFFFFFFFFFFFFFFFFFFFFFFFFFFFFFFFFFFFFFFFF AND PUSH20 0xFFFFFFFFFFFFFFFFFFFFFFFFFFFFFFFFFFFFFFFF AND DUP2 MSTORE PUSH1 0x20 ADD SWAP1 DUP2 MSTORE PUSH1 0x20 ADD PUSH1 0x0 KECCAK256 PUSH1 0x0 PUSH1 0x5 DUP2 LT PUSH2 0x732 JUMPI INVALID JUMPDEST ADD PUSH1 0x0 PUSH2 0x100 EXP DUP2 SLOAD DUP2 PUSH20 0xFFFFFFFFFFFFFFFFFFFFFFFFFFFFFFFFFFFFFFFF MUL NOT AND SWAP1 DUP4 PUSH20 0xFFFFFFFFFFFFFFFFFFFFFFFFFFFFFFFFFFFFFFFF AND MUL OR SWAP1 SSTORE POP PUSH1 0x1 PUSH1 0x2 PUSH1 0x0 CALLER PUSH20 0xFFFFFFFFFFFFFFFFFFFFFFFFFFFFFFFFFFFFFFFF AND PUSH20 0xFFFFFFFFFFFFFFFFFFFFFFFFFFFFFFFFFFFFFFFF AND DUP2 MSTORE PUSH1 0x20 ADD SWAP1 DUP2 MSTORE PUSH1 0x20 ADD PUSH1 0x0 KECCAK256 PUSH1 0x0 PUSH2 0x100 EXP DUP2 SLOAD DUP2 PUSH1 0xFF MUL NOT AND SWAP1 DUP4 ISZERO ISZERO MUL OR SWAP1 SSTORE POP PUSH32 0x1D111C79619A9BB5B0E1DBF751A9792397CDE25A781F02ECFAAD0D3EA9B5B8D PUSH1 0x1 PUSH1 0x0 CALLER PUSH20 0xFFFFFFFFFFFFFFFFFFFFFFFFFFFFFFFFFFFFFFFF AND PUSH20 0xFFFFFFFFFFFFFFFFFFFFFFFFFFFFFFFFFFFFFFFF AND DUP2 MSTORE PUSH1 0x20 ADD SWAP1 DUP2 MSTORE PUSH1 0x20 ADD PUSH1 0x0 KECCAK256 PUSH1 0x0 PUSH1 0x5 DUP2 LT PUSH2 0x835 JUMPI INVALID JUMPDEST ADD PUSH1 0x0 SWAP1 SLOAD SWAP1 PUSH2 0x100 EXP SWAP1 DIV PUSH20 0xFFFFFFFFFFFFFFFFFFFFFFFFFFFFFFFFFFFFFFFF AND PUSH1 0x40 MLOAD DUP1 DUP3 PUSH20 0xFFFFFFFFFFFFFFFFFFFFFFFFFFFFFFFFFFFFFFFF AND DUP2 MSTORE PUSH1 0x20 ADD SWAP2 POP POP PUSH1 0x40 MLOAD DUP1 SWAP2 SUB SWAP1 LOG1 POP JUMP JUMPDEST PUSH1 0x1 ISZERO ISZERO PUSH1 0x2 PUSH1 0x0 CALLER PUSH20 0xFFFFFFFFFFFFFFFFFFFFFFFFFFFFFFFFFFFFFFFF AND PUSH20 0xFFFFFFFFFFFFFFFFFFFFFFFFFFFFFFFFFFFFFFFF AND DUP2 MSTORE PUSH1 0x20 ADD SWAP1 DUP2 MSTORE PUSH1 0x20 ADD PUSH1 0x0 KECCAK256 PUSH1 0x0 SWAP1 SLOAD SWAP1 PUSH2 0x100 EXP SWAP1 DIV PUSH1 0xFF AND ISZERO ISZERO EQ PUSH2 0x94B JUMPI PUSH1 0x40 MLOAD PUSH32 0x8C379A000000000000000000000000000000000000000000000000000000000 DUP2 MSTORE PUSH1 0x4 ADD DUP1 DUP1 PUSH1 0x20 ADD DUP3 DUP2 SUB DUP3 MSTORE PUSH1 0x1D DUP2 MSTORE PUSH1 0x20 ADD DUP1 PUSH32 0x53656E646572206E6F7420617574686F72697A65642061732047504F2E000000 DUP2 MSTORE POP PUSH1 0x20 ADD SWAP2 POP POP PUSH1 0x40 MLOAD DUP1 SWAP2 SUB SWAP1 REVERT JUMPDEST PUSH1 0x0 PUSH20 0xFFFFFFFFFFFFFFFFFFFFFFFFFFFFFFFFFFFFFFFF AND PUSH1 0x1 PUSH1 0x0 CALLER PUSH20 0xFFFFFFFFFFFFFFFFFFFFFFFFFFFFFFFFFFFFFFFF AND PUSH20 0xFFFFFFFFFFFFFFFFFFFFFFFFFFFFFFFFFFFFFFFF AND DUP2 MSTORE PUSH1 0x20 ADD SWAP1 DUP2 MSTORE PUSH1 0x20 ADD PUSH1 0x0 KECCAK256 PUSH1 0x1 PUSH1 0x5 DUP2 LT PUSH2 0x9AE JUMPI INVALID JUMPDEST ADD PUSH1 0x0 SWAP1 SLOAD SWAP1 PUSH2 0x100 EXP SWAP1 DIV PUSH20 0xFFFFFFFFFFFFFFFFFFFFFFFFFFFFFFFFFFFFFFFF AND PUSH20 0xFFFFFFFFFFFFFFFFFFFFFFFFFFFFFFFFFFFFFFFF AND EQ ISZERO PUSH2 0xA3D JUMPI PUSH1 0x40 MLOAD PUSH32 0x8C379A000000000000000000000000000000000000000000000000000000000 DUP2 MSTORE PUSH1 0x4 ADD DUP1 DUP1 PUSH1 0x20 ADD DUP3 DUP2 SUB DUP3 MSTORE PUSH1 0x25 DUP2 MSTORE PUSH1 0x20 ADD DUP1 PUSH2 0x48FC PUSH1 0x25 SWAP2 CODECOPY PUSH1 0x40 ADD SWAP2 POP POP PUSH1 0x40 MLOAD DUP1 SWAP2 SUB SWAP1 REVERT JUMPDEST PUSH1 0x0 PUSH20 0xFFFFFFFFFFFFFFFFFFFFFFFFFFFFFFFFFFFFFFFF AND PUSH1 0x1 PUSH1 0x0 CALLER PUSH20 0xFFFFFFFFFFFFFFFFFFFFFFFFFFFFFFFFFFFFFFFF AND PUSH20 0xFFFFFFFFFFFFFFFFFFFFFFFFFFFFFFFFFFFFFFFF AND DUP2 MSTORE PUSH1 0x20 ADD SWAP1 DUP2 MSTORE PUSH1 0x20 ADD PUSH1 0x0 KECCAK256 PUSH1 0x2 PUSH1 0x5 DUP2 LT PUSH2 0xAA0 JUMPI INVALID JUMPDEST ADD PUSH1 0x0 SWAP1 SLOAD SWAP1 PUSH2 0x100 EXP SWAP1 DIV PUSH20 0xFFFFFFFFFFFFFFFFFFFFFFFFFFFFFFFFFFFFFFFF AND PUSH20 0xFFFFFFFFFFFFFFFFFFFFFFFFFFFFFFFFFFFFFFFF AND EQ PUSH2 0xB4B JUMPI PUSH1 0x40 MLOAD PUSH32 0x8C379A000000000000000000000000000000000000000000000000000000000 DUP2 MSTORE PUSH1 0x4 ADD DUP1 DUP1 PUSH1 0x20 ADD DUP3 DUP2 SUB DUP3 MSTORE PUSH1 0x1F DUP2 MSTORE PUSH1 0x20 ADD DUP1 PUSH32 0x5075726368617365206F7264657220616C7265616479206465706C6F79656400 DUP2 MSTORE POP PUSH1 0x20 ADD SWAP2 POP POP PUSH1 0x40 MLOAD DUP1 SWAP2 SUB SWAP1 REVERT JUMPDEST PUSH1 0x0 PUSH1 0x1 PUSH1 0x0 CALLER PUSH20 0xFFFFFFFFFFFFFFFFFFFFFFFFFFFFFFFFFFFFFFFF AND PUSH20 0xFFFFFFFFFFFFFFFFFFFFFFFFFFFFFFFFFFFFFFFF AND DUP2 MSTORE PUSH1 0x20 ADD SWAP1 DUP2 MSTORE PUSH1 0x20 ADD PUSH1 0x0 KECCAK256 PUSH1 0x0 PUSH1 0x5 DUP2 LT PUSH2 0xB98 JUMPI INVALID JUMPDEST ADD PUSH1 0x0 SWAP1 SLOAD SWAP1 PUSH2 0x100 EXP SWAP1 DIV PUSH20 0xFFFFFFFFFFFFFFFFFFFFFFFFFFFFFFFFFFFFFFFF AND PUSH1 0x40 MLOAD PUSH2 0xBC6 SWAP1 PUSH2 0x1736 JUMP JUMPDEST DUP1 DUP3 PUSH20 0xFFFFFFFFFFFFFFFFFFFFFFFFFFFFFFFFFFFFFFFF AND DUP2 MSTORE PUSH1 0x20 ADD SWAP2 POP POP PUSH1 0x40 MLOAD DUP1 SWAP2 SUB SWAP1 PUSH1 0x0 CREATE DUP1 ISZERO DUP1 ISZERO PUSH2 0xC02 JUMPI RETURNDATASIZE PUSH1 0x0 DUP1 RETURNDATACOPY RETURNDATASIZE PUSH1 0x0 REVERT JUMPDEST POP SWAP1 POP DUP1 PUSH1 0x1 PUSH1 0x0 CALLER PUSH20 0xFFFFFFFFFFFFFFFFFFFFFFFFFFFFFFFFFFFFFFFF AND PUSH20 0xFFFFFFFFFFFFFFFFFFFFFFFFFFFFFFFFFFFFFFFF AND DUP2 MSTORE PUSH1 0x20 ADD SWAP1 DUP2 MSTORE PUSH1 0x20 ADD PUSH1 0x0 KECCAK256 PUSH1 0x2 PUSH1 0x5 DUP2 LT PUSH2 0xC51 JUMPI INVALID JUMPDEST ADD PUSH1 0x0 PUSH2 0x100 EXP DUP2 SLOAD DUP2 PUSH20 0xFFFFFFFFFFFFFFFFFFFFFFFFFFFFFFFFFFFFFFFF MUL NOT AND SWAP1 DUP4 PUSH20 0xFFFFFFFFFFFFFFFFFFFFFFFFFFFFFFFFFFFFFFFF AND MUL OR SWAP1 SSTORE POP PUSH32 0x25454CB5ABC7AED86CF5FFDEF96C47B56358AD2A554D64EC1218C8B41808FB3 PUSH1 0x1 PUSH1 0x0 CALLER PUSH20 0xFFFFFFFFFFFFFFFFFFFFFFFFFFFFFFFFFFFFFFFF AND PUSH20 0xFFFFFFFFFFFFFFFFFFFFFFFFFFFFFFFFFFFFFFFF AND DUP2 MSTORE PUSH1 0x20 ADD SWAP1 DUP2 MSTORE PUSH1 0x20 ADD PUSH1 0x0 KECCAK256 PUSH1 0x2 PUSH1 0x5 DUP2 LT PUSH2 0xCFC JUMPI INVALID JUMPDEST ADD PUSH1 0x0 SWAP1 SLOAD SWAP1 PUSH2 0x100 EXP SWAP1 DIV PUSH20 0xFFFFFFFFFFFFFFFFFFFFFFFFFFFFFFFFFFFFFFFF AND PUSH1 0x40 MLOAD DUP1 DUP3 PUSH20 0xFFFFFFFFFFFFFFFFFFFFFFFFFFFFFFFFFFFFFFFF AND DUP2 MSTORE PUSH1 0x20 ADD SWAP2 POP POP PUSH1 0x40 MLOAD DUP1 SWAP2 SUB SWAP1 LOG1 POP JUMP JUMPDEST PUSH1 0x1 ISZERO ISZERO PUSH1 0x2 PUSH1 0x0 CALLER PUSH20 0xFFFFFFFFFFFFFFFFFFFFFFFFFFFFFFFFFFFFFFFF AND PUSH20 0xFFFFFFFFFFFFFFFFFFFFFFFFFFFFFFFFFFFFFFFF AND DUP2 MSTORE PUSH1 0x20 ADD SWAP1 DUP2 MSTORE PUSH1 0x20 ADD PUSH1 0x0 KECCAK256 PUSH1 0x0 SWAP1 SLOAD SWAP1 PUSH2 0x100 EXP SWAP1 DIV PUSH1 0xFF AND ISZERO ISZERO EQ PUSH2 0xE12 JUMPI PUSH1 0x40 MLOAD PUSH32 0x8C379A000000000000000000000000000000000000000000000000000000000 DUP2 MSTORE PUSH1 0x4 ADD DUP1 DUP1 PUSH1 0x20 ADD DUP3 DUP2 SUB DUP3 MSTORE PUSH1 0x1D DUP2 MSTORE PUSH1 0x20 ADD DUP1 PUSH32 0x53656E646572206E6F7420617574686F72697A65642061732047504F2E000000 DUP2 MSTORE POP PUSH1 0x20 ADD SWAP2 POP POP PUSH1 0x40 MLOAD DUP1 SWAP2 SUB SWAP1 REVERT JUMPDEST PUSH1 0x0 PUSH20 0xFFFFFFFFFFFFFFFFFFFFFFFFFFFFFFFFFFFFFFFF AND PUSH1 0x1 PUSH1 0x0 CALLER PUSH20 0xFFFFFFFFFFFFFFFFFFFFFFFFFFFFFFFFFFFFFFFF AND PUSH20 0xFFFFFFFFFFFFFFFFFFFFFFFFFFFFFFFFFFFFFFFF AND DUP2 MSTORE PUSH1 0x20 ADD SWAP1 DUP2 MSTORE PUSH1 0x20 ADD PUSH1 0x0 KECCAK256 PUSH1 0x0 PUSH1 0x5 DUP2 LT PUSH2 0xE75 JUMPI INVALID JUMPDEST ADD PUSH1 0x0 SWAP1 SLOAD SWAP1 PUSH2 0x100 EXP SWAP1 DIV PUSH20 0xFFFFFFFFFFFFFFFFFFFFFFFFFFFFFFFFFFFFFFFF AND PUSH20 0xFFFFFFFFFFFFFFFFFFFFFFFFFFFFFFFFFFFFFFFF AND EQ ISZERO PUSH2 0xF21 JUMPI PUSH1 0x40 MLOAD PUSH32 0x8C379A000000000000000000000000000000000000000000000000000000000 DUP2 MSTORE PUSH1 0x4 ADD DUP1 DUP1 PUSH1 0x20 ADD DUP3 DUP2 SUB DUP3 MSTORE PUSH1 0x1D DUP2 MSTORE PUSH1 0x20 ADD DUP1 PUSH32 0x526567697374726174696F6E206E6F74206465706C6F79656420796574000000 DUP2 MSTORE POP PUSH1 0x20 ADD SWAP2 POP POP PUSH1 0x40 MLOAD DUP1 SWAP2 SUB SWAP1 REVERT JUMPDEST PUSH1 0x0 PUSH20 0xFFFFFFFFFFFFFFFFFFFFFFFFFFFFFFFFFFFFFFFF AND PUSH1 0x1 PUSH1 0x0 CALLER PUSH20 0xFFFFFFFFFFFFFFFFFFFFFFFFFFFFFFFFFFFFFFFF AND PUSH20 0xFFFFFFFFFFFFFFFFFFFFFFFFFFFFFFFFFFFFFFFF AND DUP2 MSTORE PUSH1 0x20 ADD SWAP1 DUP2 MSTORE PUSH1 0x20 ADD PUSH1 0x0 KECCAK256 PUSH1 0x1 PUSH1 0x5 DUP2 LT PUSH2 0xF84 JUMPI INVALID JUMPDEST ADD PUSH1 0x0 SWAP1 SLOAD SWAP1 PUSH2 0x100 EXP SWAP1 DIV PUSH20 0xFFFFFFFFFFFFFFFFFFFFFFFFFFFFFFFFFFFFFFFF AND PUSH20 0xFFFFFFFFFFFFFFFFFFFFFFFFFFFFFFFFFFFFFFFF AND EQ PUSH2 0x1012 JUMPI PUSH1 0x40 MLOAD PUSH32 0x8C379A000000000000000000000000000000000000000000000000000000000 DUP2 MSTORE PUSH1 0x4 ADD DUP1 DUP1 PUSH1 0x20 ADD DUP3 DUP2 SUB DUP3 MSTORE PUSH1 0x25 DUP2 MSTORE PUSH1 0x20 ADD DUP1 PUSH2 0x48B5 PUSH1 0x25 SWAP2 CODECOPY PUSH1 0x40 ADD SWAP2 POP POP PUSH1 0x40 MLOAD DUP1 SWAP2 SUB SWAP1 REVERT JUMPDEST PUSH1 0x0 PUSH1 0x1 PUSH1 0x0 CALLER PUSH20 0xFFFFFFFFFFFFFFFFFFFFFFFFFFFFFFFFFFFFFFFF AND PUSH20 0xFFFFFFFFFFFFFFFFFFFFFFFFFFFFFFFFFFFFFFFF AND DUP2 MSTORE PUSH1 0x20 ADD SWAP1 DUP2 MSTORE PUSH1 0x20 ADD PUSH1 0x0 KECCAK256 PUSH1 0x0 PUSH1 0x5 DUP2 LT PUSH2 0x105F JUMPI INVALID JUMPDEST ADD PUSH1 0x0 SWAP1 SLOAD SWAP1 PUSH2 0x100 EXP SWAP1 DIV PUSH20 0xFFFFFFFFFFFFFFFFFFFFFFFFFFFFFFFFFFFFFFFF AND PUSH1 0x40 MLOAD PUSH2 0x108D SWAP1 PUSH2 0x1743 JUMP JUMPDEST DUP1 DUP3 PUSH20 0xFFFFFFFFFFFFFFFFFFFFFFFFFFFFFFFFFFFFFFFF AND DUP2 MSTORE PUSH1 0x20 ADD SWAP2 POP POP PUSH1 0x40 MLOAD DUP1 SWAP2 SUB SWAP1 PUSH1 0x0 CREATE DUP1 ISZERO DUP1 ISZERO PUSH2 0x10C9 JUMPI RETURNDATASIZE PUSH1 0x0 DUP1 RETURNDATACOPY RETURNDATASIZE PUSH1 0x0 REVERT JUMPDEST POP SWAP1 POP DUP1 PUSH1 0x1 PUSH1 0x0 CALLER PUSH20 0xFFFFFFFFFFFFFFFFFFFFFFFFFFFFFFFFFFFFFFFF AND PUSH20 0xFFFFFFFFFFFFFFFFFFFFFFFFFFFFFFFFFFFFFFFF AND DUP2 MSTORE PUSH1 0x20 ADD SWAP1 DUP2 MSTORE PUSH1 0x20 ADD PUSH1 0x0 KECCAK256 PUSH1 0x1 PUSH1 0x5 DUP2 LT PUSH2 0x1118 JUMPI INVALID JUMPDEST ADD PUSH1 0x0 PUSH2 0x100 EXP DUP2 SLOAD DUP2 PUSH20 0xFFFFFFFFFFFFFFFFFFFFFFFFFFFFFFFFFFFFFFFF MUL NOT AND SWAP1 DUP4 PUSH20 0xFFFFFFFFFFFFFFFFFFFFFFFFFFFFFFFFFFFFFFFF AND MUL OR SWAP1 SSTORE POP PUSH32 0xE35E6E883F7C106483DD4DD186225F83A4DC00FE7B56DC82F726AD8D686237AE PUSH1 0x1 PUSH1 0x0 CALLER PUSH20 0xFFFFFFFFFFFFFFFFFFFFFFFFFFFFFFFFFFFFFFFF AND PUSH20 0xFFFFFFFFFFFFFFFFFFFFFFFFFFFFFFFFFFFFFFFF AND DUP2 MSTORE PUSH1 0x20 ADD SWAP1 DUP2 MSTORE PUSH1 0x20 ADD PUSH1 0x0 KECCAK256 PUSH1 0x1 PUSH1 0x5 DUP2 LT PUSH2 0x11C3 JUMPI INVALID JUMPDEST ADD PUSH1 0x0 SWAP1 SLOAD SWAP1 PUSH2 0x100 EXP SWAP1 DIV PUSH20 0xFFFFFFFFFFFFFFFFFFFFFFFFFFFFFFFFFFFFFFFF AND PUSH1 0x40 MLOAD DUP1 DUP3 PUSH20 0xFFFFFFFFFFFFFFFFFFFFFFFFFFFFFFFFFFFFFFFF AND DUP2 MSTORE PUSH1 0x20 ADD SWAP2 POP POP PUSH1 0x40 MLOAD DUP1 SWAP2 SUB SWAP1 LOG1 POP JUMP JUMPDEST PUSH1 0x1 ISZERO ISZERO PUSH1 0x2 PUSH1 0x0 CALLER PUSH20 0xFFFFFFFFFFFFFFFFFFFFFFFFFFFFFFFFFFFFFFFF AND PUSH20 0xFFFFFFFFFFFFFFFFFFFFFFFFFFFFFFFFFFFFFFFF AND DUP2 MSTORE PUSH1 0x20 ADD SWAP1 DUP2 MSTORE PUSH1 0x20 ADD PUSH1 0x0 KECCAK256 PUSH1 0x0 SWAP1 SLOAD SWAP1 PUSH2 0x100 EXP SWAP1 DIV PUSH1 0xFF AND ISZERO ISZERO EQ PUSH2 0x12D9 JUMPI PUSH1 0x40 MLOAD PUSH32 0x8C379A000000000000000000000000000000000000000000000000000000000 DUP2 MSTORE PUSH1 0x4 ADD DUP1 DUP1 PUSH1 0x20 ADD DUP3 DUP2 SUB DUP3 MSTORE PUSH1 0x1D DUP2 MSTORE PUSH1 0x20 ADD DUP1 PUSH32 0x53656E646572206E6F7420617574686F72697A65642061732047504F2E000000 DUP2 MSTORE POP PUSH1 0x20 ADD SWAP2 POP POP PUSH1 0x40 MLOAD DUP1 SWAP2 SUB SWAP1 REVERT JUMPDEST PUSH1 0x0 PUSH20 0xFFFFFFFFFFFFFFFFFFFFFFFFFFFFFFFFFFFFFFFF AND PUSH1 0x1 PUSH1 0x0 CALLER PUSH20 0xFFFFFFFFFFFFFFFFFFFFFFFFFFFFFFFFFFFFFFFF AND PUSH20 0xFFFFFFFFFFFFFFFFFFFFFFFFFFFFFFFFFFFFFFFF AND DUP2 MSTORE PUSH1 0x20 ADD SWAP1 DUP2 MSTORE PUSH1 0x20 ADD PUSH1 0x0 KECCAK256 PUSH1 0x3 PUSH1 0x5 DUP2 LT PUSH2 0x133C JUMPI INVALID JUMPDEST ADD PUSH1 0x0 SWAP1 SLOAD SWAP1 PUSH2 0x100 EXP SWAP1 DIV PUSH20 0xFFFFFFFFFFFFFFFFFFFFFFFFFFFFFFFFFFFFFFFF AND PUSH20 0xFFFFFFFFFFFFFFFFFFFFFFFFFFFFFFFFFFFFFFFF AND EQ ISZERO PUSH2 0x13CB JUMPI PUSH1 0x40 MLOAD PUSH32 0x8C379A000000000000000000000000000000000000000000000000000000000 DUP2 MSTORE PUSH1 0x4 ADD DUP1 DUP1 PUSH1 0x20 ADD DUP3 DUP2 SUB DUP3 MSTORE PUSH1 0x22 DUP2 MSTORE PUSH1 0x20 ADD DUP1 PUSH2 0x48DA PUSH1 0x22 SWAP2 CODECOPY PUSH1 0x40 ADD SWAP2 POP POP PUSH1 0x40 MLOAD DUP1 SWAP2 SUB SWAP1 REVERT JUMPDEST PUSH1 0x0 PUSH20 0xFFFFFFFFFFFFFFFFFFFFFFFFFFFFFFFFFFFFFFFF AND PUSH1 0x1 PUSH1 0x0 CALLER PUSH20 0xFFFFFFFFFFFFFFFFFFFFFFFFFFFFFFFFFFFFFFFF AND PUSH20 0xFFFFFFFFFFFFFFFFFFFFFFFFFFFFFFFFFFFFFFFF AND DUP2 MSTORE PUSH1 0x20 ADD SWAP1 DUP2 MSTORE PUSH1 0x20 ADD PUSH1 0x0 KECCAK256 PUSH1 0x4 PUSH1 0x5 DUP2 LT PUSH2 0x142E JUMPI INVALID JUMPDEST ADD PUSH1 0x0 SWAP1 SLOAD SWAP1 PUSH2 0x100 EXP SWAP1 DIV PUSH20 0xFFFFFFFFFFFFFFFFFFFFFFFFFFFFFFFFFFFFFFFF AND PUSH20 0xFFFFFFFFFFFFFFFFFFFFFFFFFFFFFFFFFFFFFFFF AND EQ PUSH2 0x14D9 JUMPI PUSH1 0x40 MLOAD PUSH32 0x8C379A000000000000000000000000000000000000000000000000000000000 DUP2 MSTORE PUSH1 0x4 ADD DUP1 DUP1 PUSH1 0x20 ADD DUP3 DUP2 SUB DUP3 MSTORE PUSH1 0x18 DUP2 MSTORE PUSH1 0x20 ADD DUP1 PUSH32 0x4C6F79616C747920616C7265616479206465706C6F7965640000000000000000 DUP2 MSTORE POP PUSH1 0x20 ADD SWAP2 POP POP PUSH1 0x40 MLOAD DUP1 SWAP2 SUB SWAP1 REVERT JUMPDEST PUSH1 0x0 PUSH1 0x1 PUSH1 0x0 CALLER PUSH20 0xFFFFFFFFFFFFFFFFFFFFFFFFFFFFFFFFFFFFFFFF AND PUSH20 0xFFFFFFFFFFFFFFFFFFFFFFFFFFFFFFFFFFFFFFFF AND DUP2 MSTORE PUSH1 0x20 ADD SWAP1 DUP2 MSTORE PUSH1 0x20 ADD PUSH1 0x0 KECCAK256 PUSH1 0x0 PUSH1 0x5 DUP2 LT PUSH2 0x1526 JUMPI INVALID JUMPDEST ADD PUSH1 0x0 SWAP1 SLOAD SWAP1 PUSH2 0x100 EXP SWAP1 DIV PUSH20 0xFFFFFFFFFFFFFFFFFFFFFFFFFFFFFFFFFFFFFFFF AND PUSH1 0x40 MLOAD PUSH2 0x1554 SWAP1 PUSH2 0x1750 JUMP JUMPDEST DUP1 DUP3 PUSH20 0xFFFFFFFFFFFFFFFFFFFFFFFFFFFFFFFFFFFFFFFF AND DUP2 MSTORE PUSH1 0x20 ADD SWAP2 POP POP PUSH1 0x40 MLOAD DUP1 SWAP2 SUB SWAP1 PUSH1 0x0 CREATE DUP1 ISZERO DUP1 ISZERO PUSH2 0x1590 JUMPI RETURNDATASIZE PUSH1 0x0 DUP1 RETURNDATACOPY RETURNDATASIZE PUSH1 0x0 REVERT JUMPDEST POP SWAP1 POP DUP1 PUSH1 0x1 PUSH1 0x0 CALLER PUSH20 0xFFFFFFFFFFFFFFFFFFFFFFFFFFFFFFFFFFFFFFFF AND PUSH20 0xFFFFFFFFFFFFFFFFFFFFFFFFFFFFFFFFFFFFFFFF AND DUP2 MSTORE PUSH1 0x20 ADD SWAP1 DUP2 MSTORE PUSH1 0x20 ADD PUSH1 0x0 KECCAK256 PUSH1 0x4 PUSH1 0x5 DUP2 LT PUSH2 0x15DF JUMPI INVALID JUMPDEST ADD PUSH1 0x0 PUSH2 0x100 EXP DUP2 SLOAD DUP2 PUSH20 0xFFFFFFFFFFFFFFFFFFFFFFFFFFFFFFFFFFFFFFFF MUL NOT AND SWAP1 DUP4 PUSH20 0xFFFFFFFFFFFFFFFFFFFFFFFFFFFFFFFFFFFFFFFF AND MUL OR SWAP1 SSTORE POP PUSH32 0x2DF6C62A3B6118B70C28B56566B9805DD99E413BD3D26BE7AAC5DB7C19761A53 PUSH1 0x1 PUSH1 0x0 CALLER PUSH20 0xFFFFFFFFFFFFFFFFFFFFFFFFFFFFFFFFFFFFFFFF AND PUSH20 0xFFFFFFFFFFFFFFFFFFFFFFFFFFFFFFFFFFFFFFFF AND DUP2 MSTORE PUSH1 0x20 ADD SWAP1 DUP2 MSTORE PUSH1 0x20 ADD PUSH1 0x0 KECCAK256 PUSH1 0x4 PUSH1 0x5 DUP2 LT PUSH2 0x168A JUMPI INVALID JUMPDEST ADD PUSH1 0x0 SWAP1 SLOAD SWAP1 PUSH2 0x100 EXP SWAP1 DIV PUSH20 0xFFFFFFFFFFFFFFFFFFFFFFFFFFFFFFFFFFFFFFFF AND PUSH1 0x40 MLOAD DUP1 DUP3 PUSH20 0xFFFFFFFFFFFFFFFFFFFFFFFFFFFFFFFFFFFFFFFF AND DUP2 MSTORE PUSH1 0x20 ADD SWAP2 POP POP PUSH1 0x40 MLOAD DUP1 SWAP2 SUB SWAP1 LOG1 POP JUMP JUMPDEST PUSH1 0x1 PUSH1 0x20 MSTORE DUP2 PUSH1 0x0 MSTORE PUSH1 0x40 PUSH1 0x0 KECCAK256 DUP2 PUSH1 0x5 DUP2 LT PUSH2 0x16F3 JUMPI INVALID JUMPDEST ADD PUSH1 0x0 SWAP2 POP SWAP2 POP SWAP1 SLOAD SWAP1 PUSH2 0x100 EXP SWAP1 DIV PUSH20 0xFFFFFFFFFFFFFFFFFFFFFFFFFFFFFFFFFFFFFFFF AND DUP2 JUMP JUMPDEST PUSH2 0x7A5 DUP1 PUSH2 0x175E DUP4 CODECOPY ADD SWAP1 JUMP JUMPDEST PUSH2 0xC83 DUP1 PUSH2 0x1F03 DUP4 CODECOPY ADD SWAP1 JUMP JUMPDEST PUSH2 0x6AD DUP1 PUSH2 0x2B86 DUP4 CODECOPY ADD SWAP1 JUMP JUMPDEST PUSH2 0x1294 DUP1 PUSH2 0x3233 DUP4 CODECOPY ADD SWAP1 JUMP JUMPDEST PUSH2 0x3EE DUP1 PUSH2 0x44C7 DUP4 CODECOPY ADD SWAP1 JUMP INVALID PUSH1 0x80 PUSH1 0x40 MSTORE CALLVALUE DUP1 ISZERO PUSH2 0x10 JUMPI PUSH1 0x0 DUP1 REVERT JUMPDEST POP PUSH1 0x40 MLOAD PUSH2 0x7A5 CODESIZE SUB DUP1 PUSH2 0x7A5 DUP4 CODECOPY DUP2 DUP2 ADD PUSH1 0x40 MSTORE PUSH1 0x20 DUP2 LT ISZERO PUSH2 0x33 JUMPI PUSH1 0x0 DUP1 REVERT JUMPDEST DUP2 ADD SWAP1 DUP1 DUP1 MLOAD SWAP1 PUSH1 0x20 ADD SWAP1 SWAP3 SWAP2 SWAP1 POP POP POP DUP1 PUSH1 0x0 DUP1 PUSH2 0x100 EXP DUP2 SLOAD DUP2 PUSH20 0xFFFFFFFFFFFFFFFFFFFFFFFFFFFFFFFFFFFFFFFF MUL NOT AND SWAP1 DUP4 PUSH20 0xFFFFFFFFFFFFFFFFFFFFFFFFFFFFFFFFFFFFFFFF AND MUL OR SWAP1 SSTORE POP POP PUSH2 0x711 DUP1 PUSH2 0x94 PUSH1 0x0 CODECOPY PUSH1 0x0 RETURN INVALID PUSH1 0x80 PUSH1 0x40 MSTORE PUSH1 0x4 CALLDATASIZE LT PUSH2 0x29 JUMPI PUSH1 0x0 CALLDATALOAD PUSH1 0xE0 SHR DUP1 PUSH4 0x1FB8A38F EQ PUSH2 0x2E JUMPI DUP1 PUSH4 0xF008B98B EQ PUSH2 0x93 JUMPI JUMPDEST PUSH1 0x0 DUP1 REVERT JUMPDEST CALLVALUE DUP1 ISZERO PUSH2 0x3A JUMPI PUSH1 0x0 DUP1 REVERT JUMPDEST POP PUSH2 0x91 PUSH1 0x4 DUP1 CALLDATASIZE SUB PUSH1 0x60 DUP2 LT ISZERO PUSH2 0x51 JUMPI PUSH1 0x0 DUP1 REVERT JUMPDEST DUP2 ADD SWAP1 DUP1 DUP1 CALLDATALOAD SWAP1 PUSH1 0x20 ADD SWAP1 SWAP3 SWAP2 SWAP1 DUP1 CALLDATALOAD SWAP1 PUSH1 0x20 ADD SWAP1 SWAP3 SWAP2 SWAP1 DUP1 CALLDATALOAD PUSH20 0xFFFFFFFFFFFFFFFFFFFFFFFFFFFFFFFFFFFFFFFF AND SWAP1 PUSH1 0x20 ADD SWAP1 SWAP3 SWAP2 SWAP1 POP POP POP PUSH2 0xE1 JUMP JUMPDEST STOP JUMPDEST PUSH2 0xDF PUSH1 0x4 DUP1 CALLDATASIZE SUB PUSH1 0x40 DUP2 LT ISZERO PUSH2 0xA9 JUMPI PUSH1 0x0 DUP1 REVERT JUMPDEST DUP2 ADD SWAP1 DUP1 DUP1 CALLDATALOAD SWAP1 PUSH1 0x20 ADD SWAP1 SWAP3 SWAP2 SWAP1 DUP1 CALLDATALOAD PUSH20 0xFFFFFFFFFFFFFFFFFFFFFFFFFFFFFFFFFFFFFFFF AND SWAP1 PUSH1 0x20 ADD SWAP1 SWAP3 SWAP2 SWAP1 POP POP POP PUSH2 0x3C4 JUMP JUMPDEST STOP JUMPDEST PUSH1 0x0 DUP1 SLOAD SWAP1 PUSH2 0x100 EXP SWAP1 DIV PUSH20 0xFFFFFFFFFFFFFFFFFFFFFFFFFFFFFFFFFFFFFFFF AND PUSH20 0xFFFFFFFFFFFFFFFFFFFFFFFFFFFFFFFFFFFFFFFF AND PUSH4 0x79EA51D4 CALLER PUSH1 0x40 MLOAD DUP3 PUSH4 0xFFFFFFFF AND PUSH1 0xE0 SHL DUP2 MSTORE PUSH1 0x4 ADD DUP1 DUP3 PUSH20 0xFFFFFFFFFFFFFFFFFFFFFFFFFFFFFFFFFFFFFFFF AND DUP2 MSTORE PUSH1 0x20 ADD SWAP2 POP POP PUSH1 0x20 PUSH1 0x40 MLOAD DUP1 DUP4 SUB DUP2 DUP7 DUP1 EXTCODESIZE ISZERO DUP1 ISZERO PUSH2 0x168 JUMPI PUSH1 0x0 DUP1 REVERT JUMPDEST POP GAS STATICCALL ISZERO DUP1 ISZERO PUSH2 0x17C JUMPI RETURNDATASIZE PUSH1 0x0 DUP1 RETURNDATACOPY RETURNDATASIZE PUSH1 0x0 REVERT JUMPDEST POP POP POP POP PUSH1 0x40 MLOAD RETURNDATASIZE PUSH1 0x20 DUP2 LT ISZERO PUSH2 0x192 JUMPI PUSH1 0x0 DUP1 REVERT JUMPDEST DUP2 ADD SWAP1 DUP1 DUP1 MLOAD SWAP1 PUSH1 0x20 ADD SWAP1 SWAP3 SWAP2 SWAP1 POP POP POP PUSH2 0x215 JUMPI PUSH1 0x40 MLOAD PUSH32 0x8C379A000000000000000000000000000000000000000000000000000000000 DUP2 MSTORE PUSH1 0x4 ADD DUP1 DUP1 PUSH1 0x20 ADD DUP3 DUP2 SUB DUP3 MSTORE PUSH1 0x16 DUP2 MSTORE PUSH1 0x20 ADD DUP1 PUSH32 0x53656E646572206E6F7420617574686F72697A65642E00000000000000000000 DUP2 MSTORE POP PUSH1 0x20 ADD SWAP2 POP POP PUSH1 0x40 MLOAD DUP1 SWAP2 SUB SWAP1 REVERT JUMPDEST PUSH1 0x0 DUP1 SLOAD SWAP1 PUSH2 0x100 EXP SWAP1 DIV PUSH20 0xFFFFFFFFFFFFFFFFFFFFFFFFFFFFFFFFFFFFFFFF AND PUSH20 0xFFFFFFFFFFFFFFFFFFFFFFFFFFFFFFFFFFFFFFFF AND PUSH4 0xE0ACB7A3 DUP3 PUSH1 0x40 MLOAD DUP3 PUSH4 0xFFFFFFFF AND PUSH1 0xE0 SHL DUP2 MSTORE PUSH1 0x4 ADD DUP1 DUP3 PUSH20 0xFFFFFFFFFFFFFFFFFFFFFFFFFFFFFFFFFFFFFFFF AND DUP2 MSTORE PUSH1 0x20 ADD SWAP2 POP POP PUSH1 0x20 PUSH1 0x40 MLOAD DUP1 DUP4 SUB DUP2 DUP7 DUP1 EXTCODESIZE ISZERO DUP1 ISZERO PUSH2 0x29C JUMPI PUSH1 0x0 DUP1 REVERT JUMPDEST POP GAS STATICCALL ISZERO DUP1 ISZERO PUSH2 0x2B0 JUMPI RETURNDATASIZE PUSH1 0x0 DUP1 RETURNDATACOPY RETURNDATASIZE PUSH1 0x0 REVERT JUMPDEST POP POP POP POP PUSH1 0x40 MLOAD RETURNDATASIZE PUSH1 0x20 DUP2 LT ISZERO PUSH2 0x2C6 JUMPI PUSH1 0x0 DUP1 REVERT JUMPDEST DUP2 ADD SWAP1 DUP1 DUP1 MLOAD SWAP1 PUSH1 0x20 ADD SWAP1 SWAP3 SWAP2 SWAP1 POP POP POP PUSH2 0x32C JUMPI PUSH1 0x40 MLOAD PUSH32 0x8C379A000000000000000000000000000000000000000000000000000000000 DUP2 MSTORE PUSH1 0x4 ADD DUP1 DUP1 PUSH1 0x20 ADD DUP3 DUP2 SUB DUP3 MSTORE PUSH1 0x24 DUP2 MSTORE PUSH1 0x20 ADD DUP1 PUSH2 0x689 PUSH1 0x24 SWAP2 CODECOPY PUSH1 0x40 ADD SWAP2 POP POP PUSH1 0x40 MLOAD DUP1 SWAP2 SUB SWAP1 REVERT JUMPDEST DUP2 PUSH1 0x1 PUSH1 0x0 DUP6 DUP2 MSTORE PUSH1 0x20 ADD SWAP1 DUP2 MSTORE PUSH1 0x20 ADD PUSH1 0x0 KECCAK256 DUP2 SWAP1 SSTORE POP PUSH32 0x6B8B5414E3DA4D8A3345869BA629FE05D1D64B5A7B75269A010B6E260AA92A13 DUP4 CALLER DUP4 DUP6 PUSH1 0x40 MLOAD DUP1 DUP6 DUP2 MSTORE PUSH1 0x20 ADD DUP5 PUSH20 0xFFFFFFFFFFFFFFFFFFFFFFFFFFFFFFFFFFFFFFFF AND DUP2 MSTORE PUSH1 0x20 ADD DUP4 PUSH20 0xFFFFFFFFFFFFFFFFFFFFFFFFFFFFFFFFFFFFFFFF AND DUP2 MSTORE PUSH1 0x20 ADD DUP3 DUP2 MSTORE PUSH1 0x20 ADD SWAP5 POP POP POP POP POP PUSH1 0x40 MLOAD DUP1 SWAP2 SUB SWAP1 LOG1 POP POP POP JUMP JUMPDEST PUSH1 0x0 DUP1 SLOAD SWAP1 PUSH2 0x100 EXP SWAP1 DIV PUSH20 0xFFFFFFFFFFFFFFFFFFFFFFFFFFFFFFFFFFFFFFFF AND PUSH20 0xFFFFFFFFFFFFFFFFFFFFFFFFFFFFFFFFFFFFFFFF AND PUSH4 0xE0ACB7A3 CALLER PUSH1 0x40 MLOAD DUP3 PUSH4 0xFFFFFFFF AND PUSH1 0xE0 SHL DUP2 MSTORE PUSH1 0x4 ADD DUP1 DUP3 PUSH20 0xFFFFFFFFFFFFFFFFFFFFFFFFFFFFFFFFFFFFFFFF AND DUP2 MSTORE PUSH1 0x20 ADD SWAP2 POP POP PUSH1 0x20 PUSH1 0x40 MLOAD DUP1 DUP4 SUB DUP2 DUP7 DUP1 EXTCODESIZE ISZERO DUP1 ISZERO PUSH2 0x44B JUMPI PUSH1 0x0 DUP1 REVERT JUMPDEST POP GAS STATICCALL ISZERO DUP1 ISZERO PUSH2 0x45F JUMPI RETURNDATASIZE PUSH1 0x0 DUP1 RETURNDATACOPY RETURNDATASIZE PUSH1 0x0 REVERT JUMPDEST POP POP POP POP PUSH1 0x40 MLOAD RETURNDATASIZE PUSH1 0x20 DUP2 LT ISZERO PUSH2 0x475 JUMPI PUSH1 0x0 DUP1 REVERT JUMPDEST DUP2 ADD SWAP1 DUP1 DUP1 MLOAD SWAP1 PUSH1 0x20 ADD SWAP1 SWAP3 SWAP2 SWAP1 POP POP POP PUSH2 0x4F8 JUMPI PUSH1 0x40 MLOAD PUSH32 0x8C379A000000000000000000000000000000000000000000000000000000000 DUP2 MSTORE PUSH1 0x4 ADD DUP1 DUP1 PUSH1 0x20 ADD DUP3 DUP2 SUB DUP3 MSTORE PUSH1 0x16 DUP2 MSTORE PUSH1 0x20 ADD DUP1 PUSH32 0x53656E646572206E6F7420617574686F72697A65642E00000000000000000000 DUP2 MSTORE POP PUSH1 0x20 ADD SWAP2 POP POP PUSH1 0x40 MLOAD DUP1 SWAP2 SUB SWAP1 REVERT JUMPDEST PUSH1 0x0 PUSH1 0x1 PUSH1 0x0 DUP5 DUP2 MSTORE PUSH1 0x20 ADD SWAP1 DUP2 MSTORE PUSH1 0x20 ADD PUSH1 0x0 KECCAK256 SLOAD GT PUSH2 0x564 JUMPI PUSH1 0x40 MLOAD PUSH32 0x8C379A000000000000000000000000000000000000000000000000000000000 DUP2 MSTORE PUSH1 0x4 ADD DUP1 DUP1 PUSH1 0x20 ADD DUP3 DUP2 SUB DUP3 MSTORE PUSH1 0x2F DUP2 MSTORE PUSH1 0x20 ADD DUP1 PUSH2 0x6AD PUSH1 0x2F SWAP2 CODECOPY PUSH1 0x40 ADD SWAP2 POP POP PUSH1 0x40 MLOAD DUP1 SWAP2 SUB SWAP1 REVERT JUMPDEST PUSH1 0x1 PUSH1 0x0 DUP4 DUP2 MSTORE PUSH1 0x20 ADD SWAP1 DUP2 MSTORE PUSH1 0x20 ADD PUSH1 0x0 KECCAK256 SLOAD CALLVALUE LT ISZERO PUSH2 0x5ED JUMPI PUSH1 0x40 MLOAD PUSH32 0x8C379A000000000000000000000000000000000000000000000000000000000 DUP2 MSTORE PUSH1 0x4 ADD DUP1 DUP1 PUSH1 0x20 ADD DUP3 DUP2 SUB DUP3 MSTORE PUSH1 0x20 DUP2 MSTORE PUSH1 0x20 ADD DUP1 PUSH32 0x5472616E7366657272656420616D6F756E7420696E73756666696369656E742E DUP2 MSTORE POP PUSH1 0x20 ADD SWAP2 POP POP PUSH1 0x40 MLOAD DUP1 SWAP2 SUB SWAP1 REVERT JUMPDEST PUSH1 0x0 PUSH1 0x1 PUSH1 0x0 DUP5 DUP2 MSTORE PUSH1 0x20 ADD SWAP1 DUP2 MSTORE PUSH1 0x20 ADD PUSH1 0x0 KECCAK256 DUP2 SWAP1 SSTORE POP PUSH32 0xBECBBD7543B68BAAAF7E9C3FD12E4719F1F506F4253ABEF4A6573D0ADF3A73ED DUP3 PUSH1 0x40 MLOAD DUP1 DUP3 DUP2 MSTORE PUSH1 0x20 ADD SWAP2 POP POP PUSH1 0x40 MLOAD DUP1 SWAP2 SUB SWAP1 LOG1 DUP1 PUSH20 0xFFFFFFFFFFFFFFFFFFFFFFFFFFFFFFFFFFFFFFFF AND PUSH2 0x8FC CALLVALUE SWAP1 DUP2 ISZERO MUL SWAP1 PUSH1 0x40 MLOAD PUSH1 0x0 PUSH1 0x40 MLOAD DUP1 DUP4 SUB DUP2 DUP6 DUP9 DUP9 CALL SWAP4 POP POP POP POP ISZERO DUP1 ISZERO PUSH2 0x683 JUMPI RETURNDATASIZE PUSH1 0x0 DUP1 RETURNDATACOPY RETURNDATASIZE PUSH1 0x0 REVERT JUMPDEST POP POP POP JUMP INVALID 0x4D PUSH2 0x6E75 PUSH7 0x61637475726572 KECCAK256 PUSH2 0x6464 PUSH19 0x657373206E6F7420617574686F72697A65642E MSTORE PUSH6 0x626174652072 PUSH6 0x717565737420 PUSH15 0x6F74207375626D697474656420666F PUSH19 0x207468697320636F6E74726163742EA2646970 PUSH7 0x735822122003A9 0x1E 0xE6 CALLDATALOAD SDIV 0x2D RETURNDATASIZE PUSH28 0x83679D486A25F8270AD97E3628E00E5DA1598AD1B988D464736F6C63 NUMBER STOP MOD 0xC STOP CALLER PUSH1 0x80 PUSH1 0x40 MSTORE CALLVALUE DUP1 ISZERO PUSH2 0x10 JUMPI PUSH1 0x0 DUP1 REVERT JUMPDEST POP PUSH1 0x40 MLOAD PUSH2 0xC83 CODESIZE SUB DUP1 PUSH2 0xC83 DUP4 CODECOPY DUP2 DUP2 ADD PUSH1 0x40 MSTORE PUSH1 0x20 DUP2 LT ISZERO PUSH2 0x33 JUMPI PUSH1 0x0 DUP1 REVERT JUMPDEST DUP2 ADD SWAP1 DUP1 DUP1 MLOAD SWAP1 PUSH1 0x20 ADD SWAP1 SWAP3 SWAP2 SWAP1 POP POP POP DUP1 PUSH1 0x0 DUP1 PUSH2 0x100 EXP DUP2 SLOAD DUP2 PUSH20 0xFFFFFFFFFFFFFFFFFFFFFFFFFFFFFFFFFFFFFFFF MUL NOT AND SWAP1 DUP4 PUSH20 0xFFFFFFFFFFFFFFFFFFFFFFFFFFFFFFFFFFFFFFFF AND MUL OR SWAP1 SSTORE POP POP PUSH2 0xBEF DUP1 PUSH2 0x94 PUSH1 0x0 CODECOPY PUSH1 0x0 RETURN INVALID PUSH1 0x80 PUSH1 0x40 MSTORE PUSH1 0x4 CALLDATASIZE LT PUSH2 0x70 JUMPI PUSH1 0x0 CALLDATALOAD PUSH1 0xE0 SHR DUP1 PUSH4 0xD4FD04C7 GT PUSH2 0x4E JUMPI DUP1 PUSH4 0xD4FD04C7 EQ PUSH2 0x194 JUMPI DUP1 PUSH4 0xE0ACB7A3 EQ PUSH2 0x19E JUMPI DUP1 PUSH4 0xF767C6E9 EQ PUSH2 0x205 JUMPI DUP1 PUSH4 0xF769C6D0 EQ PUSH2 0x26C JUMPI PUSH2 0x70 JUMP JUMPDEST DUP1 PUSH4 0x20FE4CFF EQ PUSH2 0x75 JUMPI DUP1 PUSH4 0x31AB0518 EQ PUSH2 0xDC JUMPI DUP1 PUSH4 0x79EA51D4 EQ PUSH2 0x12D JUMPI JUMPDEST PUSH1 0x0 DUP1 REVERT JUMPDEST CALLVALUE DUP1 ISZERO PUSH2 0x81 JUMPI PUSH1 0x0 DUP1 REVERT JUMPDEST POP PUSH2 0xC4 PUSH1 0x4 DUP1 CALLDATASIZE SUB PUSH1 0x20 DUP2 LT ISZERO PUSH2 0x98 JUMPI PUSH1 0x0 DUP1 REVERT JUMPDEST DUP2 ADD SWAP1 DUP1 DUP1 CALLDATALOAD PUSH20 0xFFFFFFFFFFFFFFFFFFFFFFFFFFFFFFFFFFFFFFFF AND SWAP1 PUSH1 0x20 ADD SWAP1 SWAP3 SWAP2 SWAP1 POP POP POP PUSH2 0x276 JUMP JUMPDEST PUSH1 0x40 MLOAD DUP1 DUP3 ISZERO ISZERO DUP2 MSTORE PUSH1 0x20 ADD SWAP2 POP POP PUSH1 0x40 MLOAD DUP1 SWAP2 SUB SWAP1 RETURN JUMPDEST CALLVALUE DUP1 ISZERO PUSH2 0xE8 JUMPI PUSH1 0x0 DUP1 REVERT JUMPDEST POP PUSH2 0x12B PUSH1 0x4 DUP1 CALLDATASIZE SUB PUSH1 0x20 DUP2 LT ISZERO PUSH2 0xFF JUMPI PUSH1 0x0 DUP1 REVERT JUMPDEST DUP2 ADD SWAP1 DUP1 DUP1 CALLDATALOAD PUSH20 0xFFFFFFFFFFFFFFFFFFFFFFFFFFFFFFFFFFFFFFFF AND SWAP1 PUSH1 0x20 ADD SWAP1 SWAP3 SWAP2 SWAP1 POP POP POP PUSH2 0x2CF JUMP JUMPDEST STOP JUMPDEST CALLVALUE DUP1 ISZERO PUSH2 0x139 JUMPI PUSH1 0x0 DUP1 REVERT JUMPDEST POP PUSH2 0x17C PUSH1 0x4 DUP1 CALLDATASIZE SUB PUSH1 0x20 DUP2 LT ISZERO PUSH2 0x150 JUMPI PUSH1 0x0 DUP1 REVERT JUMPDEST DUP2 ADD SWAP1 DUP1 DUP1 CALLDATALOAD PUSH20 0xFFFFFFFFFFFFFFFFFFFFFFFFFFFFFFFFFFFFFFFF AND SWAP1 PUSH1 0x20 ADD SWAP1 SWAP3 SWAP2 SWAP1 POP POP POP PUSH2 0x5A4 JUMP JUMPDEST PUSH1 0x40 MLOAD DUP1 DUP3 ISZERO ISZERO DUP2 MSTORE PUSH1 0x20 ADD SWAP2 POP POP PUSH1 0x40 MLOAD DUP1 SWAP2 SUB SWAP1 RETURN JUMPDEST PUSH2 0x19C PUSH2 0x5FA JUMP JUMPDEST STOP JUMPDEST CALLVALUE DUP1 ISZERO PUSH2 0x1AA JUMPI PUSH1 0x0 DUP1 REVERT JUMPDEST POP PUSH2 0x1ED PUSH1 0x4 DUP1 CALLDATASIZE SUB PUSH1 0x20 DUP2 LT ISZERO PUSH2 0x1C1 JUMPI PUSH1 0x0 DUP1 REVERT JUMPDEST DUP2 ADD SWAP1 DUP1 DUP1 CALLDATALOAD PUSH20 0xFFFFFFFFFFFFFFFFFFFFFFFFFFFFFFFFFFFFFFFF AND SWAP1 PUSH1 0x20 ADD SWAP1 SWAP3 SWAP2 SWAP1 POP POP POP PUSH2 0x883 JUMP JUMPDEST PUSH1 0x40 MLOAD DUP1 DUP3 ISZERO ISZERO DUP2 MSTORE PUSH1 0x20 ADD SWAP2 POP POP PUSH1 0x40 MLOAD DUP1 SWAP2 SUB SWAP1 RETURN JUMPDEST CALLVALUE DUP1 ISZERO PUSH2 0x211 JUMPI PUSH1 0x0 DUP1 REVERT JUMPDEST POP PUSH2 0x254 PUSH1 0x4 DUP1 CALLDATASIZE SUB PUSH1 0x20 DUP2 LT ISZERO PUSH2 0x228 JUMPI PUSH1 0x0 DUP1 REVERT JUMPDEST DUP2 ADD SWAP1 DUP1 DUP1 CALLDATALOAD PUSH20 0xFFFFFFFFFFFFFFFFFFFFFFFFFFFFFFFFFFFFFFFF AND SWAP1 PUSH1 0x20 ADD SWAP1 SWAP3 SWAP2 SWAP1 POP POP POP PUSH2 0x8D9 JUMP JUMPDEST PUSH1 0x40 MLOAD DUP1 DUP3 ISZERO ISZERO DUP2 MSTORE PUSH1 0x20 ADD SWAP2 POP POP PUSH1 0x40 MLOAD DUP1 SWAP2 SUB SWAP1 RETURN JUMPDEST PUSH2 0x274 PUSH2 0x92F JUMP JUMPDEST STOP JUMPDEST PUSH1 0x0 DUP1 PUSH1 0x0 SWAP1 SLOAD SWAP1 PUSH2 0x100 EXP SWAP1 DIV PUSH20 0xFFFFFFFFFFFFFFFFFFFFFFFFFFFFFFFFFFFFFFFF AND PUSH20 0xFFFFFFFFFFFFFFFFFFFFFFFFFFFFFFFFFFFFFFFF AND DUP3 PUSH20 0xFFFFFFFFFFFFFFFFFFFFFFFFFFFFFFFFFFFFFFFF AND EQ SWAP1 POP SWAP2 SWAP1 POP JUMP JUMPDEST PUSH1 0x0 DUP1 SLOAD SWAP1 PUSH2 0x100 EXP SWAP1 DIV PUSH20 0xFFFFFFFFFFFFFFFFFFFFFFFFFFFFFFFFFFFFFFFF AND PUSH20 0xFFFFFFFFFFFFFFFFFFFFFFFFFFFFFFFFFFFFFFFF AND CALLER PUSH20 0xFFFFFFFFFFFFFFFFFFFFFFFFFFFFFFFFFFFFFFFF AND EQ PUSH2 0x390 JUMPI PUSH1 0x40 MLOAD PUSH32 0x8C379A000000000000000000000000000000000000000000000000000000000 DUP2 MSTORE PUSH1 0x4 ADD DUP1 DUP1 PUSH1 0x20 ADD DUP3 DUP2 SUB DUP3 MSTORE PUSH1 0x16 DUP2 MSTORE PUSH1 0x20 ADD DUP1 PUSH32 0x53656E646572206E6F7420617574686F72697A65642E00000000000000000000 DUP2 MSTORE POP PUSH1 0x20 ADD SWAP2 POP POP PUSH1 0x40 MLOAD DUP1 SWAP2 SUB SWAP1 REVERT JUMPDEST PUSH1 0x1 PUSH1 0x0 DUP3 PUSH20 0xFFFFFFFFFFFFFFFFFFFFFFFFFFFFFFFFFFFFFFFF AND PUSH20 0xFFFFFFFFFFFFFFFFFFFFFFFFFFFFFFFFFFFFFFFF AND DUP2 MSTORE PUSH1 0x20 ADD SWAP1 DUP2 MSTORE PUSH1 0x20 ADD PUSH1 0x0 KECCAK256 PUSH1 0x0 SWAP1 SLOAD SWAP1 PUSH2 0x100 EXP SWAP1 DIV PUSH1 0xFF AND ISZERO DUP1 ISZERO PUSH2 0x434 JUMPI POP PUSH1 0x2 PUSH1 0x0 DUP3 PUSH20 0xFFFFFFFFFFFFFFFFFFFFFFFFFFFFFFFFFFFFFFFF AND PUSH20 0xFFFFFFFFFFFFFFFFFFFFFFFFFFFFFFFFFFFFFFFF AND DUP2 MSTORE PUSH1 0x20 ADD SWAP1 DUP2 MSTORE PUSH1 0x20 ADD PUSH1 0x0 KECCAK256 PUSH1 0x0 SWAP1 SLOAD SWAP1 PUSH2 0x100 EXP SWAP1 DIV PUSH1 0xFF AND ISZERO JUMPDEST DUP1 ISZERO PUSH2 0x48A JUMPI POP PUSH1 0x3 PUSH1 0x0 DUP3 PUSH20 0xFFFFFFFFFFFFFFFFFFFFFFFFFFFFFFFFFFFFFFFF AND PUSH20 0xFFFFFFFFFFFFFFFFFFFFFFFFFFFFFFFFFFFFFFFF AND DUP2 MSTORE PUSH1 0x20 ADD SWAP1 DUP2 MSTORE PUSH1 0x20 ADD PUSH1 0x0 KECCAK256 PUSH1 0x0 SWAP1 SLOAD SWAP1 PUSH2 0x100 EXP SWAP1 DIV PUSH1 0xFF AND ISZERO JUMPDEST PUSH2 0x4FC JUMPI PUSH1 0x40 MLOAD PUSH32 0x8C379A000000000000000000000000000000000000000000000000000000000 DUP2 MSTORE PUSH1 0x4 ADD DUP1 DUP1 PUSH1 0x20 ADD DUP3 DUP2 SUB DUP3 MSTORE PUSH1 0x14 DUP2 MSTORE PUSH1 0x20 ADD DUP1 PUSH32 0x4164647265737320616C72656164792075736564000000000000000000000000 DUP2 MSTORE POP PUSH1 0x20 ADD SWAP2 POP POP PUSH1 0x40 MLOAD DUP1 SWAP2 SUB SWAP1 REVERT JUMPDEST PUSH1 0x1 PUSH1 0x2 PUSH1 0x0 DUP4 PUSH20 0xFFFFFFFFFFFFFFFFFFFFFFFFFFFFFFFFFFFFFFFF AND PUSH20 0xFFFFFFFFFFFFFFFFFFFFFFFFFFFFFFFFFFFFFFFF AND DUP2 MSTORE PUSH1 0x20 ADD SWAP1 DUP2 MSTORE PUSH1 0x20 ADD PUSH1 0x0 KECCAK256 PUSH1 0x0 PUSH2 0x100 EXP DUP2 SLOAD DUP2 PUSH1 0xFF MUL NOT AND SWAP1 DUP4 ISZERO ISZERO MUL OR SWAP1 SSTORE POP PUSH32 0x3B2C2671A4556FCA8F080B2C4469C9041A5019E2D24DDC37CFA48C95F542AC55 DUP2 PUSH1 0x40 MLOAD DUP1 DUP3 PUSH20 0xFFFFFFFFFFFFFFFFFFFFFFFFFFFFFFFFFFFFFFFF AND DUP2 MSTORE PUSH1 0x20 ADD SWAP2 POP POP PUSH1 0x40 MLOAD DUP1 SWAP2 SUB SWAP1 LOG1 POP JUMP JUMPDEST PUSH1 0x0 PUSH1 0x2 PUSH1 0x0 DUP4 PUSH20 0xFFFFFFFFFFFFFFFFFFFFFFFFFFFFFFFFFFFFFFFF AND PUSH20 0xFFFFFFFFFFFFFFFFFFFFFFFFFFFFFFFFFFFFFFFF AND DUP2 MSTORE PUSH1 0x20 ADD SWAP1 DUP2 MSTORE PUSH1 0x20 ADD PUSH1 0x0 KECCAK256 PUSH1 0x0 SWAP1 SLOAD SWAP1 PUSH2 0x100 EXP SWAP1 DIV PUSH1 0xFF AND SWAP1 POP SWAP2 SWAP1 POP JUMP JUMPDEST PUSH1 0x1 PUSH1 0x0 CALLER PUSH20 0xFFFFFFFFFFFFFFFFFFFFFFFFFFFFFFFFFFFFFFFF AND PUSH20 0xFFFFFFFFFFFFFFFFFFFFFFFFFFFFFFFFFFFFFFFF AND DUP2 MSTORE PUSH1 0x20 ADD SWAP1 DUP2 MSTORE PUSH1 0x20 ADD PUSH1 0x0 KECCAK256 PUSH1 0x0 SWAP1 SLOAD SWAP1 PUSH2 0x100 EXP SWAP1 DIV PUSH1 0xFF AND ISZERO DUP1 ISZERO PUSH2 0x69E JUMPI POP PUSH1 0x2 PUSH1 0x0 CALLER PUSH20 0xFFFFFFFFFFFFFFFFFFFFFFFFFFFFFFFFFFFFFFFF AND PUSH20 0xFFFFFFFFFFFFFFFFFFFFFFFFFFFFFFFFFFFFFFFF AND DUP2 MSTORE PUSH1 0x20 ADD SWAP1 DUP2 MSTORE PUSH1 0x20 ADD PUSH1 0x0 KECCAK256 PUSH1 0x0 SWAP1 SLOAD SWAP1 PUSH2 0x100 EXP SWAP1 DIV PUSH1 0xFF AND ISZERO JUMPDEST DUP1 ISZERO PUSH2 0x6F4 JUMPI POP PUSH1 0x3 PUSH1 0x0 CALLER PUSH20 0xFFFFFFFFFFFFFFFFFFFFFFFFFFFFFFFFFFFFFFFF AND PUSH20 0xFFFFFFFFFFFFFFFFFFFFFFFFFFFFFFFFFFFFFFFF AND DUP2 MSTORE PUSH1 0x20 ADD SWAP1 DUP2 MSTORE PUSH1 0x20 ADD PUSH1 0x0 KECCAK256 PUSH1 0x0 SWAP1 SLOAD SWAP1 PUSH2 0x100 EXP SWAP1 DIV PUSH1 0xFF AND ISZERO JUMPDEST PUSH2 0x766 JUMPI PUSH1 0x40 MLOAD PUSH32 0x8C379A000000000000000000000000000000000000000000000000000000000 DUP2 MSTORE PUSH1 0x4 ADD DUP1 DUP1 PUSH1 0x20 ADD DUP3 DUP2 SUB DUP3 MSTORE PUSH1 0x14 DUP2 MSTORE PUSH1 0x20 ADD DUP1 PUSH32 0x4164647265737320616C72656164792075736564000000000000000000000000 DUP2 MSTORE POP PUSH1 0x20 ADD SWAP2 POP POP PUSH1 0x40 MLOAD DUP1 SWAP2 SUB SWAP1 REVERT JUMPDEST PUSH1 0x1 CALLVALUE LT ISZERO PUSH2 0x7DD JUMPI PUSH1 0x40 MLOAD PUSH32 0x8C379A000000000000000000000000000000000000000000000000000000000 DUP2 MSTORE PUSH1 0x4 ADD DUP1 DUP1 PUSH1 0x20 ADD DUP3 DUP2 SUB DUP3 MSTORE PUSH1 0x1A DUP2 MSTORE PUSH1 0x20 ADD DUP1 PUSH32 0x41646D697373696F6E2066656520696E73756666696369656E74000000000000 DUP2 MSTORE POP PUSH1 0x20 ADD SWAP2 POP POP PUSH1 0x40 MLOAD DUP1 SWAP2 SUB SWAP1 REVERT JUMPDEST PUSH1 0x1 DUP1 PUSH1 0x0 CALLER PUSH20 0xFFFFFFFFFFFFFFFFFFFFFFFFFFFFFFFFFFFFFFFF AND PUSH20 0xFFFFFFFFFFFFFFFFFFFFFFFFFFFFFFFFFFFFFFFF AND DUP2 MSTORE PUSH1 0x20 ADD SWAP1 DUP2 MSTORE PUSH1 0x20 ADD PUSH1 0x0 KECCAK256 PUSH1 0x0 PUSH2 0x100 EXP DUP2 SLOAD DUP2 PUSH1 0xFF MUL NOT AND SWAP1 DUP4 ISZERO ISZERO MUL OR SWAP1 SSTORE POP PUSH32 0xA02022E57EB2E7AE40C00A3B394BEC5819680C1CE2BF125655FB6D98DFFDB8DF CALLER PUSH1 0x40 MLOAD DUP1 DUP3 PUSH20 0xFFFFFFFFFFFFFFFFFFFFFFFFFFFFFFFFFFFFFFFF AND DUP2 MSTORE PUSH1 0x20 ADD SWAP2 POP POP PUSH1 0x40 MLOAD DUP1 SWAP2 SUB SWAP1 LOG1 JUMP JUMPDEST PUSH1 0x0 PUSH1 0x1 PUSH1 0x0 DUP4 PUSH20 0xFFFFFFFFFFFFFFFFFFFFFFFFFFFFFFFFFFFFFFFF AND PUSH20 0xFFFFFFFFFFFFFFFFFFFFFFFFFFFFFFFFFFFFFFFF AND DUP2 MSTORE PUSH1 0x20 ADD SWAP1 DUP2 MSTORE PUSH1 0x20 ADD PUSH1 0x0 KECCAK256 PUSH1 0x0 SWAP1 SLOAD SWAP1 PUSH2 0x100 EXP SWAP1 DIV PUSH1 0xFF AND SWAP1 POP SWAP2 SWAP1 POP JUMP JUMPDEST PUSH1 0x0 PUSH1 0x3 PUSH1 0x0 DUP4 PUSH20 0xFFFFFFFFFFFFFFFFFFFFFFFFFFFFFFFFFFFFFFFF AND PUSH20 0xFFFFFFFFFFFFFFFFFFFFFFFFFFFFFFFFFFFFFFFF AND DUP2 MSTORE PUSH1 0x20 ADD SWAP1 DUP2 MSTORE PUSH1 0x20 ADD PUSH1 0x0 KECCAK256 PUSH1 0x0 SWAP1 SLOAD SWAP1 PUSH2 0x100 EXP SWAP1 DIV PUSH1 0xFF AND SWAP1 POP SWAP2 SWAP1 POP JUMP JUMPDEST PUSH1 0x1 PUSH1 0x0 CALLER PUSH20 0xFFFFFFFFFFFFFFFFFFFFFFFFFFFFFFFFFFFFFFFF AND PUSH20 0xFFFFFFFFFFFFFFFFFFFFFFFFFFFFFFFFFFFFFFFF AND DUP2 MSTORE PUSH1 0x20 ADD SWAP1 DUP2 MSTORE PUSH1 0x20 ADD PUSH1 0x0 KECCAK256 PUSH1 0x0 SWAP1 SLOAD SWAP1 PUSH2 0x100 EXP SWAP1 DIV PUSH1 0xFF AND ISZERO DUP1 ISZERO PUSH2 0x9D3 JUMPI POP PUSH1 0x2 PUSH1 0x0 CALLER PUSH20 0xFFFFFFFFFFFFFFFFFFFFFFFFFFFFFFFFFFFFFFFF AND PUSH20 0xFFFFFFFFFFFFFFFFFFFFFFFFFFFFFFFFFFFFFFFF AND DUP2 MSTORE PUSH1 0x20 ADD SWAP1 DUP2 MSTORE PUSH1 0x20 ADD PUSH1 0x0 KECCAK256 PUSH1 0x0 SWAP1 SLOAD SWAP1 PUSH2 0x100 EXP SWAP1 DIV PUSH1 0xFF AND ISZERO JUMPDEST DUP1 ISZERO PUSH2 0xA29 JUMPI POP PUSH1 0x3 PUSH1 0x0 CALLER PUSH20 0xFFFFFFFFFFFFFFFFFFFFFFFFFFFFFFFFFFFFFFFF AND PUSH20 0xFFFFFFFFFFFFFFFFFFFFFFFFFFFFFFFFFFFFFFFF AND DUP2 MSTORE PUSH1 0x20 ADD SWAP1 DUP2 MSTORE PUSH1 0x20 ADD PUSH1 0x0 KECCAK256 PUSH1 0x0 SWAP1 SLOAD SWAP1 PUSH2 0x100 EXP SWAP1 DIV PUSH1 0xFF AND ISZERO JUMPDEST PUSH2 0xA9B JUMPI PUSH1 0x40 MLOAD PUSH32 0x8C379A000000000000000000000000000000000000000000000000000000000 DUP2 MSTORE PUSH1 0x4 ADD DUP1 DUP1 PUSH1 0x20 ADD DUP3 DUP2 SUB DUP3 MSTORE PUSH1 0x14 DUP2 MSTORE PUSH1 0x20 ADD DUP1 PUSH32 0x4164647265737320616C72656164792075736564000000000000000000000000 DUP2 MSTORE POP PUSH1 0x20 ADD SWAP2 POP POP PUSH1 0x40 MLOAD DUP1 SWAP2 SUB SWAP1 REVERT JUMPDEST PUSH1 0x1 CALLVALUE LT ISZERO PUSH2 0xB12 JUMPI PUSH1 0x40 MLOAD PUSH32 0x8C379A000000000000000000000000000000000000000000000000000000000 DUP2 MSTORE PUSH1 0x4 ADD DUP1 DUP1 PUSH1 0x20 ADD DUP3 DUP2 SUB DUP3 MSTORE PUSH1 0x1A DUP2 MSTORE PUSH1 0x20 ADD DUP1 PUSH32 0x41646D697373696F6E2066656520696E73756666696369656E74000000000000 DUP2 MSTORE POP PUSH1 0x20 ADD SWAP2 POP POP PUSH1 0x40 MLOAD DUP1 SWAP2 SUB SWAP1 REVERT JUMPDEST PUSH1 0x1 PUSH1 0x3 PUSH1 0x0 CALLER PUSH20 0xFFFFFFFFFFFFFFFFFFFFFFFFFFFFFFFFFFFFFFFF AND PUSH20 0xFFFFFFFFFFFFFFFFFFFFFFFFFFFFFFFFFFFFFFFF AND DUP2 MSTORE PUSH1 0x20 ADD SWAP1 DUP2 MSTORE PUSH1 0x20 ADD PUSH1 0x0 KECCAK256 PUSH1 0x0 PUSH2 0x100 EXP DUP2 SLOAD DUP2 PUSH1 0xFF MUL NOT AND SWAP1 DUP4 ISZERO ISZERO MUL OR SWAP1 SSTORE POP PUSH32 0x41360FC84C3F602746DD7837265B2CC28103CA5D89B494AEA5FE33F549DDCB7A CALLER PUSH1 0x40 MLOAD DUP1 DUP3 PUSH20 0xFFFFFFFFFFFFFFFFFFFFFFFFFFFFFFFFFFFFFFFF AND DUP2 MSTORE PUSH1 0x20 ADD SWAP2 POP POP PUSH1 0x40 MLOAD DUP1 SWAP2 SUB SWAP1 LOG1 JUMP INVALID LOG2 PUSH5 0x6970667358 0x22 SLT KECCAK256 0x2C SWAP3 0xB8 0x49 PUSH13 0x40BA463024A89A907877A697DA 0xFB POP 0xC3 REVERT DUP4 CHAINID 0xE0 0x48 0xEE 0xD4 0x23 SWAP14 0x5E SMOD PUSH5 0x736F6C6343 STOP MOD 0xC STOP CALLER PUSH1 0x80 PUSH1 0x40 MSTORE CALLVALUE DUP1 ISZERO PUSH2 0x10 JUMPI PUSH1 0x0 DUP1 REVERT JUMPDEST POP PUSH1 0x40 MLOAD PUSH2 0x6AD CODESIZE SUB DUP1 PUSH2 0x6AD DUP4 CODECOPY DUP2 DUP2 ADD PUSH1 0x40 MSTORE PUSH1 0x20 DUP2 LT ISZERO PUSH2 0x33 JUMPI PUSH1 0x0 DUP1 REVERT JUMPDEST DUP2 ADD SWAP1 DUP1 DUP1 MLOAD SWAP1 PUSH1 0x20 ADD SWAP1 SWAP3 SWAP2 SWAP1 POP POP POP DUP1 PUSH1 0x0 DUP1 PUSH2 0x100 EXP DUP2 SLOAD DUP2 PUSH20 0xFFFFFFFFFFFFFFFFFFFFFFFFFFFFFFFFFFFFFFFF MUL NOT AND SWAP1 DUP4 PUSH20 0xFFFFFFFFFFFFFFFFFFFFFFFFFFFFFFFFFFFFFFFF AND MUL OR SWAP1 SSTORE POP POP PUSH2 0x619 DUP1 PUSH2 0x94 PUSH1 0x0 CODECOPY PUSH1 0x0 RETURN INVALID PUSH1 0x80 PUSH1 0x40 MSTORE CALLVALUE DUP1 ISZERO PUSH2 0x10 JUMPI PUSH1 0x0 DUP1 REVERT JUMPDEST POP PUSH1 0x4 CALLDATASIZE LT PUSH2 0x36 JUMPI PUSH1 0x0 CALLDATALOAD PUSH1 0xE0 SHR DUP1 PUSH4 0x1EFBA23 EQ PUSH2 0x3B JUMPI DUP1 PUSH4 0x1D2C78F4 EQ PUSH2 0x89 JUMPI JUMPDEST PUSH1 0x0 DUP1 REVERT JUMPDEST PUSH2 0x87 PUSH1 0x4 DUP1 CALLDATASIZE SUB PUSH1 0x40 DUP2 LT ISZERO PUSH2 0x51 JUMPI PUSH1 0x0 DUP1 REVERT JUMPDEST DUP2 ADD SWAP1 DUP1 DUP1 CALLDATALOAD SWAP1 PUSH1 0x20 ADD SWAP1 SWAP3 SWAP2 SWAP1 DUP1 CALLDATALOAD PUSH20 0xFFFFFFFFFFFFFFFFFFFFFFFFFFFFFFFFFFFFFFFF AND SWAP1 PUSH1 0x20 ADD SWAP1 SWAP3 SWAP2 SWAP1 POP POP POP PUSH2 0xB7 JUMP JUMPDEST STOP JUMPDEST PUSH2 0xB5 PUSH1 0x4 DUP1 CALLDATASIZE SUB PUSH1 0x20 DUP2 LT ISZERO PUSH2 0x9F JUMPI PUSH1 0x0 DUP1 REVERT JUMPDEST DUP2 ADD SWAP1 DUP1 DUP1 CALLDATALOAD SWAP1 PUSH1 0x20 ADD SWAP1 SWAP3 SWAP2 SWAP1 POP POP POP PUSH2 0x370 JUMP JUMPDEST STOP JUMPDEST PUSH1 0x0 DUP1 SLOAD SWAP1 PUSH2 0x100 EXP SWAP1 DIV PUSH20 0xFFFFFFFFFFFFFFFFFFFFFFFFFFFFFFFFFFFFFFFF AND PUSH20 0xFFFFFFFFFFFFFFFFFFFFFFFFFFFFFFFFFFFFFFFF AND PUSH4 0xF767C6E9 CALLER PUSH1 0x40 MLOAD DUP3 PUSH4 0xFFFFFFFF AND PUSH1 0xE0 SHL DUP2 MSTORE PUSH1 0x4 ADD DUP1 DUP3 PUSH20 0xFFFFFFFFFFFFFFFFFFFFFFFFFFFFFFFFFFFFFFFF AND DUP2 MSTORE PUSH1 0x20 ADD SWAP2 POP POP PUSH1 0x20 PUSH1 0x40 MLOAD DUP1 DUP4 SUB DUP2 DUP7 DUP1 EXTCODESIZE ISZERO DUP1 ISZERO PUSH2 0x13E JUMPI PUSH1 0x0 DUP1 REVERT JUMPDEST POP GAS STATICCALL ISZERO DUP1 ISZERO PUSH2 0x152 JUMPI RETURNDATASIZE PUSH1 0x0 DUP1 RETURNDATACOPY RETURNDATASIZE PUSH1 0x0 REVERT JUMPDEST POP POP POP POP PUSH1 0x40 MLOAD RETURNDATASIZE PUSH1 0x20 DUP2 LT ISZERO PUSH2 0x168 JUMPI PUSH1 0x0 DUP1 REVERT JUMPDEST DUP2 ADD SWAP1 DUP1 DUP1 MLOAD SWAP1 PUSH1 0x20 ADD SWAP1 SWAP3 SWAP2 SWAP1 POP POP POP PUSH2 0x1EB JUMPI PUSH1 0x40 MLOAD PUSH32 0x8C379A000000000000000000000000000000000000000000000000000000000 DUP2 MSTORE PUSH1 0x4 ADD DUP1 DUP1 PUSH1 0x20 ADD DUP3 DUP2 SUB DUP3 MSTORE PUSH1 0x16 DUP2 MSTORE PUSH1 0x20 ADD DUP1 PUSH32 0x53656E646572206E6F7420617574686F72697A65642E00000000000000000000 DUP2 MSTORE POP PUSH1 0x20 ADD SWAP2 POP POP PUSH1 0x40 MLOAD DUP1 SWAP2 SUB SWAP1 REVERT JUMPDEST PUSH1 0x40 MLOAD DUP1 PUSH1 0x60 ADD PUSH1 0x40 MSTORE DUP1 CALLER PUSH20 0xFFFFFFFFFFFFFFFFFFFFFFFFFFFFFFFFFFFFFFFF AND DUP2 MSTORE PUSH1 0x20 ADD DUP3 PUSH20 0xFFFFFFFFFFFFFFFFFFFFFFFFFFFFFFFFFFFFFFFF AND DUP2 MSTORE PUSH1 0x20 ADD PUSH1 0x0 ISZERO ISZERO DUP2 MSTORE POP PUSH1 0x1 PUSH1 0x0 DUP5 DUP2 MSTORE PUSH1 0x20 ADD SWAP1 DUP2 MSTORE PUSH1 0x20 ADD PUSH1 0x0 KECCAK256 PUSH1 0x0 DUP3 ADD MLOAD DUP2 PUSH1 0x0 ADD PUSH1 0x0 PUSH2 0x100 EXP DUP2 SLOAD DUP2 PUSH20 0xFFFFFFFFFFFFFFFFFFFFFFFFFFFFFFFFFFFFFFFF MUL NOT AND SWAP1 DUP4 PUSH20 0xFFFFFFFFFFFFFFFFFFFFFFFFFFFFFFFFFFFFFFFF AND MUL OR SWAP1 SSTORE POP PUSH1 0x20 DUP3 ADD MLOAD DUP2 PUSH1 0x1 ADD PUSH1 0x0 PUSH2 0x100 EXP DUP2 SLOAD DUP2 PUSH20 0xFFFFFFFFFFFFFFFFFFFFFFFFFFFFFFFFFFFFFFFF MUL NOT AND SWAP1 DUP4 PUSH20 0xFFFFFFFFFFFFFFFFFFFFFFFFFFFFFFFFFFFFFFFF AND MUL OR SWAP1 SSTORE POP PUSH1 0x40 DUP3 ADD MLOAD DUP2 PUSH1 0x1 ADD PUSH1 0x14 PUSH2 0x100 EXP DUP2 SLOAD DUP2 PUSH1 0xFF MUL NOT AND SWAP1 DUP4 ISZERO ISZERO MUL OR SWAP1 SSTORE POP SWAP1 POP POP PUSH32 0x8D740F86CF4D186F81B02D3740C671FB7ADA67A8329869B5C274CB22D1FE6EEB DUP3 CALLER DUP4 PUSH1 0x40 MLOAD DUP1 DUP5 DUP2 MSTORE PUSH1 0x20 ADD DUP4 PUSH20 0xFFFFFFFFFFFFFFFFFFFFFFFFFFFFFFFFFFFFFFFF AND DUP2 MSTORE PUSH1 0x20 ADD DUP3 PUSH20 0xFFFFFFFFFFFFFFFFFFFFFFFFFFFFFFFFFFFFFFFF AND DUP2 MSTORE PUSH1 0x20 ADD SWAP4 POP POP POP POP PUSH1 0x40 MLOAD DUP1 SWAP2 SUB SWAP1 LOG1 POP POP JUMP JUMPDEST PUSH1 0x0 DUP1 SLOAD SWAP1 PUSH2 0x100 EXP SWAP1 DIV PUSH20 0xFFFFFFFFFFFFFFFFFFFFFFFFFFFFFFFFFFFFFFFF AND PUSH20 0xFFFFFFFFFFFFFFFFFFFFFFFFFFFFFFFFFFFFFFFF AND PUSH4 0x79EA51D4 CALLER PUSH1 0x40 MLOAD DUP3 PUSH4 0xFFFFFFFF AND PUSH1 0xE0 SHL DUP2 MSTORE PUSH1 0x4 ADD DUP1 DUP3 PUSH20 0xFFFFFFFFFFFFFFFFFFFFFFFFFFFFFFFFFFFFFFFF AND DUP2 MSTORE PUSH1 0x20 ADD SWAP2 POP POP PUSH1 0x20 PUSH1 0x40 MLOAD DUP1 DUP4 SUB DUP2 DUP7 DUP1 EXTCODESIZE ISZERO DUP1 ISZERO PUSH2 0x3F7 JUMPI PUSH1 0x0 DUP1 REVERT JUMPDEST POP GAS STATICCALL ISZERO DUP1 ISZERO PUSH2 0x40B JUMPI RETURNDATASIZE PUSH1 0x0 DUP1 RETURNDATACOPY RETURNDATASIZE PUSH1 0x0 REVERT JUMPDEST POP POP POP POP PUSH1 0x40 MLOAD RETURNDATASIZE PUSH1 0x20 DUP2 LT ISZERO PUSH2 0x421 JUMPI PUSH1 0x0 DUP1 REVERT JUMPDEST DUP2 ADD SWAP1 DUP1 DUP1 MLOAD SWAP1 PUSH1 0x20 ADD SWAP1 SWAP3 SWAP2 SWAP1 POP POP POP PUSH2 0x4A4 JUMPI PUSH1 0x40 MLOAD PUSH32 0x8C379A000000000000000000000000000000000000000000000000000000000 DUP2 MSTORE PUSH1 0x4 ADD DUP1 DUP1 PUSH1 0x20 ADD DUP3 DUP2 SUB DUP3 MSTORE PUSH1 0x16 DUP2 MSTORE PUSH1 0x20 ADD DUP1 PUSH32 0x53656E646572206E6F7420617574686F72697A65642E00000000000000000000 DUP2 MSTORE POP PUSH1 0x20 ADD SWAP2 POP POP PUSH1 0x40 MLOAD DUP1 SWAP2 SUB SWAP1 REVERT JUMPDEST CALLER PUSH20 0xFFFFFFFFFFFFFFFFFFFFFFFFFFFFFFFFFFFFFFFF AND PUSH1 0x1 PUSH1 0x0 DUP4 DUP2 MSTORE PUSH1 0x20 ADD SWAP1 DUP2 MSTORE PUSH1 0x20 ADD PUSH1 0x0 KECCAK256 PUSH1 0x1 ADD PUSH1 0x0 SWAP1 SLOAD SWAP1 PUSH2 0x100 EXP SWAP1 DIV PUSH20 0xFFFFFFFFFFFFFFFFFFFFFFFFFFFFFFFFFFFFFFFF AND PUSH20 0xFFFFFFFFFFFFFFFFFFFFFFFFFFFFFFFFFFFFFFFF AND EQ PUSH2 0x57B JUMPI PUSH1 0x40 MLOAD PUSH32 0x8C379A000000000000000000000000000000000000000000000000000000000 DUP2 MSTORE PUSH1 0x4 ADD DUP1 DUP1 PUSH1 0x20 ADD DUP3 DUP2 SUB DUP3 MSTORE PUSH1 0x1A DUP2 MSTORE PUSH1 0x20 ADD DUP1 PUSH32 0x4469737472696275746F72206E6F7420617574686F72697A6564000000000000 DUP2 MSTORE POP PUSH1 0x20 ADD SWAP2 POP POP PUSH1 0x40 MLOAD DUP1 SWAP2 SUB SWAP1 REVERT JUMPDEST PUSH1 0x1 DUP1 PUSH1 0x0 DUP4 DUP2 MSTORE PUSH1 0x20 ADD SWAP1 DUP2 MSTORE PUSH1 0x20 ADD PUSH1 0x0 KECCAK256 PUSH1 0x1 ADD PUSH1 0x14 PUSH2 0x100 EXP DUP2 SLOAD DUP2 PUSH1 0xFF MUL NOT AND SWAP1 DUP4 ISZERO ISZERO MUL OR SWAP1 SSTORE POP PUSH32 0xE21FE02C1589242B30BE2057F54FD54B7DDC463695D19FFDB54F9EBB0584F24A DUP2 PUSH1 0x40 MLOAD DUP1 DUP3 DUP2 MSTORE PUSH1 0x20 ADD SWAP2 POP POP PUSH1 0x40 MLOAD DUP1 SWAP2 SUB SWAP1 LOG1 POP JUMP INVALID LOG2 PUSH5 0x6970667358 0x22 SLT KECCAK256 OR 0xBB 0xE9 0xEE 0xCA DUP1 SSTORE ORIGIN PUSH1 0xD9 RETURNDATASIZE 0xDE ADDRESS 0x4E REVERT PUSH17 0x3812965341718FF9AB8319A5A9F6BFEE64 PUSH20 0x6F6C634300060C00336080604052348015610010 JUMPI PUSH1 0x0 DUP1 REVERT JUMPDEST POP PUSH1 0x40 MLOAD PUSH2 0x1294 CODESIZE SUB DUP1 PUSH2 0x1294 DUP4 CODECOPY DUP2 DUP2 ADD PUSH1 0x40 MSTORE PUSH1 0x20 DUP2 LT ISZERO PUSH2 0x33 JUMPI PUSH1 0x0 DUP1 REVERT JUMPDEST DUP2 ADD SWAP1 DUP1 DUP1 MLOAD SWAP1 PUSH1 0x20 ADD SWAP1 SWAP3 SWAP2 SWAP1 POP POP POP DUP1 PUSH1 0x0 DUP1 PUSH2 0x100 EXP DUP2 SLOAD DUP2 PUSH20 0xFFFFFFFFFFFFFFFFFFFFFFFFFFFFFFFFFFFFFFFF MUL NOT AND SWAP1 DUP4 PUSH20 0xFFFFFFFFFFFFFFFFFFFFFFFFFFFFFFFFFFFFFFFF AND MUL OR SWAP1 SSTORE POP CALLER TIMESTAMP ADDRESS PUSH1 0x40 MLOAD PUSH1 0x20 ADD DUP1 DUP5 PUSH20 0xFFFFFFFFFFFFFFFFFFFFFFFFFFFFFFFFFFFFFFFF AND PUSH1 0x60 SHL DUP2 MSTORE PUSH1 0x14 ADD DUP4 DUP2 MSTORE PUSH1 0x20 ADD DUP3 PUSH20 0xFFFFFFFFFFFFFFFFFFFFFFFFFFFFFFFFFFFFFFFF AND PUSH1 0x60 SHL DUP2 MSTORE PUSH1 0x14 ADD SWAP4 POP POP POP POP PUSH1 0x40 MLOAD PUSH1 0x20 DUP2 DUP4 SUB SUB DUP2 MSTORE SWAP1 PUSH1 0x40 MSTORE DUP1 MLOAD SWAP1 PUSH1 0x20 ADD KECCAK256 PUSH1 0x0 SHR PUSH1 0x1 DUP2 SWAP1 SSTORE POP POP PUSH2 0x118E DUP1 PUSH2 0x106 PUSH1 0x0 CODECOPY PUSH1 0x0 RETURN INVALID PUSH1 0x80 PUSH1 0x40 MSTORE CALLVALUE DUP1 ISZERO PUSH2 0x10 JUMPI PUSH1 0x0 DUP1 REVERT JUMPDEST POP PUSH1 0x4 CALLDATASIZE LT PUSH2 0x62 JUMPI PUSH1 0x0 CALLDATALOAD PUSH1 0xE0 SHR DUP1 PUSH4 0x474DA79A EQ PUSH2 0x67 JUMPI DUP1 PUSH4 0x53E8A550 EQ PUSH2 0x103 JUMPI DUP1 PUSH4 0xAA9A533F EQ PUSH2 0x121 JUMPI DUP1 PUSH4 0xB866CF73 EQ PUSH2 0x16F JUMPI DUP1 PUSH4 0xE4662D86 EQ PUSH2 0x1A9 JUMPI DUP1 PUSH4 0xF5D25469 EQ PUSH2 0x201 JUMPI JUMPDEST PUSH1 0x0 DUP1 REVERT JUMPDEST PUSH2 0x93 PUSH1 0x4 DUP1 CALLDATASIZE SUB PUSH1 0x20 DUP2 LT ISZERO PUSH2 0x7D JUMPI PUSH1 0x0 DUP1 REVERT JUMPDEST DUP2 ADD SWAP1 DUP1 DUP1 CALLDATALOAD SWAP1 PUSH1 0x20 ADD SWAP1 SWAP3 SWAP2 SWAP1 POP POP POP PUSH2 0x239 JUMP JUMPDEST PUSH1 0x40 MLOAD DUP1 DUP8 PUSH20 0xFFFFFFFFFFFFFFFFFFFFFFFFFFFFFFFFFFFFFFFF AND DUP2 MSTORE PUSH1 0x20 ADD DUP7 PUSH20 0xFFFFFFFFFFFFFFFFFFFFFFFFFFFFFFFFFFFFFFFF AND DUP2 MSTORE PUSH1 0x20 ADD DUP6 DUP2 MSTORE PUSH1 0x20 ADD DUP5 DUP2 MSTORE PUSH1 0x20 ADD DUP4 DUP2 MSTORE PUSH1 0x20 ADD DUP3 PUSH1 0x4 DUP2 GT ISZERO PUSH2 0xED JUMPI INVALID JUMPDEST DUP2 MSTORE PUSH1 0x20 ADD SWAP7 POP POP POP POP POP POP POP PUSH1 0x40 MLOAD DUP1 SWAP2 SUB SWAP1 RETURN JUMPDEST PUSH2 0x10B PUSH2 0x2C2 JUMP JUMPDEST PUSH1 0x40 MLOAD DUP1 DUP3 DUP2 MSTORE PUSH1 0x20 ADD SWAP2 POP POP PUSH1 0x40 MLOAD DUP1 SWAP2 SUB SWAP1 RETURN JUMPDEST PUSH2 0x16D PUSH1 0x4 DUP1 CALLDATASIZE SUB PUSH1 0x40 DUP2 LT ISZERO PUSH2 0x137 JUMPI PUSH1 0x0 DUP1 REVERT JUMPDEST DUP2 ADD SWAP1 DUP1 DUP1 CALLDATALOAD SWAP1 PUSH1 0x20 ADD SWAP1 SWAP3 SWAP2 SWAP1 DUP1 CALLDATALOAD PUSH20 0xFFFFFFFFFFFFFFFFFFFFFFFFFFFFFFFFFFFFFFFF AND SWAP1 PUSH1 0x20 ADD SWAP1 SWAP3 SWAP2 SWAP1 POP POP POP PUSH2 0x2C8 JUMP JUMPDEST STOP JUMPDEST PUSH2 0x1A7 PUSH1 0x4 DUP1 CALLDATASIZE SUB PUSH1 0x40 DUP2 LT ISZERO PUSH2 0x185 JUMPI PUSH1 0x0 DUP1 REVERT JUMPDEST DUP2 ADD SWAP1 DUP1 DUP1 CALLDATALOAD SWAP1 PUSH1 0x20 ADD SWAP1 SWAP3 SWAP2 SWAP1 DUP1 CALLDATALOAD ISZERO ISZERO SWAP1 PUSH1 0x20 ADD SWAP1 SWAP3 SWAP2 SWAP1 POP POP POP PUSH2 0x66F JUMP JUMPDEST STOP JUMPDEST PUSH2 0x1FF PUSH1 0x4 DUP1 CALLDATASIZE SUB PUSH1 0x60 DUP2 LT ISZERO PUSH2 0x1BF JUMPI PUSH1 0x0 DUP1 REVERT JUMPDEST DUP2 ADD SWAP1 DUP1 DUP1 CALLDATALOAD SWAP1 PUSH1 0x20 ADD SWAP1 SWAP3 SWAP2 SWAP1 DUP1 CALLDATALOAD SWAP1 PUSH1 0x20 ADD SWAP1 SWAP3 SWAP2 SWAP1 DUP1 CALLDATALOAD PUSH20 0xFFFFFFFFFFFFFFFFFFFFFFFFFFFFFFFFFFFFFFFF AND SWAP1 PUSH1 0x20 ADD SWAP1 SWAP3 SWAP2 SWAP1 POP POP POP PUSH2 0x97B JUMP JUMPDEST STOP JUMPDEST PUSH2 0x237 PUSH1 0x4 DUP1 CALLDATASIZE SUB PUSH1 0x40 DUP2 LT ISZERO PUSH2 0x217 JUMPI PUSH1 0x0 DUP1 REVERT JUMPDEST DUP2 ADD SWAP1 DUP1 DUP1 CALLDATALOAD SWAP1 PUSH1 0x20 ADD SWAP1 SWAP3 SWAP2 SWAP1 DUP1 CALLDATALOAD SWAP1 PUSH1 0x20 ADD SWAP1 SWAP3 SWAP2 SWAP1 POP POP POP PUSH2 0xD90 JUMP JUMPDEST STOP JUMPDEST PUSH1 0x2 PUSH1 0x20 MSTORE DUP1 PUSH1 0x0 MSTORE PUSH1 0x40 PUSH1 0x0 KECCAK256 PUSH1 0x0 SWAP2 POP SWAP1 POP DUP1 PUSH1 0x0 ADD PUSH1 0x0 SWAP1 SLOAD SWAP1 PUSH2 0x100 EXP SWAP1 DIV PUSH20 0xFFFFFFFFFFFFFFFFFFFFFFFFFFFFFFFFFFFFFFFF AND SWAP1 DUP1 PUSH1 0x1 ADD PUSH1 0x0 SWAP1 SLOAD SWAP1 PUSH2 0x100 EXP SWAP1 DIV PUSH20 0xFFFFFFFFFFFFFFFFFFFFFFFFFFFFFFFFFFFFFFFF AND SWAP1 DUP1 PUSH1 0x2 ADD SLOAD SWAP1 DUP1 PUSH1 0x3 ADD SLOAD SWAP1 DUP1 PUSH1 0x4 ADD SLOAD SWAP1 DUP1 PUSH1 0x5 ADD PUSH1 0x0 SWAP1 SLOAD SWAP1 PUSH2 0x100 EXP SWAP1 DIV PUSH1 0xFF AND SWAP1 POP DUP7 JUMP JUMPDEST PUSH1 0x1 SLOAD DUP2 JUMP JUMPDEST PUSH1 0x0 DUP1 SLOAD SWAP1 PUSH2 0x100 EXP SWAP1 DIV PUSH20 0xFFFFFFFFFFFFFFFFFFFFFFFFFFFFFFFFFFFFFFFF AND PUSH20 0xFFFFFFFFFFFFFFFFFFFFFFFFFFFFFFFFFFFFFFFF AND PUSH4 0x20FE4CFF CALLER PUSH1 0x40 MLOAD DUP3 PUSH4 0xFFFFFFFF AND PUSH1 0xE0 SHL DUP2 MSTORE PUSH1 0x4 ADD DUP1 DUP3 PUSH20 0xFFFFFFFFFFFFFFFFFFFFFFFFFFFFFFFFFFFFFFFF AND DUP2 MSTORE PUSH1 0x20 ADD SWAP2 POP POP PUSH1 0x20 PUSH1 0x40 MLOAD DUP1 DUP4 SUB DUP2 DUP7 DUP1 EXTCODESIZE ISZERO DUP1 ISZERO PUSH2 0x34F JUMPI PUSH1 0x0 DUP1 REVERT JUMPDEST POP GAS STATICCALL ISZERO DUP1 ISZERO PUSH2 0x363 JUMPI RETURNDATASIZE PUSH1 0x0 DUP1 RETURNDATACOPY RETURNDATASIZE PUSH1 0x0 REVERT JUMPDEST POP POP POP POP PUSH1 0x40 MLOAD RETURNDATASIZE PUSH1 0x20 DUP2 LT ISZERO PUSH2 0x379 JUMPI PUSH1 0x0 DUP1 REVERT JUMPDEST DUP2 ADD SWAP1 DUP1 DUP1 MLOAD SWAP1 PUSH1 0x20 ADD SWAP1 SWAP3 SWAP2 SWAP1 POP POP POP PUSH2 0x3FC JUMPI PUSH1 0x40 MLOAD PUSH32 0x8C379A000000000000000000000000000000000000000000000000000000000 DUP2 MSTORE PUSH1 0x4 ADD DUP1 DUP1 PUSH1 0x20 ADD DUP3 DUP2 SUB DUP3 MSTORE PUSH1 0x16 DUP2 MSTORE PUSH1 0x20 ADD DUP1 PUSH32 0x53656E646572206E6F7420617574686F72697A65642E00000000000000000000 DUP2 MSTORE POP PUSH1 0x20 ADD SWAP2 POP POP PUSH1 0x40 MLOAD DUP1 SWAP2 SUB SWAP1 REVERT JUMPDEST PUSH1 0x2 PUSH1 0x4 DUP2 GT ISZERO PUSH2 0x409 JUMPI INVALID JUMPDEST PUSH1 0x2 PUSH1 0x0 DUP5 DUP2 MSTORE PUSH1 0x20 ADD SWAP1 DUP2 MSTORE PUSH1 0x20 ADD PUSH1 0x0 KECCAK256 PUSH1 0x5 ADD PUSH1 0x0 SWAP1 SLOAD SWAP1 PUSH2 0x100 EXP SWAP1 DIV PUSH1 0xFF AND PUSH1 0x4 DUP2 GT ISZERO PUSH2 0x438 JUMPI INVALID JUMPDEST EQ PUSH2 0x4AB JUMPI PUSH1 0x40 MLOAD PUSH32 0x8C379A000000000000000000000000000000000000000000000000000000000 DUP2 MSTORE PUSH1 0x4 ADD DUP1 DUP1 PUSH1 0x20 ADD DUP3 DUP2 SUB DUP3 MSTORE PUSH1 0x17 DUP2 MSTORE PUSH1 0x20 ADD DUP1 PUSH32 0x436F6E7472616374206E6F7420636F6E6669726D65642E000000000000000000 DUP2 MSTORE POP PUSH1 0x20 ADD SWAP2 POP POP PUSH1 0x40 MLOAD DUP1 SWAP2 SUB SWAP1 REVERT JUMPDEST PUSH1 0x0 DUP1 SLOAD SWAP1 PUSH2 0x100 EXP SWAP1 DIV PUSH20 0xFFFFFFFFFFFFFFFFFFFFFFFFFFFFFFFFFFFFFFFF AND PUSH20 0xFFFFFFFFFFFFFFFFFFFFFFFFFFFFFFFFFFFFFFFF AND PUSH4 0x79EA51D4 DUP3 PUSH1 0x40 MLOAD DUP3 PUSH4 0xFFFFFFFF AND PUSH1 0xE0 SHL DUP2 MSTORE PUSH1 0x4 ADD DUP1 DUP3 PUSH20 0xFFFFFFFFFFFFFFFFFFFFFFFFFFFFFFFFFFFFFFFF AND DUP2 MSTORE PUSH1 0x20 ADD SWAP2 POP POP PUSH1 0x20 PUSH1 0x40 MLOAD DUP1 DUP4 SUB DUP2 DUP7 DUP1 EXTCODESIZE ISZERO DUP1 ISZERO PUSH2 0x532 JUMPI PUSH1 0x0 DUP1 REVERT JUMPDEST POP GAS STATICCALL ISZERO DUP1 ISZERO PUSH2 0x546 JUMPI RETURNDATASIZE PUSH1 0x0 DUP1 RETURNDATACOPY RETURNDATASIZE PUSH1 0x0 REVERT JUMPDEST POP POP POP POP PUSH1 0x40 MLOAD RETURNDATASIZE PUSH1 0x20 DUP2 LT ISZERO PUSH2 0x55C JUMPI PUSH1 0x0 DUP1 REVERT JUMPDEST DUP2 ADD SWAP1 DUP1 DUP1 MLOAD SWAP1 PUSH1 0x20 ADD SWAP1 SWAP3 SWAP2 SWAP1 POP POP POP PUSH2 0x5DF JUMPI PUSH1 0x40 MLOAD PUSH32 0x8C379A000000000000000000000000000000000000000000000000000000000 DUP2 MSTORE PUSH1 0x4 ADD DUP1 DUP1 PUSH1 0x20 ADD DUP3 DUP2 SUB DUP3 MSTORE PUSH1 0x1F DUP2 MSTORE PUSH1 0x20 ADD DUP1 PUSH32 0x4469737472696275746F7220616461646472657373206E6F742076616C696400 DUP2 MSTORE POP PUSH1 0x20 ADD SWAP2 POP POP PUSH1 0x40 MLOAD DUP1 SWAP2 SUB SWAP1 REVERT JUMPDEST DUP1 PUSH1 0x2 PUSH1 0x0 DUP5 DUP2 MSTORE PUSH1 0x20 ADD SWAP1 DUP2 MSTORE PUSH1 0x20 ADD PUSH1 0x0 KECCAK256 PUSH1 0x1 ADD PUSH1 0x0 PUSH2 0x100 EXP DUP2 SLOAD DUP2 PUSH20 0xFFFFFFFFFFFFFFFFFFFFFFFFFFFFFFFFFFFFFFFF MUL NOT AND SWAP1 DUP4 PUSH20 0xFFFFFFFFFFFFFFFFFFFFFFFFFFFFFFFFFFFFFFFF AND MUL OR SWAP1 SSTORE POP PUSH32 0xD79EF0D7F68DF3D827E7C4B6A13EC4570E9A30515C4717BBAA647DA58CA68BE1 DUP3 PUSH1 0x40 MLOAD DUP1 DUP3 DUP2 MSTORE PUSH1 0x20 ADD SWAP2 POP POP PUSH1 0x40 MLOAD DUP1 SWAP2 SUB SWAP1 LOG1 POP POP JUMP JUMPDEST PUSH1 0x0 DUP1 SLOAD SWAP1 PUSH2 0x100 EXP SWAP1 DIV PUSH20 0xFFFFFFFFFFFFFFFFFFFFFFFFFFFFFFFFFFFFFFFF AND PUSH20 0xFFFFFFFFFFFFFFFFFFFFFFFFFFFFFFFFFFFFFFFF AND PUSH4 0x20FE4CFF CALLER PUSH1 0x40 MLOAD DUP3 PUSH4 0xFFFFFFFF AND PUSH1 0xE0 SHL DUP2 MSTORE PUSH1 0x4 ADD DUP1 DUP3 PUSH20 0xFFFFFFFFFFFFFFFFFFFFFFFFFFFFFFFFFFFFFFFF AND DUP2 MSTORE PUSH1 0x20 ADD SWAP2 POP POP PUSH1 0x20 PUSH1 0x40 MLOAD DUP1 DUP4 SUB DUP2 DUP7 DUP1 EXTCODESIZE ISZERO DUP1 ISZERO PUSH2 0x6F6 JUMPI PUSH1 0x0 DUP1 REVERT JUMPDEST POP GAS STATICCALL ISZERO DUP1 ISZERO PUSH2 0x70A JUMPI RETURNDATASIZE PUSH1 0x0 DUP1 RETURNDATACOPY RETURNDATASIZE PUSH1 0x0 REVERT JUMPDEST POP POP POP POP PUSH1 0x40 MLOAD RETURNDATASIZE PUSH1 0x20 DUP2 LT ISZERO PUSH2 0x720 JUMPI PUSH1 0x0 DUP1 REVERT JUMPDEST DUP2 ADD SWAP1 DUP1 DUP1 MLOAD SWAP1 PUSH1 0x20 ADD SWAP1 SWAP3 SWAP2 SWAP1 POP POP POP PUSH2 0x7A3 JUMPI PUSH1 0x40 MLOAD PUSH32 0x8C379A000000000000000000000000000000000000000000000000000000000 DUP2 MSTORE PUSH1 0x4 ADD DUP1 DUP1 PUSH1 0x20 ADD DUP3 DUP2 SUB DUP3 MSTORE PUSH1 0x16 DUP2 MSTORE PUSH1 0x20 ADD DUP1 PUSH32 0x53656E646572206E6F7420617574686F72697A65642E00000000000000000000 DUP2 MSTORE POP PUSH1 0x20 ADD SWAP2 POP POP PUSH1 0x40 MLOAD DUP1 SWAP2 SUB SWAP1 REVERT JUMPDEST PUSH1 0x1 PUSH1 0x4 DUP2 GT ISZERO PUSH2 0x7B0 JUMPI INVALID JUMPDEST PUSH1 0x2 PUSH1 0x0 DUP5 DUP2 MSTORE PUSH1 0x20 ADD SWAP1 DUP2 MSTORE PUSH1 0x20 ADD PUSH1 0x0 KECCAK256 PUSH1 0x5 ADD PUSH1 0x0 SWAP1 SLOAD SWAP1 PUSH2 0x100 EXP SWAP1 DIV PUSH1 0xFF AND PUSH1 0x4 DUP2 GT ISZERO PUSH2 0x7DF JUMPI INVALID JUMPDEST EQ PUSH2 0x835 JUMPI PUSH1 0x40 MLOAD PUSH32 0x8C379A000000000000000000000000000000000000000000000000000000000 DUP2 MSTORE PUSH1 0x4 ADD DUP1 DUP1 PUSH1 0x20 ADD DUP3 DUP2 SUB DUP3 MSTORE PUSH1 0x2D DUP2 MSTORE PUSH1 0x20 ADD DUP1 PUSH2 0x1108 PUSH1 0x2D SWAP2 CODECOPY PUSH1 0x40 ADD SWAP2 POP POP PUSH1 0x40 MLOAD DUP1 SWAP2 SUB SWAP1 REVERT JUMPDEST DUP1 ISZERO PUSH2 0x93E JUMPI PUSH1 0x2 DUP1 PUSH1 0x0 DUP5 DUP2 MSTORE PUSH1 0x20 ADD SWAP1 DUP2 MSTORE PUSH1 0x20 ADD PUSH1 0x0 KECCAK256 PUSH1 0x5 ADD PUSH1 0x0 PUSH2 0x100 EXP DUP2 SLOAD DUP2 PUSH1 0xFF MUL NOT AND SWAP1 DUP4 PUSH1 0x4 DUP2 GT ISZERO PUSH2 0x86D JUMPI INVALID JUMPDEST MUL OR SWAP1 SSTORE POP PUSH32 0xDCC3D52102DA88C42CDBA7590B58C66C6575977E09B624AEAF616DD03A0CB5E5 DUP3 PUSH1 0x2 PUSH1 0x0 DUP6 DUP2 MSTORE PUSH1 0x20 ADD SWAP1 DUP2 MSTORE PUSH1 0x20 ADD PUSH1 0x0 KECCAK256 PUSH1 0x3 ADD SLOAD PUSH1 0x2 PUSH1 0x0 DUP7 DUP2 MSTORE PUSH1 0x20 ADD SWAP1 DUP2 MSTORE PUSH1 0x20 ADD PUSH1 0x0 KECCAK256 PUSH1 0x0 ADD PUSH1 0x0 SWAP1 SLOAD SWAP1 PUSH2 0x100 EXP SWAP1 DIV PUSH20 0xFFFFFFFFFFFFFFFFFFFFFFFFFFFFFFFFFFFFFFFF AND PUSH1 0x2 PUSH1 0x0 DUP8 DUP2 MSTORE PUSH1 0x20 ADD SWAP1 DUP2 MSTORE PUSH1 0x20 ADD PUSH1 0x0 KECCAK256 PUSH1 0x4 ADD SLOAD PUSH1 0x40 MLOAD DUP1 DUP6 DUP2 MSTORE PUSH1 0x20 ADD DUP5 DUP2 MSTORE PUSH1 0x20 ADD DUP4 PUSH20 0xFFFFFFFFFFFFFFFFFFFFFFFFFFFFFFFFFFFFFFFF AND DUP2 MSTORE PUSH1 0x20 ADD DUP3 DUP2 MSTORE PUSH1 0x20 ADD SWAP5 POP POP POP POP POP PUSH1 0x40 MLOAD DUP1 SWAP2 SUB SWAP1 LOG1 PUSH2 0x977 JUMP JUMPDEST PUSH1 0x3 PUSH1 0x2 PUSH1 0x0 DUP5 DUP2 MSTORE PUSH1 0x20 ADD SWAP1 DUP2 MSTORE PUSH1 0x20 ADD PUSH1 0x0 KECCAK256 PUSH1 0x5 ADD PUSH1 0x0 PUSH2 0x100 EXP DUP2 SLOAD DUP2 PUSH1 0xFF MUL NOT AND SWAP1 DUP4 PUSH1 0x4 DUP2 GT ISZERO PUSH2 0x971 JUMPI INVALID JUMPDEST MUL OR SWAP1 SSTORE POP JUMPDEST POP POP JUMP JUMPDEST PUSH1 0x0 DUP1 SLOAD SWAP1 PUSH2 0x100 EXP SWAP1 DIV PUSH20 0xFFFFFFFFFFFFFFFFFFFFFFFFFFFFFFFFFFFFFFFF AND PUSH20 0xFFFFFFFFFFFFFFFFFFFFFFFFFFFFFFFFFFFFFFFF AND PUSH4 0x20FE4CFF CALLER PUSH1 0x40 MLOAD DUP3 PUSH4 0xFFFFFFFF AND PUSH1 0xE0 SHL DUP2 MSTORE PUSH1 0x4 ADD DUP1 DUP3 PUSH20 0xFFFFFFFFFFFFFFFFFFFFFFFFFFFFFFFFFFFFFFFF AND DUP2 MSTORE PUSH1 0x20 ADD SWAP2 POP POP PUSH1 0x20 PUSH1 0x40 MLOAD DUP1 DUP4 SUB DUP2 DUP7 DUP1 EXTCODESIZE ISZERO DUP1 ISZERO PUSH2 0xA02 JUMPI PUSH1 0x0 DUP1 REVERT JUMPDEST POP GAS STATICCALL ISZERO DUP1 ISZERO PUSH2 0xA16 JUMPI RETURNDATASIZE PUSH1 0x0 DUP1 RETURNDATACOPY RETURNDATASIZE PUSH1 0x0 REVERT JUMPDEST POP POP POP POP PUSH1 0x40 MLOAD RETURNDATASIZE PUSH1 0x20 DUP2 LT ISZERO PUSH2 0xA2C JUMPI PUSH1 0x0 DUP1 REVERT JUMPDEST DUP2 ADD SWAP1 DUP1 DUP1 MLOAD SWAP1 PUSH1 0x20 ADD SWAP1 SWAP3 SWAP2 SWAP1 POP POP POP PUSH2 0xAAF JUMPI PUSH1 0x40 MLOAD PUSH32 0x8C379A000000000000000000000000000000000000000000000000000000000 DUP2 MSTORE PUSH1 0x4 ADD DUP1 DUP1 PUSH1 0x20 ADD DUP3 DUP2 SUB DUP3 MSTORE PUSH1 0x16 DUP2 MSTORE PUSH1 0x20 ADD DUP1 PUSH32 0x53656E646572206E6F7420617574686F72697A65642E00000000000000000000 DUP2 MSTORE POP PUSH1 0x20 ADD SWAP2 POP POP PUSH1 0x40 MLOAD DUP1 SWAP2 SUB SWAP1 REVERT JUMPDEST PUSH1 0x0 DUP1 SLOAD SWAP1 PUSH2 0x100 EXP SWAP1 DIV PUSH20 0xFFFFFFFFFFFFFFFFFFFFFFFFFFFFFFFFFFFFFFFF AND PUSH20 0xFFFFFFFFFFFFFFFFFFFFFFFFFFFFFFFFFFFFFFFF AND PUSH4 0xE0ACB7A3 DUP3 PUSH1 0x40 MLOAD DUP3 PUSH4 0xFFFFFFFF AND PUSH1 0xE0 SHL DUP2 MSTORE PUSH1 0x4 ADD DUP1 DUP3 PUSH20 0xFFFFFFFFFFFFFFFFFFFFFFFFFFFFFFFFFFFFFFFF AND DUP2 MSTORE PUSH1 0x20 ADD SWAP2 POP POP PUSH1 0x20 PUSH1 0x40 MLOAD DUP1 DUP4 SUB DUP2 DUP7 DUP1 EXTCODESIZE ISZERO DUP1 ISZERO PUSH2 0xB36 JUMPI PUSH1 0x0 DUP1 REVERT JUMPDEST POP GAS STATICCALL ISZERO DUP1 ISZERO PUSH2 0xB4A JUMPI RETURNDATASIZE PUSH1 0x0 DUP1 RETURNDATACOPY RETURNDATASIZE PUSH1 0x0 REVERT JUMPDEST POP POP POP POP PUSH1 0x40 MLOAD RETURNDATASIZE PUSH1 0x20 DUP2 LT ISZERO PUSH2 0xB60 JUMPI PUSH1 0x0 DUP1 REVERT JUMPDEST DUP2 ADD SWAP1 DUP1 DUP1 MLOAD SWAP1 PUSH1 0x20 ADD SWAP1 SWAP3 SWAP2 SWAP1 POP POP POP PUSH2 0xBC6 JUMPI PUSH1 0x40 MLOAD PUSH32 0x8C379A000000000000000000000000000000000000000000000000000000000 DUP2 MSTORE PUSH1 0x4 ADD DUP1 DUP1 PUSH1 0x20 ADD DUP3 DUP2 SUB DUP3 MSTORE PUSH1 0x24 DUP2 MSTORE PUSH1 0x20 ADD DUP1 PUSH2 0x1135 PUSH1 0x24 SWAP2 CODECOPY PUSH1 0x40 ADD SWAP2 POP POP PUSH1 0x40 MLOAD DUP1 SWAP2 SUB SWAP1 REVERT JUMPDEST PUSH1 0x1 PUSH1 0x0 DUP2 SLOAD DUP1 SWAP3 SWAP2 SWAP1 PUSH1 0x1 ADD SWAP2 SWAP1 POP SSTORE POP PUSH1 0x40 MLOAD DUP1 PUSH1 0xC0 ADD PUSH1 0x40 MSTORE DUP1 DUP3 PUSH20 0xFFFFFFFFFFFFFFFFFFFFFFFFFFFFFFFFFFFFFFFF AND DUP2 MSTORE PUSH1 0x20 ADD PUSH1 0x0 PUSH20 0xFFFFFFFFFFFFFFFFFFFFFFFFFFFFFFFFFFFFFFFF AND DUP2 MSTORE PUSH1 0x20 ADD DUP5 DUP2 MSTORE PUSH1 0x20 ADD DUP4 DUP2 MSTORE PUSH1 0x20 ADD PUSH1 0x0 DUP2 MSTORE PUSH1 0x20 ADD PUSH1 0x0 PUSH1 0x4 DUP2 GT ISZERO PUSH2 0xC3C JUMPI INVALID JUMPDEST DUP2 MSTORE POP PUSH1 0x2 PUSH1 0x0 PUSH1 0x1 SLOAD DUP2 MSTORE PUSH1 0x20 ADD SWAP1 DUP2 MSTORE PUSH1 0x20 ADD PUSH1 0x0 KECCAK256 PUSH1 0x0 DUP3 ADD MLOAD DUP2 PUSH1 0x0 ADD PUSH1 0x0 PUSH2 0x100 EXP DUP2 SLOAD DUP2 PUSH20 0xFFFFFFFFFFFFFFFFFFFFFFFFFFFFFFFFFFFFFFFF MUL NOT AND SWAP1 DUP4 PUSH20 0xFFFFFFFFFFFFFFFFFFFFFFFFFFFFFFFFFFFFFFFF AND MUL OR SWAP1 SSTORE POP PUSH1 0x20 DUP3 ADD MLOAD DUP2 PUSH1 0x1 ADD PUSH1 0x0 PUSH2 0x100 EXP DUP2 SLOAD DUP2 PUSH20 0xFFFFFFFFFFFFFFFFFFFFFFFFFFFFFFFFFFFFFFFF MUL NOT AND SWAP1 DUP4 PUSH20 0xFFFFFFFFFFFFFFFFFFFFFFFFFFFFFFFFFFFFFFFF AND MUL OR SWAP1 SSTORE POP PUSH1 0x40 DUP3 ADD MLOAD DUP2 PUSH1 0x2 ADD SSTORE PUSH1 0x60 DUP3 ADD MLOAD DUP2 PUSH1 0x3 ADD SSTORE PUSH1 0x80 DUP3 ADD MLOAD DUP2 PUSH1 0x4 ADD SSTORE PUSH1 0xA0 DUP3 ADD MLOAD DUP2 PUSH1 0x5 ADD PUSH1 0x0 PUSH2 0x100 EXP DUP2 SLOAD DUP2 PUSH1 0xFF MUL NOT AND SWAP1 DUP4 PUSH1 0x4 DUP2 GT ISZERO PUSH2 0xD24 JUMPI INVALID JUMPDEST MUL OR SWAP1 SSTORE POP SWAP1 POP POP PUSH32 0x4AA6814792FC6DC032DAC44DD1E4B2773D2D9FF868116534381EECA3CE58BDB5 PUSH1 0x1 SLOAD DUP4 DUP4 PUSH1 0x40 MLOAD DUP1 DUP5 DUP2 MSTORE PUSH1 0x20 ADD DUP4 DUP2 MSTORE PUSH1 0x20 ADD DUP3 PUSH20 0xFFFFFFFFFFFFFFFFFFFFFFFFFFFFFFFFFFFFFFFF AND DUP2 MSTORE PUSH1 0x20 ADD SWAP4 POP POP POP POP PUSH1 0x40 MLOAD DUP1 SWAP2 SUB SWAP1 LOG1 POP POP POP JUMP JUMPDEST PUSH1 0x0 DUP1 SLOAD SWAP1 PUSH2 0x100 EXP SWAP1 DIV PUSH20 0xFFFFFFFFFFFFFFFFFFFFFFFFFFFFFFFFFFFFFFFF AND PUSH20 0xFFFFFFFFFFFFFFFFFFFFFFFFFFFFFFFFFFFFFFFF AND PUSH4 0xE0ACB7A3 CALLER PUSH1 0x40 MLOAD DUP3 PUSH4 0xFFFFFFFF AND PUSH1 0xE0 SHL DUP2 MSTORE PUSH1 0x4 ADD DUP1 DUP3 PUSH20 0xFFFFFFFFFFFFFFFFFFFFFFFFFFFFFFFFFFFFFFFF AND DUP2 MSTORE PUSH1 0x20 ADD SWAP2 POP POP PUSH1 0x20 PUSH1 0x40 MLOAD DUP1 DUP4 SUB DUP2 DUP7 DUP1 EXTCODESIZE ISZERO DUP1 ISZERO PUSH2 0xE17 JUMPI PUSH1 0x0 DUP1 REVERT JUMPDEST POP GAS STATICCALL ISZERO DUP1 ISZERO PUSH2 0xE2B JUMPI RETURNDATASIZE PUSH1 0x0 DUP1 RETURNDATACOPY RETURNDATASIZE PUSH1 0x0 REVERT JUMPDEST POP POP POP POP PUSH1 0x40 MLOAD RETURNDATASIZE PUSH1 0x20 DUP2 LT ISZERO PUSH2 0xE41 JUMPI PUSH1 0x0 DUP1 REVERT JUMPDEST DUP2 ADD SWAP1 DUP1 DUP1 MLOAD SWAP1 PUSH1 0x20 ADD SWAP1 SWAP3 SWAP2 SWAP1 POP POP POP PUSH2 0xEC4 JUMPI PUSH1 0x40 MLOAD PUSH32 0x8C379A000000000000000000000000000000000000000000000000000000000 DUP2 MSTORE PUSH1 0x4 ADD DUP1 DUP1 PUSH1 0x20 ADD DUP3 DUP2 SUB DUP3 MSTORE PUSH1 0x16 DUP2 MSTORE PUSH1 0x20 ADD DUP1 PUSH32 0x53656E646572206E6F7420617574686F72697A65642E00000000000000000000 DUP2 MSTORE POP PUSH1 0x20 ADD SWAP2 POP POP PUSH1 0x40 MLOAD DUP1 SWAP2 SUB SWAP1 REVERT JUMPDEST PUSH1 0x0 PUSH1 0x4 DUP2 GT ISZERO PUSH2 0xED1 JUMPI INVALID JUMPDEST PUSH1 0x2 PUSH1 0x0 DUP5 DUP2 MSTORE PUSH1 0x20 ADD SWAP1 DUP2 MSTORE PUSH1 0x20 ADD PUSH1 0x0 KECCAK256 PUSH1 0x5 ADD PUSH1 0x0 SWAP1 SLOAD SWAP1 PUSH2 0x100 EXP SWAP1 DIV PUSH1 0xFF AND PUSH1 0x4 DUP2 GT ISZERO PUSH2 0xF00 JUMPI INVALID JUMPDEST EQ DUP1 PUSH2 0xF45 JUMPI POP PUSH1 0x3 PUSH1 0x4 DUP2 GT ISZERO PUSH2 0xF14 JUMPI INVALID JUMPDEST PUSH1 0x2 PUSH1 0x0 DUP5 DUP2 MSTORE PUSH1 0x20 ADD SWAP1 DUP2 MSTORE PUSH1 0x20 ADD PUSH1 0x0 KECCAK256 PUSH1 0x5 ADD PUSH1 0x0 SWAP1 SLOAD SWAP1 PUSH2 0x100 EXP SWAP1 DIV PUSH1 0xFF AND PUSH1 0x4 DUP2 GT ISZERO PUSH2 0xF43 JUMPI INVALID JUMPDEST EQ JUMPDEST PUSH2 0xF9A JUMPI PUSH1 0x40 MLOAD PUSH32 0x8C379A000000000000000000000000000000000000000000000000000000000 DUP2 MSTORE PUSH1 0x4 ADD DUP1 DUP1 PUSH1 0x20 ADD DUP3 DUP2 SUB DUP3 MSTORE PUSH1 0x2D DUP2 MSTORE PUSH1 0x20 ADD DUP1 PUSH2 0x1108 PUSH1 0x2D SWAP2 CODECOPY PUSH1 0x40 ADD SWAP2 POP POP PUSH1 0x40 MLOAD DUP1 SWAP2 SUB SWAP1 REVERT JUMPDEST CALLER PUSH20 0xFFFFFFFFFFFFFFFFFFFFFFFFFFFFFFFFFFFFFFFF AND PUSH1 0x2 PUSH1 0x0 DUP5 DUP2 MSTORE PUSH1 0x20 ADD SWAP1 DUP2 MSTORE PUSH1 0x20 ADD PUSH1 0x0 KECCAK256 PUSH1 0x0 ADD PUSH1 0x0 SWAP1 SLOAD SWAP1 PUSH2 0x100 EXP SWAP1 DIV PUSH20 0xFFFFFFFFFFFFFFFFFFFFFFFFFFFFFFFFFFFFFFFF AND PUSH20 0xFFFFFFFFFFFFFFFFFFFFFFFFFFFFFFFFFFFFFFFF AND EQ PUSH2 0x1071 JUMPI PUSH1 0x40 MLOAD PUSH32 0x8C379A000000000000000000000000000000000000000000000000000000000 DUP2 MSTORE PUSH1 0x4 ADD DUP1 DUP1 PUSH1 0x20 ADD DUP3 DUP2 SUB DUP3 MSTORE PUSH1 0x1B DUP2 MSTORE PUSH1 0x20 ADD DUP1 PUSH32 0x4D616E756661637475726572206E6F7420617574686F72697A65640000000000 DUP2 MSTORE POP PUSH1 0x20 ADD SWAP2 POP POP PUSH1 0x40 MLOAD DUP1 SWAP2 SUB SWAP1 REVERT JUMPDEST PUSH32 0xC382EF700BF5DB62B7270B2A6D0029B93C53F5FDD928B9E81615C604B9C451E0 DUP3 DUP3 PUSH1 0x40 MLOAD DUP1 DUP4 DUP2 MSTORE PUSH1 0x20 ADD DUP3 DUP2 MSTORE PUSH1 0x20 ADD SWAP3 POP POP POP PUSH1 0x40 MLOAD DUP1 SWAP2 SUB SWAP1 LOG1 DUP1 PUSH1 0x2 PUSH1 0x0 DUP5 DUP2 MSTORE PUSH1 0x20 ADD SWAP1 DUP2 MSTORE PUSH1 0x20 ADD PUSH1 0x0 KECCAK256 PUSH1 0x4 ADD DUP2 SWAP1 SSTORE POP PUSH1 0x1 PUSH1 0x2 PUSH1 0x0 DUP5 DUP2 MSTORE PUSH1 0x20 ADD SWAP1 DUP2 MSTORE PUSH1 0x20 ADD PUSH1 0x0 KECCAK256 PUSH1 0x5 ADD PUSH1 0x0 PUSH2 0x100 EXP DUP2 SLOAD DUP2 PUSH1 0xFF MUL NOT AND SWAP1 DUP4 PUSH1 0x4 DUP2 GT ISZERO PUSH2 0x10FE JUMPI INVALID JUMPDEST MUL OR SWAP1 SSTORE POP POP POP JUMP INVALID NUMBER PUSH16 0x6E7472616374206E6F7420617661696C PUSH2 0x626C PUSH6 0x20666F722070 PUSH19 0x696365206E65676F74696174696F6E2E4D616E PUSH22 0x66616374757265722061646472657373206E6F742072 PUSH6 0x636F676E697A PUSH6 0x642EA2646970 PUSH7 0x73582212203291 PUSH8 0xD7A319B94296F46 0xED GAS 0x22 PUSH14 0x1A3A55FF6CD1559F340F5DB08588 0x29 0xD9 0xF PUSH5 0x736F6C6343 STOP MOD 0xC STOP CALLER PUSH1 0x80 PUSH1 0x40 MSTORE CALLVALUE DUP1 ISZERO PUSH2 0x10 JUMPI PUSH1 0x0 DUP1 REVERT JUMPDEST POP PUSH1 0x40 MLOAD PUSH2 0x3EE CODESIZE SUB DUP1 PUSH2 0x3EE DUP4 CODECOPY DUP2 DUP2 ADD PUSH1 0x40 MSTORE PUSH1 0x20 DUP2 LT ISZERO PUSH2 0x33 JUMPI PUSH1 0x0 DUP1 REVERT JUMPDEST DUP2 ADD SWAP1 DUP1 DUP1 MLOAD SWAP1 PUSH1 0x20 ADD SWAP1 SWAP3 SWAP2 SWAP1 POP POP POP DUP1 PUSH1 0x0 DUP1 PUSH2 0x100 EXP DUP2 SLOAD DUP2 PUSH20 0xFFFFFFFFFFFFFFFFFFFFFFFFFFFFFFFFFFFFFFFF MUL NOT AND SWAP1 DUP4 PUSH20 0xFFFFFFFFFFFFFFFFFFFFFFFFFFFFFFFFFFFFFFFF AND MUL OR SWAP1 SSTORE POP POP PUSH2 0x35A DUP1 PUSH2 0x94 PUSH1 0x0 CODECOPY PUSH1 0x0 RETURN INVALID PUSH1 0x80 PUSH1 0x40 MSTORE PUSH1 0x4 CALLDATASIZE LT PUSH2 0x1E JUMPI PUSH1 0x0 CALLDATALOAD PUSH1 0xE0 SHR DUP1 PUSH4 0x82A666D0 EQ PUSH2 0x23 JUMPI JUMPDEST PUSH1 0x0 DUP1 REVERT JUMPDEST PUSH2 0x65 PUSH1 0x4 DUP1 CALLDATASIZE SUB PUSH1 0x20 DUP2 LT ISZERO PUSH2 0x39 JUMPI PUSH1 0x0 DUP1 REVERT JUMPDEST DUP2 ADD SWAP1 DUP1 DUP1 CALLDATALOAD PUSH20 0xFFFFFFFFFFFFFFFFFFFFFFFFFFFFFFFFFFFFFFFF AND SWAP1 PUSH1 0x20 ADD SWAP1 SWAP3 SWAP2 SWAP1 POP POP POP PUSH2 0x67 JUMP JUMPDEST STOP JUMPDEST PUSH1 0x0 DUP1 SLOAD SWAP1 PUSH2 0x100 EXP SWAP1 DIV PUSH20 0xFFFFFFFFFFFFFFFFFFFFFFFFFFFFFFFFFFFFFFFF AND PUSH20 0xFFFFFFFFFFFFFFFFFFFFFFFFFFFFFFFFFFFFFFFF AND PUSH4 0x20FE4CFF CALLER PUSH1 0x40 MLOAD DUP3 PUSH4 0xFFFFFFFF AND PUSH1 0xE0 SHL DUP2 MSTORE PUSH1 0x4 ADD DUP1 DUP3 PUSH20 0xFFFFFFFFFFFFFFFFFFFFFFFFFFFFFFFFFFFFFFFF AND DUP2 MSTORE PUSH1 0x20 ADD SWAP2 POP POP PUSH1 0x20 PUSH1 0x40 MLOAD DUP1 DUP4 SUB DUP2 DUP7 DUP1 EXTCODESIZE ISZERO DUP1 ISZERO PUSH2 0xEE JUMPI PUSH1 0x0 DUP1 REVERT JUMPDEST POP GAS STATICCALL ISZERO DUP1 ISZERO PUSH2 0x102 JUMPI RETURNDATASIZE PUSH1 0x0 DUP1 RETURNDATACOPY RETURNDATASIZE PUSH1 0x0 REVERT JUMPDEST POP POP POP POP PUSH1 0x40 MLOAD RETURNDATASIZE PUSH1 0x20 DUP2 LT ISZERO PUSH2 0x118 JUMPI PUSH1 0x0 DUP1 REVERT JUMPDEST DUP2 ADD SWAP1 DUP1 DUP1 MLOAD SWAP1 PUSH1 0x20 ADD SWAP1 SWAP3 SWAP2 SWAP1 POP POP POP PUSH2 0x19B JUMPI PUSH1 0x40 MLOAD PUSH32 0x8C379A000000000000000000000000000000000000000000000000000000000 DUP2 MSTORE PUSH1 0x4 ADD DUP1 DUP1 PUSH1 0x20 ADD DUP3 DUP2 SUB DUP3 MSTORE PUSH1 0x16 DUP2 MSTORE PUSH1 0x20 ADD DUP1 PUSH32 0x53656E646572206E6F7420617574686F72697A65642E00000000000000000000 DUP2 MSTORE POP PUSH1 0x20 ADD SWAP2 POP POP PUSH1 0x40 MLOAD DUP1 SWAP2 SUB SWAP1 REVERT JUMPDEST PUSH1 0x0 DUP1 SLOAD SWAP1 PUSH2 0x100 EXP SWAP1 DIV PUSH20 0xFFFFFFFFFFFFFFFFFFFFFFFFFFFFFFFFFFFFFFFF AND PUSH20 0xFFFFFFFFFFFFFFFFFFFFFFFFFFFFFFFFFFFFFFFF AND PUSH4 0xF767C6E9 DUP3 PUSH1 0x40 MLOAD DUP3 PUSH4 0xFFFFFFFF AND PUSH1 0xE0 SHL DUP2 MSTORE PUSH1 0x4 ADD DUP1 DUP3 PUSH20 0xFFFFFFFFFFFFFFFFFFFFFFFFFFFFFFFFFFFFFFFF AND DUP2 MSTORE PUSH1 0x20 ADD SWAP2 POP POP PUSH1 0x20 PUSH1 0x40 MLOAD DUP1 DUP4 SUB DUP2 DUP7 DUP1 EXTCODESIZE ISZERO DUP1 ISZERO PUSH2 0x222 JUMPI PUSH1 0x0 DUP1 REVERT JUMPDEST POP GAS STATICCALL ISZERO DUP1 ISZERO PUSH2 0x236 JUMPI RETURNDATASIZE PUSH1 0x0 DUP1 RETURNDATACOPY RETURNDATASIZE PUSH1 0x0 REVERT JUMPDEST POP POP POP POP PUSH1 0x40 MLOAD RETURNDATASIZE PUSH1 0x20 DUP2 LT ISZERO PUSH2 0x24C JUMPI PUSH1 0x0 DUP1 REVERT JUMPDEST DUP2 ADD SWAP1 DUP1 DUP1 MLOAD SWAP1 PUSH1 0x20 ADD SWAP1 SWAP3 SWAP2 SWAP1 POP POP POP PUSH2 0x2B2 JUMPI PUSH1 0x40 MLOAD PUSH32 0x8C379A000000000000000000000000000000000000000000000000000000000 DUP2 MSTORE PUSH1 0x4 ADD DUP1 DUP1 PUSH1 0x20 ADD DUP3 DUP2 SUB DUP3 MSTORE PUSH1 0x28 DUP2 MSTORE PUSH1 0x20 ADD DUP1 PUSH2 0x2FD PUSH1 0x28 SWAP2 CODECOPY PUSH1 0x40 ADD SWAP2 POP POP PUSH1 0x40 MLOAD DUP1 SWAP2 SUB SWAP1 REVERT JUMPDEST DUP1 PUSH20 0xFFFFFFFFFFFFFFFFFFFFFFFFFFFFFFFFFFFFFFFF AND PUSH2 0x8FC CALLVALUE SWAP1 DUP2 ISZERO MUL SWAP1 PUSH1 0x40 MLOAD PUSH1 0x0 PUSH1 0x40 MLOAD DUP1 DUP4 SUB DUP2 DUP6 DUP9 DUP9 CALL SWAP4 POP POP POP POP ISZERO DUP1 ISZERO PUSH2 0x2F8 JUMPI RETURNDATASIZE PUSH1 0x0 DUP1 RETURNDATACOPY RETURNDATASIZE PUSH1 0x0 REVERT JUMPDEST POP POP JUMP INVALID PUSH20 0x6572766963652070726F76696465722061646472 PUSH6 0x7373206E6F74 KECCAK256 PUSH19 0x65636F676E697A65642EA26469706673582212 KECCAK256 0x2B 0xB2 ISZERO PUSH9 0xC21E8C459EEC8EEBA8 DUP6 0xE8 0xF9 MSTORE 0xF6 0x2F 0xDF 0xD3 SLT SLOAD LOG4 0x2D CALLVALUE SELFBALANCE 0xD4 0xAF 0xAA PUSH19 0x7D64736F6C634300060C003350757263686173 PUSH6 0x206E65676F74 PUSH10 0x6174696F6E20616C7265 PUSH2 0x6479 KECCAK256 PUSH5 0x65706C6F79 PUSH6 0x645265626174 PUSH6 0x20736574746C PUSH6 0x6D656E74206E PUSH16 0x74206465706C6F796564207965745075 PUSH19 0x6368617365206E65676F74696174696F6E206E PUSH16 0x74206465706C6F796564207965745265 PUSH3 0x617465 KECCAK256 PUSH20 0x6574746C656D656E7420616C7265616479206465 PUSH17 0x6C6F796564A26469706673582212206E55 DUP10 SSTORE DUP1 PUSH9 0x3B5ADCF6A21287B534 0xFC PUSH10 0xC7920788F708A4191DA4 0xF8 0xCB PUSH4 0x27706473 PUSH16 0x6C634300060C00330000000000000000 "},"gasEstimates":{"creation":{"codeDepositCost":"3761600","executionCost":"25120","totalCost":"3786720"},"external":{"createLoyaltyRebates()":"infinite","createPurchaseNegotiations()":"infinite","createPurchaseOrders()":"infinite","createRebatesSettelment()":"infinite","createRegistration()":"infinite","deployedRegistrationContracts(address,uint256)":"1352"}},"methodIdentifiers":{"createLoyaltyRebates()":"d67c8f22","createPurchaseNegotiations()":"cdb0732d","createPurchaseOrders()":"a2e3a0d3","createRebatesSettelment()":"2578a72c","createRegistration()":"741f4ebc","deployedRegistrationContracts(address,uint256)":"dc94ae5a"}},"storageLayout":{"storage":[{"astId":3,"contract":"Procure.sol:ContractFactory","label":"institute","offset":0,"slot":"0","type":"t_address"},{"astId":9,"contract":"Procure.sol:ContractFactory","label":"deployedRegistrationContracts","offset":0,"slot":"1","type":"t_mapping(t_address,t_array(t_address)5_storage)"},{"astId":13,"contract":"Procure.sol:ContractFactory","label":"registeredGPOs","offset":0,"slot":"2","type":"t_mapping(t_address,t_bool)"}],"types":{"t_address":{"encoding":"inplace","label":"address","numberOfBytes":"20"},"t_array(t_address)5_storage":{"base":"t_address","encoding":"inplace","label":"address[5]","numberOfBytes":"160"},"t_bool":{"encoding":"inplace","label":"bool","numberOfBytes":"1"},"t_mapping(t_address,t_array(t_address)5_storage)":{"encoding":"mapping","key":"t_address","label":"mapping(address => address[5])","numberOfBytes":"32","value":"t_array(t_address)5_storage"},"t_mapping(t_address,t_bool)":{"encoding":"mapping","key":"t_address","label":"mapping(address => bool)","numberOfBytes":"32","value":"t_bool"}}},"userdoc":{"kind":"user","methods":{},"version":1}}